:020000040800F2
:1000000000800120B1BD020879B8020889B8020851
:100010008FB8020895B802089BB8020800000000DB
:10002000000000000000000000000000A1B802086D
:10003000AFB8020800000000BDB80208CBB8020843
:1000400001BE020801BE020801BE020801BE02088C
:1000500001BE020801BE020801BE020801BE02087C
:1000600001BE020801BE020801BE020801BE02086C
:1000700001BE020801BE020801BE020801BE02085C
:1000800001BE020801BE020801BE02080000000015
:1000900000000000000000000000000001BE020897
:1000A00001BE020801BE020801BE020801BE02082C
:1000B00001BE020801BE020801BE020801BE02081C
:1000C00001BE020801BE020801BE020801BE02080C
:1000D00001BE0208D9B8020801BE020800000000F3
:1000E00001BE020801BE020801BE020800000000B5
:1000F00000000000000000000000000001BE020837
:100100000000000001BE020801BE020801BE020894
:1001100000000000000000000000000000000000DF
:1001200015B9020801BE0208EDB8020829B9020893
:1001300001BE0208000000000000000000000000F6
:1001400000000000000000000000000001BE0208E6
:1001500001BE020801BE020801B9020801BE020880
:1001600001BE020801BE02080000000000000000FD
:10017000000000000000000000000000000000007F
:100180000000000001BE02080000000000000000A6
:0401900001BE0208A2
:1001A00010B5054C237833B9044B13B10448AFF3B1
:1001B00000800123237010BD3406002000000000E1
:1001C0002C0E030808B5034B1BB103490348AFF3DA
:1001D000008008BD00000000380600202C0E030837
:1001E00030B50B6804460068984283B008D00B49CC
:1001F0000B481323392202F033FB132003B030BD28
:100200004B6800938B681546D4E9012108F00AF881
:10021000002085ED000A03B030BD00BFFC0E0308CE
:10022000040F030830B50B6804460068984283B099
:1002300008D00B490B4813234A2202F011FB13206C
:1002400003B030BD4B6800938B681546D4E901219B
:100250000DF04CFE002085ED000B03B030BD00BF5B
:10026000FC0E0308040F030830B50B680446006851
:10027000984283B008D00B490B4813235B2202F04D
:10028000EFFA132003B030BD4B6800938B6815461E
:10029000D4E9012107F09EFF002085ED000A03B09C
:1002A00030BD00BFFC0E0308040F030830B50B6817
:1002B00004460068984283B008D00B490B481323CA
:1002C0006B2202F0CDFA132003B030BD4B680093CF
:1002D0008B681546D4E901210CF0D6F9002085ED94
:1002E000000B03B030BD00BFFC0E0308040F030871
:1002F00010B50B6804460068984282B008D00A49DD
:100300000A4813237C2202F0ABFA132002B010BD7E
:100310004B68CDE900328B68D4E9012112F058FA1C
:10032000002002B010BD00BFFC0E0308040F03083C
:1003300010B50B6804460068984282B008D00A499C
:100340000A4813238D2202F08BFA132002B010BD4D
:100350004B68CDE900328B68D4E9012112F0A4F991
:10036000002002B010BD00BFFC0E0308040F0308FC
:1003700010B50B6804460068984282B008D00A495C
:100380000A4813239E2202F06BFA132002B010BD1C
:100390004B68CDE900328B68D4E901211AF02CF8C2
:1003A000002002B010BD00BFFC0E0308040F0308BC
:1003B00010B50B6804460068984282B008D00A491C
:1003C0000A481323AF2202F04BFA132002B010BDEB
:1003D0004B68CDE900328B68D4E9012119F07CFF2C
:1003E000002002B010BD00BFFC0E0308040F03087C
:1003F000D0E90121006808F08DBC00BFD0E90121DF
:1004000000680CF0F9BF00BFD0E90121006807F0D7
:100410003FBE00BFD0E90121006812F00DB800BF57
:10042000D0E90121006807F05BBD00BFD0E90121E0
:1004300000680CF023B800BFD0E90121006807F084
:10044000E5BD00BFD0E90121006811F0B9BF00BFD0
:10045000D0E90121006828F0EBB800BFD0E9012104
:10046000006828F0B7B800BFD0E90121006828F083
:1004700087B800BFD0E90121006828F0FDB800BFAF
:1004800010B50B6804460068984282B009D00A494A
:100490000A48132340F20F1202F0E2F9132002B0CF
:1004A00010BD4B6800938B68D4E9012108F0D8FE99
:1004B000002002B010BD00BFFC0E0308040F0308AB
:1004C00010B50B6804460068984282B009D00A490A
:1004D0000A4813234FF48F7202F0C2F9132002B0BE
:1004E00010BD4B6800938B68D4E901210DF03CFDF1
:1004F000002002B010BD00BFFC0E0308040F03086B
:1005000010B50B6804460068984282B009D00A49C9
:100510000A48132340F22D1202F0A2F9132002B070
:1005200010BD4B6800938B68D4E9012115F0CAFD1A
:10053000002002B010BD00BFFC0E0308040F03082A
:1005400010B50B6804460068984282B009D00A4989
:100550000A4813234FF49E7202F082F9132002B06E
:1005600010BD4B6800938B68D4E9012120F026FB75
:10057000002002B010BD00BFFC0E0308040F0308EA
:1005800010B50B6804460068984282B009D00A4949
:100590000A4813234FF4A77202F062F9132002B045
:1005A00010BD4B6800938B68D4E9012107F0F2FD80
:1005B000002002B010BD00BFFC0E0308040F0308AA
:1005C00010B50B6804460068984282B009D00A4909
:1005D0000A48132340F25D1202F042F9132002B0E0
:1005E00010BD4B6800938B68D4E901210CF02AF808
:1005F000002002B010BD00BFFC0E0308040F03086A
:1006000010B50B6804460068984282B009D00A49C8
:100610000A48132340F26D1202F022F9132002B0AF
:1006200010BD4B6800938B68D4E9012112F01AF8D1
:10063000002002B010BD00BFFC0E0308040F030829
:1006400010B50B6804460068984282B009D00A4988
:100650000A4813234FF4BE7202F002F9132002B0CD
:1006600010BD4B6800938B68D4E9012119F00EFE90
:10067000002002B010BD00BFFC0E0308040F0308E9
:1006800010B50B6804460068984282B009D00A4948
:100690000A4813234FF4C77202F0E2F8132002B0A5
:1006A00010BD4B6800938B68D4E9012107F030FC42
:1006B000002002B010BD00BFFC0E0308040F0308A9
:1006C00010B50B6804460068984282B009D00A4908
:1006D0000A48132340F29D1202F0C2F8132002B020
:1006E00010BD4B6800938B68D4E901210BF0ECFE40
:1006F000002002B010BD00BFFC0E0308040F030869
:1007000010B50B680246006884B098428DED020A6D
:10071000CDED030A09D00B490B4813234FF4D772D0
:1007200002F09EF8132004B010BDD1E90143CDE9D9
:10073000003402A9D2E9013211F044FF002004B0D4
:1007400010BD00BFFC0E0308040F030810B50B68B2
:100750000246006886B098428DED020B8DED041BB9
:1007600009D00B490B4813234FF4DF7202F078F8DD
:10077000132006B010BDD1E90143CDE9003402A930
:10078000D2E9013219F0EEFC002006B010BD00BF26
:10079000FC0E0308040F030808B508F047FB00200F
:1007A00008BD00BF08B50CF023FF002008BD00BF46
:1007B00010B50B6804460068984282B009D00A4917
:1007C0000A48132340F2DF1202F04AF8132002B065
:1007D00010BD4B6800938B68D4E9012108F0F6FA4C
:1007E000002002B010BD00BFFC0E0308040F030878
:1007F00010B50B6804460068984282B009D00A49D7
:100800000A4813234FF4F77202F02AF8132002B0BB
:1008100010BD4B6800938B68D4E901210CF076FE83
:10082000002002B010BD00BFFC0E0308040F030837
:1008300008B508F0EBFB002008BD00BF08B50DF0BF
:100840009BF8002008BD00BF10B50B680446006887
:10085000984282B009D00A490A48132340F2112273
:1008600001F0FEFF132002B010BD4B68CDE900324D
:100870008B68D4E9012108F05BFB002002B010BDB9
:10088000FC0E0308040F030810B50B68044600684B
:10089000984282B009D00A490A4813234FF40872DB
:1008A00001F0DEFF132002B010BD4B68CDE900322D
:1008B0008B68D4E901210CF077FF002002B010BD55
:1008C000FC0E0308040F0308D0E90121006808F0BA
:1008D000B5BC00BFD0E9012100680DF0EBBA00BF44
:1008E00000B583B0D0E90132694600688DED000A99
:1008F000CDED010A15F0A2FB03B05DF804FB00BFCB
:1009000000B585B0D0E90132694600688DED000B75
:100910008DED021B20F0FCF805B05DF804FB00BF74
:10092000D0E90121006815F0AFBB00BFD0E901217B
:10093000006819F0EDBD00BFF0B56F28D1E90045A2
:1009400087B011D0702805D11668A64202D11E6862
:10095000AE420FD012491348132340F2662201F031
:100960007FFF132007B0F0BD1668AE42F2D11E68BB
:10097000A642EFD1D3E90163D2E901EC0596D1E9B2
:100980000276224604930146CDE902CECDE9006706
:100990002B46652007F032FF002007B0F0BD00BFF6
:1009A000FC0E0308040F0308F0B56F28D1E90045D9
:1009B00087B011D0702805D11668A64202D11E68F2
:1009C000AE420FD01249134813234FF41F7201F0A7
:1009D00047FF132007B0F0BD1668AE42F2D11E6883
:1009E000A642EFD1D3E90163D2E901EC0596D1E942
:1009F0000276224604930146CDE902CECDE9006796
:100A00002B4665200CF0C8F9002007B0F0BD00BFF0
:100A1000FC0E0308040F03082DE9F0416F288CB089
:100A2000D1E900450E468DED0A0ACDED0B0A8DED9C
:100A3000081ACDED091A15D0702810D11168A142FD
:100A400002D11968A94213D018491948132340F25A
:100A5000962201F005FF13200CB0BDE8F08171284B
:100A6000ECD0F1E71168A942EED11968A142EBD1AF
:100A7000D3E90118D2E901C70791CDF818802B46B8
:100A80002246D6E902540DF1200E01460AA8009034
:100A9000CDE9037CCDE90145CDF814E0652012F0E5
:100AA000F5FA00200CB0BDE8F08100BFFC0E030891
:100AB000040F03082DE9F0416F2890B0D1E90045FB
:100AC0008DED0C0B8DED0E1B8DED082B8DED0A3B86
:100AD0000E4615D0702810D11168A14202D11968B4
:100AE000A94213D018491948132340F2AF2201F04C
:100AF000B7FE132010B0BDE8F0817128ECD0F1E70B
:100B00001168A942EED11968A142EBD1D3E90118CD
:100B1000D2E901C70791CDF818802B462246D6E9C5
:100B200002540DF1200E01460CA80090CDE9037C83
:100B3000CDE90145CDF814E065201AF075FB0020E1
:100B400010B0BDE8F08100BFFC0E0308040F0308DD
:100B5000F0B5D1E900658DB0AE428DED0A0ACDED5C
:100B60000B0A8DED081ACDED091A27D11568B5428B
:100B700003D10C461968A94209D015491548132319
:100B800040F2C62201F06CFE13200DB0F0BDD3E997
:100B90000173D2E90165069705930A460146D4E937
:100BA000020308AFCDE901050093CDE903670AAB65
:100BB000652013F03FFC00200DB0F0BD044906484D
:100BC000142340F2C22201F04BFE14200DB0F0BD00
:100BD000FC0E0308040F0308140F0308F0B5D1E955
:100BE000006591B0AE428DED0C0B8DED0E1B8DEDC1
:100BF000082B8DED0A3B27D11568B54203D10C4671
:100C00001968A94209D015491548132340F2DD227D
:100C100001F026FE132011B0F0BDD3E90173D2E933
:100C20000165069705930A460146D4E9020308AF19
:100C3000CDE901050093CDE903670CAB65201CF0FD
:100C400033FD002011B0F0BD04490648142340F2E2
:100C5000D92201F005FE142011B0F0BDFC0E0308EE
:100C6000040F0308140F0308F0B5D1E90065AE4284
:100C700087B024D11568B54203D10C461968A94242
:100C800009D014491448132340F2F62201F0E8FD7C
:100C9000132007B0F0BDD3E901C7D2E90165CDF853
:100CA00010C0A3680093CDE9015603970A46E36894
:100CB0000146652008F00EFE002007B0F0BD054992
:100CC0000648142340F2F22201F0CAFD142007B0B6
:100CD000F0BD00BFFC0E0308040F0308140F030847
:100CE000F0B5D1E90065AE4287B024D11568B542B0
:100CF00003D10C461968A94209D01449144813239A
:100D000040F20B3201F0ACFD132007B0F0BDD3E987
:100D100001C7D2E90165CDF810C0A3680093CDE901
:100D2000015603970A46E368014665200DF0AAFDC7
:100D3000002007B0F0BD05490648142340F20732F1
:100D400001F08EFD142007B0F0BD00BFFC0E0308BB
:100D5000040F0308140F0308F0B5D3E9006487B04B
:100D6000A6420C9D1ED12C68B44211D1D5E9017662
:100D70000094D3E902541346CDE902560A4604977B
:100D80000146019465200AF0E3FA002007B0F0BDA7
:100D900009490A4813234FF4497201F061FD1320F9
:100DA00007B0F0BD0449064814234FF4487201F01F
:100DB00057FD142007B0F0BDFC0E0308040F030814
:100DC000140F0308F0B5D3E9006487B0A6420C9D68
:100DD0001ED12C68B44211D1D5E901760094D3E933
:100DE00002541346CDE902560A460497014601947F
:100DF00065200FF07BFF002007B0F0BD09490A48CD
:100E0000132340F23A3201F02BFD132007B0F0BD5E
:100E100004490648142340F2363201F021FD142023
:100E200007B0F0BDFC0E0308040F0308140F0308FD
:100E3000F0B5D3E9006487B0A6420C9D1ED12C68A2
:100E4000B44211D1D5E901760094D3E90254134696
:100E5000CDE902560A46049701460194652017F031
:100E600001FA002007B0F0BD09490A48132340F2F7
:100E7000513201F0F5FC132007B0F0BD04490648DB
:100E8000142340F24D3201F0EBFC142007B0F0BD0A
:100E9000FC0E0308040F0308140F0308F0B5D3E990
:100EA000006487B0A6420C9D1ED12C68B44211D1BB
:100EB000D5E901760094D3E902541346CDE90256F0
:100EC0000A46049701460194652024F0B5F80020F5
:100ED00007B0F0BD09490A4813234FF45A7201F0D4
:100EE000BFFC132007B0F0BD0449064814234FF49B
:100EF000597201F0B5FC142007B0F0BDFC0E0308D8
:100F0000040F0308140F0308F0B5D3E9006487B099
:100F1000A6420C9D1ED12C68B44211D1D5E90176B0
:100F20000094D3E902541346CDE902560A460497C9
:100F30000146019465200BF0A7F8002007B0F0BD32
:100F400009490A48132340F2813201F089FC132039
:100F500007B0F0BD04490648142340F27D3201F089
:100F60007FFC142007B0F0BDFC0E0308040F03083B
:100F7000140F0308F0B5D3E9006487B0A6420C9DB6
:100F80001ED12C68B44211D1D5E901760094D3E981
:100F900002541346CDE902560A46049701460194CD
:100FA000652010F077FF002007B0F0BD09490A481E
:100FB000132340F2973201F053FC132007B0F0BD29
:100FC00004490648142340F2933201F049FC1420EE
:100FD00007B0F0BDFC0E0308040F0308140F03084C
:100FE000F0B5D3E9006487B0A6420C9D1ED12C68F1
:100FF000B44211D1D5E901760094D3E902541346E5
:10100000CDE902560A46049701460194652018F07E
:101010008DFC002007B0F0BD09490A48132340F2B7
:10102000AE3201F01DFC132007B0F0BD04490648A4
:10103000142340F2AA3201F013FC142007B0F0BDD3
:10104000FC0E0308040F0308140F0308F0B5D3E9DE
:10105000006487B0A6420C9D1ED12C68B44211D109
:10106000D5E901760094D3E902541346CDE902563E
:101070000A46049701460194652026F06BFB002088
:1010800007B0F0BD09490A48132340F2C53201F008
:10109000E7FB132007B0F0BD04490648142340F2D3
:1010A000C13201F0DDFB142007B0F0BDFC0E0308D7
:1010B000040F0308140F0308F0B503681468A34273
:1010C00087B003D155680C68AC4209D00E490F486F
:1010D00013234FF4787201F0C3FB132007B0F0BD67
:1010E000D2E90252D1E90176049545680095CDE92F
:1010F00001670392194622468368652007F0F6FCD3
:10110000002007B0F0BD00BFFC0E0308040F030869
:10111000F0B503681468A34287B003D155680C6822
:10112000AC4209D00E490F48132340F2F53201F0CA
:1011300097FB132007B0F0BDD2E90252D1E9017646
:10114000049545680095CDE901670392194622464A
:10115000836865200BF0F0FF002007B0F0BD00BFF2
:10116000FC0E0308040F0308F0B51368046889B087
:101170009C428DED060ACDED070A03D155680B6838
:10118000AB4209D00F491048132340F20E4201F040
:1011900067FB132009B0F0BDD2E90252D1E9017614
:1011A0000595D0E901502146CDE900050492CDE92D
:1011B00002671A46652006AB12F074FB002009B0E6
:1011C000F0BD00BFFC0E0308040F0308F0B5136860
:1011D00004688BB09C428DED060B8DED081B03D18E
:1011E00055680B68AB4209D00F491048132340F2F1
:1011F000224201F035FB13200BB0F0BDD2E90252C0
:10120000D1E901760595D0E901502146CDE90005E7
:101210000492CDE902671A46652006AB1AF058FF22
:1012200000200BB0F0BD00BFFC0E0308040F030844
:10123000F0B51368046889B09C428DED060ACDEDC7
:10124000070A03D155680B68AB4209D00F49104813
:10125000132340F23B4201F003FB132009B0F0BD21
:10126000D2E90252D1E901760595D0E90150214633
:10127000CDE900050492CDE902671A46652006AB68
:1012800012F09CF9002009B0F0BD00BFFC0E03086D
:10129000040F0308F0B5136804688BB09C428DED11
:1012A000060B8DED081B03D155680B68AB4209D0C6
:1012B0000F49104813234FF48A6201F0D1FA13202A
:1012C0000BB0F0BDD2E90252D1E901760595D0E923
:1012D00001502146CDE900050492CDE902671A4686
:1012E000652006AB1AF09CFC00200BB0F0BD00BFDF
:1012F000FC0E0308040F030870B5D2E90045AC42A8
:1013000084B01CD10B460968A1420ED1D2E9026516
:101310005C680296CDE900450A469B680146652057
:1013200013F04CFB002004B070BD0A490A48132397
:1013300040F2644201F094FA132004B070BD0549F4
:10134000064814234FF48C6201F08AFA142004B08A
:1013500070BD00BFFC0E0308040F0308140F030840
:1013600070B5D2E90045AC4284B01CD10B46096887
:10137000A1420ED1D2E902655C680296CDE9004532
:101380000A469B68014665201CF0C6FE002004B09A
:1013900070BD0A490A48132340F27A4201F060FA0C
:1013A000132004B070BD05490648142340F276426C
:1013B00001F056FA142004B070BD00BFFC0E030803
:1013C000040F0308140F0308F0B5D3E9005489B0E3
:1013D000A5428DED060ACDED070A24D10C68AC427A
:1013E00002D11568A54209D014491548132340F2CB
:1013F000944201F035FA132009B0F0BDD3E902435D
:10140000D2E901760594D1E90142049300920146A4
:10141000CDE902672A46019406AB652013F03EFC35
:10142000002009B0F0BD0549064814234FF492622C
:1014300001F016FA142009B0F0BD00BFFC0E03083D
:10144000040F0308140F0308F0B5D3E900548BB060
:10145000A5428DED060B8DED081B24D10C68AC4226
:1014600002D11568A54209D014491548132340F24A
:10147000AC4201F0F5F913200BB0F0BDD3E9024303
:10148000D2E901760594D1E9014204930092014624
:10149000CDE902672A46019406AB65201DF0A8F845
:1014A00000200BB0F0BD0549064814234FF49562A7
:1014B00001F0D6F914200BB0F0BD00BFFC0E0308FC
:1014C000040F0308140F030870B5D2E90045AC42BD
:1014D00084B01CD10B460968A1420ED1D2E9026545
:1014E0005C680296CDE900450A469B680146652086
:1014F00008F0C0FB002004B070BD0A490A4813235D
:1015000040F2C54201F0ACF9132004B070BD0549AA
:101510000648142340F2C14201F0A2F9142004B09D
:1015200070BD00BFFC0E0308040F0308140F03086E
:1015300070B5D2E90045AC4284B01CD10B460968B5
:10154000A1420ED1D2E902655C680296CDE9004560
:101550000A469B68014665200DF00EFC002004B091
:1015600070BD0A490A48132340F2DB4201F078F9C2
:10157000132004B070BD05490648142340F2D74239
:1015800001F06EF9142004B070BD00BFFC0E03081A
:10159000040F0308140F0308F0B5D3E90045AC426B
:1015A00087B024D10D68A5420E4602D11168A94228
:1015B00009D014491448132340F2F34201F050F9C2
:1015C000132007B0F0BDD3E902C7D2E90154CDF82A
:1015D00010C073680093CDE9014503970A46B368CC
:1015E0000146652008F022FC002007B0F0BD054947
:1015F0000648142340F2EF4201F032F9142007B0FC
:10160000F0BD00BFFC0E0308040F0308140F03080D
:10161000F0B5D3E90045AC4287B024D10D68A542AE
:101620000E4602D11168A94209D014491448132367
:1016300040F2095201F014F9132007B0F0BDD3E9CC
:1016400002C7D2E90154CDF810C073680093CDE908
:10165000014503970A46B368014665200DF0B6FCC4
:10166000002007B0F0BD05490648142340F205529A
:1016700001F0F6F8142007B0F0BD00BFFC0E03081F
:10168000040F0308140F03082DE9F04188B06F28F8
:10169000DDF838C0D2E900E7DCF8006002D174461A
:1016A000BE4627466F29D3E9004502D1A0462C4605
:1016B0004546BE4205D1DCF80470BC4201D1AE45BE
:1016C0000AD01249124813234FF4A66201F0C8F859
:1016D000132008B0BDE8F081DCE9028CCDF804E00D
:1016E000D3E902E70094D2E9025433460A46CDE931
:1016F00005EC0146CDE90357CDF81C800294652026
:1017000006F0DCFD002008B0BDE8F081FC0E030807
:10171000040F03082DE9F04188B06F28DDF838C0C8
:10172000D2E900E7DCF8006002D17446BE462746E5
:101730006F29D3E9004502D1A0462C464546BE425A
:1017400005D1DCF80470BC4201D1AE450AD0124983
:101750001248132340F24A5201F082F8132008B0D5
:10176000BDE8F081DCE9028CCDF804E0D3E902E7C2
:101770000094D2E9025433460A46CDE905EC01460D
:10178000CDE90357CDF81C80029465200AF0B6FF1E
:10179000002008B0BDE8F081FC0E0308040F030828
:1017A0002DE9F0418EB06F28149C8DED0C0AD2E922
:1017B0000075D4F800E0CDED0D0A8DED0A1ACDEDDF
:1017C0000B1A02D13E462F4635466F29D3E9006CED
:1017D00002D1B0466646C446AE4504D16568AE4205
:1017E00001D167450AD014491448132340F26752C7
:1017F00001F036F813200EB0BDE8F081D4E90254B0
:1018000001970096D3E902870995D2E902650DF1A7
:10181000280C08940CAC0A46CDE9068C0146CDE9AB
:101820000467CDE902457346652011F05FF800209A
:101830000EB0BDE8F08100BFFC0E0308040F0308E2
:101840002DE9F04393B06F28DDF868C0D2E900E7D6
:101850008DED0E0B8DED101B8DED0A2B8DED0C3BE0
:10186000DCF8006002D17446BE4627466F29D3E9F2
:10187000004502D1A0462C464546BE4205D1DCF8C3
:101880000470BC4201D1AE450AD015491548132356
:1018900040F2835200F0E4FF132013B0BDE8F08360
:1018A000DCE90259CDF804E00094D3E9028C0995F3
:1018B000D2E902750DF1280E0EAC0A46CDE9068E6E
:1018C0000146CDE9047CCDE90245CDF820903346B0
:1018D000652018F045FE002013B0BDE8F08300BF7E
:1018E000FC0E0308040F0308F0B5D2E9006489B0C8
:1018F000A6420E9D34D18D28D5E90047D3E900CE0C
:1019000011D08E2805D1644503D1B74201D1774566
:101910000FD018491848132340F2A55200F0A0FF39
:10192000132009B0F0BDB442F3D17745F1D164453D
:10193000EFD1D5E9026E0097D3E902570696D2E9B6
:1019400002630A4601930146CDE90375CDF814E020
:1019500023460296652007F0A5FC002009B0F0BDE3
:101960000449064814234FF4B36200F079FF1420B1
:1019700009B0F0BDFC0E0308040F03082C0F030888
:10198000F0B5D2E9006489B0A6420E9D34D18D280D
:10199000D5E90047D3E900CE11D08E2805D16445A2
:1019A00003D1B74201D177450FD018491848132306
:1019B00040F2C65200F054FF132009B0F0BDB4420B
:1019C000F3D17745F1D16445EFD1D5E9026E0097A7
:1019D000D3E902570696D2E902630A46019301460B
:1019E000CDE90375CDF814E02346029665200CF08E
:1019F000E3FA002009B0F0BD04490648142340F280
:101A0000B95200F02DFF142009B0F0BDFC0E030800
:101A1000040F03082C0F03082DE9F0411446126847
:101A200067688EB0BA42149E8DED0C0ACDED0D0A9A
:101A30008DED0A1ACDED0B1A3DD11D468D28D6E944
:101A40000037D5E900CE12D08E2805D1634503D1E9
:101A5000974201D1774510D01C491D48132340F20D
:101A6000E95200F0FDFE13200EB0BDE8F081934274
:101A7000F2D17745F0D16345EED1D6E9028E0097D9
:101A8000CDF82080D5E90276CDF81CE0D4E90254E7
:101A90000DF1280C0A4601460CA80190CDE9046717
:101AA000CDE90245CDF818C0652014F045FB0020B3
:101AB0000EB0BDE8F08105490648142340F2DB5220
:101AC00000F0CEFE14200EB0BDE8F081FC0E03083D
:101AD000040F03082C0F0308F0B5D2E9007693B089
:101AE000B74214468DED0E0B8DED101B8DED0A2BBC
:101AF0008DED0C3B189A3AD11D468D28D2E900365F
:101B0000D5E900CE11D08E2805D1634503D1BE4260
:101B100001D176450FD01B491B48132340F20A62BE
:101B200000F09EFE132013B0F0BDBB42F3D176450A
:101B3000F1D16345EFD1D2E9027E00960897D5E94D
:101B40000276CDF81CE0D4E902540DF1280C0A46C7
:101B500001460EA80190CDE90467CDE90245CDF814
:101B600018C065201FF064F8002013B0F0BD0549CF
:101B70000648142340F2FC5200F072FE142013B009
:101B8000F0BD00BFFC0E0308040F03082C0F030870
:101B90002DE9F0411446126867688EB0BA42149E6F
:101BA0008DED0C0ACDED0D0A8DED0A1ACDED0B1A57
:101BB0003DD11D468D28D6E90037D5E900CE12D09B
:101BC0008E2805D1634503D1974201D1774510D0C6
:101BD0001C491D48132340F22F6200F041FE1320E0
:101BE0000EB0BDE8F0819342F2D17745F0D1634564
:101BF000EED1D6E9028E0097CDF82080D5E90276A5
:101C0000CDF81CE0D4E902540DF1280C0A46014637
:101C10000CA80190CDE90467CDE90245CDF818C0C4
:101C2000652011F0B3FF00200EB0BDE8F08105493A
:101C30000648142340F2216200F012FE14200EB078
:101C4000BDE8F081FC0E0308040F03082C0F030805
:101C5000F0B5D2E9007693B0B74214468DED0E0B85
:101C60008DED101B8DED0A2B8DED0C3B189A3AD1A2
:101C70001D468D28D2E90036D5E900CE11D08E2838
:101C800005D1634503D1BE4201D176450FD01B4932
:101C90001B48132340F2526200F0E2FD132013B000
:101CA000F0BDBB42F3D17645F1D16345EFD1D2E926
:101CB000027E00960897D5E90276CDF81CE0D4E9BB
:101CC00002540DF1280C0A4601460EA80190CDE9F8
:101CD0000467CDE90245CDF818C065201AF050FC24
:101CE000002013B0F0BD05490648142340F24462B9
:101CF00000F0B6FD142013B0F0BD00BFFC0E0308C9
:101D0000040F03082C0F0308F0B56F29D3E900472F
:101D1000D2E9006587B002D1B4462E466546BC4282
:101D20001DD1AC4211D1D3E902570096D2E902632A
:101D30000A4601930146CDE90267049523466520D2
:101D400008F0BAFC002007B0F0BD0A490A48132386
:101D500040F2676200F084FD132007B0F0BD054932
:101D60000648142340F2636200F07AFD142007B0A5
:101D7000F0BD00BFFC0E0308040F0308440F030866
:101D8000F0B56F29D3E90047D2E9006587B002D1E9
:101D9000B4462E466546BC421DD1AC4211D1D3E9B2
:101DA00002570096D2E902630A4601930146CDE943
:101DB00002670495234665200DF016FF002007B04A
:101DC000F0BD0A490A48132340F27F6200F048FD43
:101DD000132007B0F0BD05490648142340F27B628A
:101DE00000F03EFD142007B0F0BD00BFFC0E03085C
:101DF000040F0308440F0308F0B514460A468DB0DB
:101E00006F2A0146D4E90065D3E900078DED0A0A7F
:101E1000CDED0B0A8DED081ACDED091A02D1B446AD
:101E20002E466546B8421FD1A84213D1D3E90257C6
:101E300000960695D4E90254034608AE0AA8CDE9F7
:101E40000104CDE903560597652015F09BF90020A4
:101E50000DB0F0BD09490A48132340F29A6200F020
:101E6000FFFC13200DB0F0BD04490648142340F2D6
:101E7000966200F0F5FC14200DB0F0BDFC0E0308D6
:101E8000040F0308440F0308F0B514460A4691B046
:101E90006F2A0146D4E90065D3E900078DED0C0BEC
:101EA0008DED0E1B8DED082B8DED0A3B02D1B44656
:101EB0002E466546B8421FD1A84213D1D3E9025736
:101EC00000960695D4E90254034608AE0CA8CDE965
:101ED0000104CDE903560597652020F0F9FE0020A6
:101EE00011B0F0BD09490A48132340F2B46200F072
:101EF000B7FC132011B0F0BD0449064814234FF479
:101F0000D66200F0ADFC142011B0F0BDFC0E030849
:101F1000040F0308440F0308F0B56F29D3E9004705
:101F2000D2E9006587B002D1B4462E466546BC4270
:101F30001DD1AC4211D1D3E902570096D2E9026318
:101F40000A4601930146CDE90267049523466520C0
:101F500013F006FD002007B0F0BD0A490A4813231C
:101F600040F2CF6200F07CFC132007B0F0BD0549C1
:101F70000648142340F2CB6200F072FC142007B034
:101F8000F0BD00BFFC0E0308040F0308440F030854
:101F9000F0B56F29D3E90047D2E9006587B002D1D7
:101FA000B4462E466546BC421DD1AC4211D1D3E9A0
:101FB00002570096D2E902630A4601930146CDE931
:101FC00002670495234665201DF0FAFF002007B044
:101FD000F0BD0A490A4813234FF4DD6200F040FCCB
:101FE000132007B0F0BD05490648142340F2E4620F
:101FF00000F036FC142007B0F0BD00BFFC0E030853
:10200000040F0308440F03082DE9F04788B06F2937
:10201000109ED3E900ECD2E90087D6E9005405D13F
:10202000BA46F1464746E646D046CC46A54210D1D0
:10203000BD4203D1654501D1C64515D017491848A1
:10204000132340F2047200F00BFC132008B0BDE82B
:10205000F0871249134814234FF4E06200F000FCAB
:10206000142008B0BDE8F087D6E90248CDF800E0BA
:10207000D3E902C70694D2E902642B460A46CDE9A9
:10208000037C0146CDE90146CDF81480652008F0B7
:1020900007F8002008B0BDE8F08700BFFC0E030879
:1020A000040F0308440F03082DE9F04788B06F2997
:1020B000109DD3E900C7D2E900E6D5E9004805D173
:1020C000B246E1467646BC46D6464F46444510D118
:1020D000B44203D1BC4201D1F44515D01749184888
:1020E00013234FF4E46200F0BBFB132008B0BDE8FB
:1020F000F08712491348142340F21C7200F0B0FB21
:10210000142008B0BDE8F087D5E9026ECDF800C014
:10211000D3E902570696D2E902630A4601930146C3
:10212000CDE90375CDF814E02346029665200DF045
:1021300007F9002008B0BDE8F08700BFFC0E0308D7
:10214000040F0308440F03082DE9F0478EB014462E
:10215000169A8DED0C0A6F29D3E900C71D46D4E904
:1021600000E6D2E90038CDED0D0A8DED0A1ACDED6D
:102170000B1A05D1B246E1467646BC46D6464F46D6
:10218000434510D1B34203D1BB4201D1F44515D030
:1021900019491A48132340F23E7200F061FB1320E4
:1021A0000EB0BDE8F08714491548142340F23A7286
:1021B00000F056FB14200EB0BDE8F087D2E9026EA5
:1021C000CDF800C00896D5E90276CDF81CE0D4E938
:1021D00002540DF1280C0A4601460CA80190CDE9E5
:1021E0000467CDE90245CDF818C0652014F032FC33
:1021F00000200EB0BDE8F087FC0E0308040F0308B2
:10220000440F03082DE9F04792B014461A9A6F293B
:10221000D3E900C71D46D4E900E68DED0E0B8DED28
:10222000101B8DED0A2B8DED0C3BD2E9003805D14A
:10223000B246E1467646BC46D6464F46434510D1A7
:10224000B34203D1BB4201D1F44515D019491A4814
:10225000132340F25C7200F003FB132012B0BDE8C0
:10226000F0871449154814234FF4EB6200F0F8FA94
:10227000142012B0BDE8F087D2E9026ECDF800C09C
:102280000896D5E90276CDF81CE0D4E902540DF1A8
:10229000280C0A4601460EA80190CDE90467CDE955
:1022A0000245CDF818C065201FF0CEFD002012B009
:1022B000BDE8F087FC0E0308040F0308440F030871
:1022C0002DE9F0478AB06F29129E8DED080AD3E9F7
:1022D00000ECD2E90087D6E90045CDED090A05D129
:1022E000BA46F1464746E646D046CC46AC4210D107
:1022F000BC4203D1644501D1C64515D018491948DF
:10230000132340F27B7200F0ABFA13200AB0BDE851
:10231000F08713491448142340F2777200F0A0FAB2
:1023200014200AB0BDE8F087D6E90275CDF800E0C8
:10233000D3E902E60797D2E90273069508AD029346
:102340000A46CDE9046E0146B0EE410A23460397E2
:102350000195652012F074FE00200AB0BDE8F087F8
:10236000FC0E0308040F0308440F03082DE9F0478F
:102370008CB06F29149DD3E900C7D2E900E68DED3A
:10238000080B8DED0A1BD5E9004805D1B246E146A0
:102390007646BC46D6464F46444510D1B44203D19A
:1023A000BC4201D1F44515D019491A48132340F213
:1023B000997200F055FA13200CB0BDE8F08714496B
:1023C0001548142340F2957200F04AFA14200CB01C
:1023D000BDE8F087D5E90265B0EE420AF0EE620A88
:1023E000CDF800C0D3E902EC0796D2E90276069553
:1023F00008AD0A46CDE904CE0146CDE90267234681
:10240000019565201CF0C4FC00200CB0BDE8F087ED
:10241000FC0E0308040F0308440F0308F0B589B04D
:10242000DDE90E46D4E90075AF4227D18D28D6E903
:1024300000C50DD08E2801D1BD420BD014491548DE
:10244000132340F2BC7200F00BFA132009B0F0BD68
:10245000BC45F3D1D6E902760295D4E90254CDE920
:10246000003CCDE905671346CDE903450A46014620
:10247000652008F0A7FB002009B0F0BD044906481C
:10248000142340F2B17200F0EBF9142009B0F0BD52
:10249000FC0E0308040F03082C0F0308F0B589B0E5
:1024A000DDE90E46D4E90075AF4227D18D28D6E983
:1024B00000C50DD08E2801D1BD420BD0144915485E
:1024C00013234FF4FB6200F0CBF9132009B0F0BDE9
:1024D000BC45F3D1D6E902760295D4E90254CDE9A0
:1024E000003CCDE905671346CDE903450A460146A0
:1024F00065200DF005FF002009B0F0BD0449064835
:10250000142340F2CD7200F0ABF9142009B0F0BDF5
:10251000FC0E0308040F03082C0F0308F0B58BB062
:10252000DDE91046D4E90075AF428DED080ACDED26
:10253000090A2AD18D28D6E900C50DD08E2801D1EF
:10254000BD420BD016491748132340F2F77200F032
:1025500087F913200BB0F0BDBC45F3D1D6E9027664
:102560000295D4E902E408AD0093CDE9066713466D
:10257000CDE9044E0A46CDF804C001460395652016
:1025800015F0FAF800200BB0F0BD054906481423F9
:1025900040F2EB7200F064F914200BB0F0BD00BF04
:1025A000FC0E0308040F03082C0F0308F0B58DB0D0
:1025B000DDE91246D4E90075AF428DED080B8DEDD3
:1025C0000A1B2AD18D28D6E900C50DD08E2801D14D
:1025D000BD420BD016491748132340F6150200F0F0
:1025E0003FF913200DB0F0BDBC45F3D1D6E902761A
:1025F0000295D4E902E408AD0093CDE906671346DD
:10260000CDE9044E0A46CDF804C001460395652085
:1026100021F012F900200DB0F0BD05490648142341
:1026200040F6090200F01CF914200DB0F0BD00BF07
:10263000FC0E0308040F03082C0F0308F0B589B043
:10264000DDE90E46D4E90075AF4227D18D28D6E9E1
:1026500000C50DD08E2801D1BD420BD014491548BC
:10266000132340F6330200F0FBF8132009B0F0BD4D
:10267000BC45F3D1D6E902760295D4E90254CDE9FE
:10268000003CCDE905671346CDE903450A460146FE
:10269000652009F031F8002009B0F0BD0449064872
:1026A000142340F6280200F0DBF8142009B0F0BD36
:1026B000FC0E0308040F03082C0F0308F0B589B0C3
:1026C000DDE90E46D4E90075AF4227D18D28D6E961
:1026D00000C50DD08E2801D1BD420BD0144915483C
:1026E000132340F64F0200F0BBF8132009B0F0BDF1
:1026F000BC45F3D1D6E902760295D4E90254CDE97E
:10270000003CCDE905671346CDE903450A4601467D
:1027100065200EF059FD002009B0F0BD04490648BF
:10272000142340F6440200F09BF8142009B0F0BDD9
:10273000FC0E0308040F03082C0F0308F0B58BB040
:10274000DDE91046D4E90075AF428DED080ACDED04
:10275000090A2AD18D28D6E900C50DD08E2801D1CD
:10276000BD420BD016491748132340F66E0200F005
:1027700077F813200BB0F0BDBC45F3D1D6E9027653
:102780000295D4E902E408AD0093CDE9066713464B
:10279000CDE9044E0A46CDF804C0014603956520F4
:1027A00016F052F800200BB0F0BD0549064814237E
:1027B00040F6620200F054F814200BB0F0BD00BFE8
:1027C000FC0E0308040F03082C0F0308F0B58DB0AE
:1027D000DDE91246D4E90075AF428DED080B8DEDB1
:1027E0000A1B2AD18D28D6E900C50DD08E2801D12B
:1027F000BD420BD016491748132340F68C0200F057
:102800002FF813200DB0F0BDBC45F3D1D6E9027608
:102810000295D4E902E408AD0093CDE906671346BA
:10282000CDE9044E0A46CDF804C001460395652063
:1028300023F066F900200DB0F0BD054906481423C9
:102840004FF4086200F00CF814200DB0F0BD00BF8A
:10285000FC0E0308040F03082C0F0308704700BF89
:1028600070B50F4C25681DB1AC46BDE8704060479F
:102870000C4D044623460C4800F02CF82B68986851
:102880002DF0A2FA2B680948DB68232201212DF0E4
:10289000D7FB2B68D8682DF097FA2DF0D7F900BF39
:1028A00050060020CC0500205C0F0308640F0308CD
:1028B000024B1A6818601046704700BF500600208F
:1028C000024B034A18681A60704700BF5006002088
:1028D0005D28000830B50E4D2C6883B034B16C68AB
:1028E0005CB1A44603B0BDE830406047094C2468A1
:1028F000E4682C606C68002CF3D1CDE9000313462A
:1029000028680A4604492DF01DFB03B030BD00BF06
:1029100054060020CC050020880F0308024B5A689B
:1029200058601046704700BF54060020054A1368DF
:1029300013B1106018467047034B10601B68DB68CA
:102940001846704754060020CC050020F8B507460D
:1029500018200E462DF0A6FB0446B8B106FB07F082
:1029600004F080FE054648B14368E3600123C4E9F2
:102970000076C4E90403A6602046F8BD074908486C
:10298000082328222C46FFF76BFFF5E7034905488B
:1029900008231E22FFF764FFEEE700BF9C0F030829
:1029A000D80F0308AC0F0308F8B504460E46FFF72E
:1029B000CDFF054688B106FB04F63401C068224607
:1029C00000212DF07FFB730007D0EB680026002765
:1029D000E218E3E802679342FBD12846F8BD00BF46
:1029E0002DE9F843DDF82090994525D390460268FB
:1029F0001E4608FB09139A4205460F4612D31820BB
:102A00002DF050FB0446F8B16968C0F8008001EB76
:102A10000711C0E90169C0E903150023436120469D
:102A2000BDE8F8830C490D4804235B220024FFF71E
:102A300017FF2046BDE8F8830749094804235622BA
:102A4000FFF70EFF0024EAE7034906480823632244
:102A5000FFF706FFE3E700BF9C0F030828100308F9
:102A6000FC0F0308AC0F03082DE9F8431F46036869
:102A7000DDF820900546C819984226D86B68904624
:102A80004A449A4217D818200E462DF00BFB0446F4
:102A900018B30760AB68C4F80490D5E9031006FBCF
:102AA000038601EBC6060022C4E90236C4E904022B
:102AB0002046BDE8F8830C490C48042382220024F8
:102AC000FFF7CEFE2046BDE8F883074908480423F7
:102AD0007D22FFF7C5FE0024EAE7034905480823E5
:102AE0008A22FFF7BDFEE3E79C0F0308841003086A
:102AF00054100308AC0F030880B1436910B50446B5
:102B000023B92046BDE810402DF0D4BA006904F086
:102B1000EBFD2046BDE810402DF0CCBA704700BF59
:102B20002DE9F0430768051D95E8205027B30026DE
:102B3000DFF84890002000214FF000083446BDB176
:102B40000EEB0612002308E001339D42C2E90001AA
:102B5000C2E9020102F110020AD0A342F4D101330A
:102B60009D42C2E90089C2E9020102F11002F4D1DA
:102B70000134A7426644E2D1BDE8F0830000F03F93
:102B8000D0F800C0C268F0B4D0E90157BCF1000F22
:102B900015D0C5EB05763F0102EB05123601002486
:102BA00000200021931935B1C3E90001C3E90201F6
:102BB00010339342F8D10134A4453A44F2D1F0BC29
:102BC000704700BF2DE9F043D0F80090C66885B08B
:102BD000D0E901C38DED000B8DED021BB9F1000FA3
:102BE00019D0CCEB0C7E4FEA031806EB0C164FEA1B
:102BF0000E1E00276D4606EB0E04BCF1000F06D03A
:102C000095E80F0084E80F001034B442F8D1013782
:102C1000B9454644EFD105B0BDE8F083F8B50746A5
:102C200018200E462DF03EFA0446B8B106FB07F018
:102C300004F066FD054648B14368E3600123C4E93A
:102C40000076C4E90403A6602046F8BD0749084899
:102C5000082328222C46FFF703FEF5E70349054821
:102C600008231E22FFF7FCFDEEE700BF9C0F0308C0
:102C7000D80F0308AC0F0308F8B504460E46FFF75B
:102C8000CDFF054688B106FB04F63401C068224634
:102C900000212DF017FA730007D0EB6800260027FB
:102CA000E218E3E802679342FBD12846F8BD00BF73
:102CB0002DE9F843DDF82090994525D39046026828
:102CC0001E4608FB09139A4205460F4612D31820E8
:102CD0002DF0E8F90446F8B16968C0F8008001EB0E
:102CE0000711C0E90169C0E90315002343612046CB
:102CF000BDE8F8830C490D4804235B220024FFF74C
:102D0000AFFD2046BDE8F883074909480423562251
:102D1000FFF7A6FD0024EAE70349064808236322DB
:102D2000FFF79EFDE3E700BF9C0F03082810030890
:102D3000FC0F0308AC0F03082DE9F8431F46036896
:102D4000DDF820900546C819984226D86B68904651
:102D50004A449A4217D818200E462DF0A3F904468B
:102D600018B30760AB68C4F80490D5E9031006FBFC
:102D7000038601EBC6060022C4E90236C4E9040258
:102D80002046BDE8F8830C490C4804238222002425
:102D9000FFF766FD2046BDE8F8830749084804238D
:102DA0007D22FFF75DFD0024EAE70349054808237B
:102DB0008A22FFF755FDE3E79C0F03088410030800
:102DC00054100308AC0F030880B1436910B50446E2
:102DD00023B92046BDE810402DF06CB9006904F01D
:102DE000D1FC2046BDE810402DF064B9704700BF0B
:102DF0002DE9F0430768051D95E8205027B300260C
:102E0000DFF84890002000214FF000083446BDB1A3
:102E10000EEB0612002308E001339D42C2E90001D7
:102E2000C2E9020102F110020AD0A342F4D1013337
:102E30009D42C2E90089C2E9020102F11002F4D107
:102E40000134A7426644E2D1BDE8F0830000F03FC0
:102E5000D0F800C0C268F0B4D0E90157BCF1000F4F
:102E600015D0C5EB05763F0102EB051236010024B3
:102E700000200021931935B1C3E90001C3E9020123
:102E800010339342F8D10134A4453A44F2D1F0BC56
:102E9000704700BF2DE9F043D0F80090C66885B0B8
:102EA000D0E901C38DED000B8DED021BB9F1000FD0
:102EB00019D0CCEB0C7E4FEA031806EB0C164FEA48
:102EC0000E1E00276D4606EB0E04BCF1000F06D067
:102ED00095E80F0084E80F001034B442F8D10137B0
:102EE000B9454644EFD105B0BDE8F083F8B50746D3
:102EF00018200E462DF0D6F80446B8B106FB07F0B0
:102F000004F04CFC054648B14368E3600123C4E982
:102F10000076C4E90403A6602046F8BD07490848C6
:102F2000082328222C46FFF79BFCF5E703490548B8
:102F300008231E22FFF794FCEEE700BF9C0F030856
:102F4000D80F0308AC0F030870B504460E46FFF710
:102F5000CDFF054680B106FB04F6F400C0682246AA
:102F600000212DF0AFF8730006D0EB680021E218C5
:102F700043F8041B9342FBD1284670BD2DE9F8436A
:102F8000DDF82090994525D3904602681E4608FB3F
:102F900009139A4205460F4612D318202DF082F8E5
:102FA0000446F8B16968C0F8008001EBC701C0E9C8
:102FB0000169C0E90315002343612046BDE8F88399
:102FC0000C490D4804235B220024FFF749FC2046EE
:102FD000BDE8F8830749094804235622FFF740FC5F
:102FE0000024EAE70349064808236322FFF738FC78
:102FF000E3E700BF9C0F030828100308FC0F030839
:10300000AC0F03082DE9F8431F460368DDF8209054
:103010000546C819984226D86B6890464A449A4299
:1030200017D818200E462DF03DF8044618B3076057
:10303000AB68C4F80490D5E9031006FB038601EBE6
:1030400086060022C4E90236C4E904022046BDE82F
:10305000F8830C490C48042382220024FFF700FC6B
:103060002046BDE8F8830749084804237D22FFF77E
:10307000F7FB0024EAE70349054808238A22FFF703
:10308000EFFBE3E79C0F03088410030854100308C8
:10309000AC0F030880B1436910B5044623B920463C
:1030A000BDE810402DF006B8006904F0B9FB2046D9
:1030B000BDE810402CF0FEBF704700BFF0B50768B8
:1030C000041D94E81050BFB10025002128464FF0A0
:1030D0007E566CB10EEBC5020023834203F101035F
:1030E0000CBF166011609C42516002F10802F4D1DD
:1030F000013087426544ECD1F0BD00BFF0B40768F1
:10310000C168D0E9014697B1C4EB4475F60001EB04
:10311000C401ED00002000224B1924B11A605A604E
:1031200008338B42FAD1013087423144F4D1F0BCEC
:10313000704700BFF0B5D0F800E0C56883B0D0E9B3
:1031400001638DED000ACDED010ABEF1000F12D032
:103150004FEAC30C00276C46002346B194E80300F5
:1031600005EBC30201339E4282E80300F6D101372A
:10317000BE456544F0D103B0F0BD00BFF8B50746C9
:1031800018200E462CF08EFF0446B8B106FB07F05F
:1031900004F052FB054648B14368E3600123C4E9EB
:1031A0000076C4E90403A6602046F8BD0749084834
:1031B000082328222C46FFF753FBF5E7034905486F
:1031C00008231E22FFF74CFBEEE700BF9C0F03080D
:1031D000D80F0308AC0F0308F8B504460E46FFF7F6
:1031E000CDFF054680B106FB04F6F400C068224618
:1031F00000212CF067FF3EB1EB6800260027E218A3
:10320000E3E802679342FBD12846F8BD2DE9F84375
:10321000DDF82090994525D3904602681E4608FBAC
:1032200009139A4205460F4612D318202CF03AFF94
:103230000446F8B16968C0F8008001EBC701C0E935
:103240000169C0E90315002343612046BDE8F88306
:103250000C490D4804235B220024FFF701FB2046A4
:10326000BDE8F8830749094804235622FFF7F8FA16
:103270000024EAE70349064808236322FFF7F0FA2F
:10328000E3E700BF9C0F030828100308FC0F0308A6
:10329000AC0F03082DE9F8431F460368DDF82090C2
:1032A0000546C819984226D86B6890464A449A4207
:1032B00017D818200E462CF0F5FE044618B3076008
:1032C000AB68C4F80490D5E9031006FB038601EB54
:1032D000C6060022C4E90236C4E904022046BDE85D
:1032E000F8830C490C48042382220024FFF7B8FA23
:1032F0002046BDE8F8830749084804237D22FFF7EC
:10330000AFFA0024EAE70349054808238A22FFF7B9
:10331000A7FAE3E79C0F030884100308541003087E
:10332000AC0F030880B1436910B5044623B92046A9
:10333000BDE810402CF0BEBE006904F0BFFA204684
:10334000BDE810402CF0B6BE704700BF2DE9F04F2D
:10335000D0F800E0051D95E8200CBEF1000F1CD050
:103360004FF0000CDFF838904FF0000800260027DF
:10337000644675B10BEBCC0200239C4203F10103C0
:1033800019BF30463946404649469D42E2E80201AF
:10339000F3D10134A645D444EBD1BDE8F08F00BF92
:1033A0000000F03FD0F800C0C268F0B4D0E9015787
:1033B000BCF1000F12D0C5EB4576FF0002EBC50251
:1033C000F60000240020002193191DB1E3E802015A
:1033D0009342FBD10134A4453A44F5D1F0BC704787
:1033E00070B40668C268D0E9014586B1C4EB447088
:1033F000ED0002EBC402C000002113181CB1A3ECC5
:10340000020B9342FBD101318E422A44F5D170BCAC
:10341000704700BFF8B5074618200E462CF042FE54
:103420000446B8B106FB07F004F054FA054648B16B
:103430004368E3600123C4E90076C4E90403A6609D
:103440002046F8BD07490848082328222C46FFF7E4
:1034500007FAF5E70349054808231E22FFF700FA9B
:10346000EEE700BF9C0F0308D80F0308AC0F03085A
:10347000F8B504460E46FFF7CDFF054680B106FBC2
:1034800004F6F400C068224600212CF01BFE3EB179
:10349000EB6800260027E218E3E802679342FBD1BD
:1034A0002846F8BD2DE9F843DDF82090994525D34D
:1034B000904602681E4608FB09139A4205460F46CD
:1034C00012D318202CF0EEFD0446F8B16968C0F85C
:1034D000008001EBC701C0E90169C0E903150023C1
:1034E00043612046BDE8F8830C490D4804235B2264
:1034F0000024FFF7B5F92046BDE8F88307490948DD
:1035000004235622FFF7ACF90024EAE703490648F2
:1035100008236322FFF7A4F9E3E700BF9C0F030829
:1035200028100308FC0F0308AC0F03082DE9F8432B
:103530001F460368DDF820900546C819984226D832
:103540006B6890464A449A4217D818200E462CF0D1
:10355000A9FD044618B30760AB68C4F80490D5E928
:10356000031006FB038601EBC6060022C4E90236FF
:10357000C4E904022046BDE8F8830C490C48042342
:1035800082220024FFF76CF92046BDE8F883074942
:10359000084804237D22FFF763F90024EAE7034982
:1035A000054808238A22FFF75BF9E3E79C0F03082D
:1035B0008410030854100308AC0F030880B143695A
:1035C00010B5044623B92046BDE810402CF072BD6A
:1035D000006904F0C1F92046BDE810402CF06ABD36
:1035E000704700BF2DE9F04FD0F800E0051D95E8C9
:1035F000200CBEF1000F1CD04FF0000CDFF838900B
:103600004FF0000800260027644675B10BEBCC0292
:1036100000239C4203F1010319BF3046394640465E
:1036200049469D42E2E80201F3D10134A645D44463
:10363000EBD1BDE8F08F00BF0000F03FD0F800C034
:10364000C268F0B4D0E90157BCF1000F12D0C5EB4D
:103650004576FF0002EBC502F600002400200021A1
:1036600093191DB1E3E802019342FBD10134A44553
:103670003A44F5D1F0BC704770B40668C268D0E92E
:10368000014586B1C4EB4470ED0002EBC402C000FA
:10369000002113181CB1A3EC020B9342FBD10131A2
:1036A0008E422A44F5D170BC704700BFF8B507467A
:1036B00018200E462CF0F6FC0446B8B106FB07F0C5
:1036C00004F056F9054648B14368E3600123C4E9B4
:1036D0000076C4E90403A6602046F8BD07490848FF
:1036E000082328222C46FFF7BBF8F5E703490548D5
:1036F00008231E22FFF7B4F8EEE700BF9C0F030873
:10370000D80F0308AC0F030870B504460E46FFF748
:10371000CDFF054678B106FB04F6B400C06822462A
:1037200000212CF0CFFC36B1EB680021E21843F801
:10373000041B9342FBD1284670BD00BF2DE9F8431E
:10374000DDF82090994525D3904602681E4608FB77
:1037500009139A4205460F4612D318202CF0A2FCFA
:103760000446F8B16968C0F8008001EB8701C0E940
:103770000169C0E90315002343612046BDE8F883D1
:103780000C490D4804235B220024FFF769F820460A
:10379000BDE8F8830749094804235622FFF760F87B
:1037A0000024EAE70349064808236322FFF758F894
:1037B000E3E700BF9C0F030828100308FC0F030871
:1037C000AC0F03082DE9F8431F460368DDF820908D
:1037D0000546C819984226D86B6890464A449A42D2
:1037E00017D818200E462CF05DFC044618B307606D
:1037F000AB68C4F80490D5E9031006FB038601EB1F
:1038000086060022C4E90236C4E904022046BDE867
:10381000F8830C490C48042382220024FFF720F887
:103820002046BDE8F8830749084804237D22FFF7B6
:1038300017F80024EAE70349054808238A22FFF71E
:103840000FF8E3E79C0F03088410030854100308E3
:10385000AC0F030880B1436910B5044623B9204674
:10386000BDE810402CF026BC006904F0C1F82046E9
:10387000BDE810402CF01EBC704700BFF0B40568D6
:10388000041DD0CCCDB10020DFED0D6A0146B7EEAE
:10389000007A74B107EB80020023994203F101031F
:1038A00014BFF0EE667AF0EE477A9C42E2EC017AC1
:1038B000F3D101318D423044EBD1F0BC704700BFF1
:1038C00000000000F0B40768C268D0E901468FB17B
:1038D000C4EB8475B60002EB8402AD000020002129
:1038E00053191CB143F8041B9342FBD101308742AA
:1038F0003244F5D1F0BC704770B40668C268D0E9B4
:10390000014586B1C4EB8470AD0002EB84028000F7
:10391000002113181CB1A3EC010A9342FBD1013121
:103920008E422A44F5D170BC704700BFF8B50746F7
:1039300018200E462CF0B6FB0446B8B106FB07F083
:1039400004F062F8054648B14368E3600123C4E926
:103950000076C4E90403A6602046F8BD074908487C
:10396000082328222C46FEF77BFFF5E7034905488C
:1039700008231E22FEF774FFEEE700BF9C0F03082A
:10398000D80F0308AC0F030870B504460E46FFF7C6
:10399000CDFF054688B106FB04F6B400C068224698
:1039A00000212CF08FFB46B1EB68221F1A44002146
:1039B000043B43F8041F9342FBD1284670BD00BF6F
:1039C0002DE9F843DDF82090994525D3904602680B
:1039D0001E4608FB09139A4205460F4612D31820CB
:1039E0002CF060FB0446F8B16968C0F8008001EB78
:1039F0008701C0E90169C0E903150023436120463E
:103A0000BDE8F8830C490D4804235B220024FEF72F
:103A100027FF2046BDE8F8830749094804235622BA
:103A2000FEF71EFF0024EAE7034906480823632245
:103A3000FEF716FFE3E700BF9C0F030828100308FA
:103A4000FC0F0308AC0F03082DE9F8431F46036879
:103A5000DDF820900546C819984226D86B68904634
:103A60004A449A4217D818200E462CF01BFB0446F5
:103A700018B30760AB68C4F80490D5E9031006FBDF
:103A8000038601EB86060022C4E90236C4E904027B
:103A90002046BDE8F8830C490C4804238222002408
:103AA000FEF7DEFE2046BDE8F883074908480423F8
:103AB0007D22FEF7D5FE0024EAE7034905480823E6
:103AC0008A22FEF7CDFEE3E79C0F0308841003086B
:103AD00054100308AC0F030880B1436910B50446C5
:103AE00023B92046BDE810402CF0E4BA006903F089
:103AF000CDFF2046BDE810402CF0DCBA704700BF77
:103B0000F0B40668C768D0E9014C9EB10025043FB7
:103B100028465CB107EB85020023C11AB1FA81F196
:103B2000013349099C4242F8041FF6D10130864214
:103B30006544EED1F0BC7047F0B40768C268D0E9C4
:103B400001468FB1C4EB84750020B60002EB8402FD
:103B5000AD00014653191CB143F8041B9342FBD13D
:103B6000013087423244F5D1F0BC7047F0B40768A9
:103B7000C268D0E9014687B1C4EB8475B60002EB98
:103B80008402AD00002053191CB143F8041B93427A
:103B9000FBD1013087423244F5D1F0BC704700BF01
:103BA000F8B5074618200E462CF07CFA0446B8B14A
:103BB00006FB07F003F076FF054648B14368E36073
:103BC0000123C4E90076C4E90403A6602046F8BDD9
:103BD00007490848082328222C46FEF741FEF5E74E
:103BE0000349054808231E22FEF73AFEEEE700BF10
:103BF0009C0F0308D80F0308AC0F030870B50446E8
:103C00000E46FFF7CDFF054688B106FB04F6B4006B
:103C1000C068224600212CF055FA46B1EB68221FFD
:103C20001A440021043B43F8041F9342FBD1284669
:103C300070BD00BF2DE9F843DDF82090994525D3EC
:103C4000904602681E4608FB09139A4205460F4635
:103C500012D318202CF026FA0446F8B16968C0F88F
:103C6000008001EB8701C0E90169C0E90315002369
:103C700043612046BDE8F8830C490D4804235B22CC
:103C80000024FEF7EDFD2046BDE8F883074909480A
:103C900004235622FEF7E4FD0024EAE70349064820
:103CA00008236322FEF7DCFDE3E700BF9C0F030857
:103CB00028100308FC0F0308AC0F03082DE9F84394
:103CC0001F460368DDF820900546C819984226D89B
:103CD0006B6890464A449A4217D818200E462CF03A
:103CE000E1F9044618B30760AB68C4F80490D5E95D
:103CF000031006FB038601EB86060022C4E90236A8
:103D0000C4E904022046BDE8F8830C490C480423AA
:103D100082220024FEF7A4FD2046BDE8F88307496F
:103D2000084804237D22FEF79BFD0024EAE70349AF
:103D3000054808238A22FEF793FDE3E79C0F03085A
:103D40008410030854100308AC0F030880B14369C2
:103D500010B5044623B92046BDE810402CF0AAB99E
:103D6000006903F0E1FE2046BDE810402CF0A2B946
:103D7000704700BFF0B40668C768D0E9014C9EB137
:103D80000025043F28465CB107EB85020023C11AD9
:103D9000B1FA81F1013349099C4242F8041FF6D17E
:103DA000013086426544EED1F0BC7047F0B407683C
:103DB000C268D0E901468FB1C4EB84750020B6001B
:103DC00002EB8402AD00014653191CB143F8041BF9
:103DD0009342FBD1013087423244F5D1F0BC7047A9
:103DE000F0B40768C268D0E9014687B1C4EB8475B6
:103DF000B60002EB8402AD00002053191CB143F859
:103E0000041B9342FBD1013087423244F5D1F0BC10
:103E1000704700BFF8B5074618200E462CF042F94F
:103E20000446B8B106FB07F003F08AFE054648B128
:103E30004368E3600123C4E90076C4E90403A66093
:103E40002046F8BD07490848082328222C46FEF7DB
:103E500007FDF5E70349054808231E22FEF700FD8C
:103E6000EEE700BF9C0F0308D80F0308AC0F030850
:103E700070B504460E46FFF7CDFF054688B106FB38
:103E800004F6B400C068224600212CF01BF946B1AC
:103E9000EB68221F1A440021043B43F8041F93429D
:103EA000FBD1284670BD00BF2DE9F843DDF8209016
:103EB000994525D3904602681E4608FB09139A428D
:103EC00005460F4612D318202CF0ECF80446F8B142
:103ED0006968C0F8008001EB8701C0E90169C0E9A9
:103EE0000315002343612046BDE8F8830C490D48C3
:103EF00004235B220024FEF7B3FC2046BDE8F883D0
:103F00000749094804235622FEF7AAFC0024EAE7E1
:103F10000349064808236322FEF7A2FCE3E700BF3B
:103F20009C0F030828100308FC0F0308AC0F0308BC
:103F30002DE9F8431F460368DDF820900546C819AF
:103F4000984226D86B6890464A449A4217D818205F
:103F50000E462CF0A7F8044618B30760AB68C4F807
:103F60000490D5E9031006FB038601EB86060022C8
:103F7000C4E90236C4E904022046BDE8F8830C49CE
:103F80000C48042382220024FEF76AFC2046BDE888
:103F9000F8830749084804237D22FEF761FC0024CA
:103FA000EAE70349054808238A22FEF759FCE3E7BC
:103FB0009C0F03088410030854100308AC0F030877
:103FC00080B1436910B5044623B92046BDE81040CE
:103FD0002CF070B8006903F0F5FD2046BDE81040F4
:103FE0002CF068B8704700BFF0B40668C768D0E925
:103FF000014C9EB10025043F28465CB107EB8502C9
:104000000023C11AB1FA81F1013349099C4242F8F7
:10401000041FF6D1013086426544EED1F0BC7047F2
:10402000F0B40768C268D0E901468FB1C4EB84756B
:104030000020B60002EB8402AD00014653191CB10A
:1040400043F8041B9342FBD1013087423244F5D13F
:10405000F0BC7047F0B40768C268D0E9014687B188
:10406000C4EB8475B60002EB8402AD000020531946
:104070001CB143F8041B9342FBD101308742324408
:10408000F5D1F0BC704700BFF8B5074618200E46C2
:104090002CF008F80446B8B106FB07F003F09EFDCB
:1040A000054648B14368E3600123C4E90076C4E9EA
:1040B0000403A6602046F8BD0749084808232822C3
:1040C0002C46FEF7CDFBF5E70349054808231E22E1
:1040D000FEF7C6FBEEE700BF9C0F0308D80F0308EE
:1040E000AC0F030870B504460E46FFF7CDFF05463A
:1040F00088B106FB04F6B400C068224600212BF00C
:10410000E1FF46B1EB68221F1A440021043B43F84B
:10411000041F9342FBD1284670BD00BF2DE9F84330
:10412000DDF82090994525D3904602681E4608FB8D
:1041300009139A4205460F4612D318202BF0B2FFFE
:104140000446F8B16968C0F8008001EB8701C0E956
:104150000169C0E90315002343612046BDE8F883E7
:104160000C490D4804235B220024FEF779FB20460E
:10417000BDE8F8830749094804235622FEF770FB7F
:104180000024EAE70349064808236322FEF768FB98
:10419000E3E700BF9C0F030828100308FC0F030887
:1041A000AC0F03082DE9F8431F460368DDF82090A3
:1041B0000546C819984226D86B6890464A449A42E8
:1041C00017D818200E462BF06DFF044618B3076071
:1041D000AB68C4F80490D5E9031006FB038601EB35
:1041E00086060022C4E90236C4E904022046BDE87E
:1041F000F8830C490C48042382220024FEF730FB8C
:104200002046BDE8F8830749084804237D22FEF7CD
:1042100027FB0024EAE70349054808238A22FEF722
:104220001FFBE3E79C0F03088410030854100308E6
:10423000AC0F030880B1436910B5044623B920468A
:10424000BDE810402BF036BF006903F009FD2046A1
:10425000BDE810402BF02EBF704700BFF0B40668D9
:10426000C768D0E9014C9EB10025043F28465CB1E7
:1042700007EB85020023C11AB1FA81F10133490924
:104280009C4242F8041FF6D1013086426544EED1CB
:10429000F0BC7047F0B40768C268D0E901468FB13E
:1042A000C4EB84750020B60002EB8402AD00014629
:1042B00053191CB143F8041B9342FBD101308742D0
:1042C0003244F5D1F0BC7047F0B40768C268D0E959
:1042D000014687B1C4EB8475B60002EB8402AD00E1
:1042E000002053191CB143F8041B9342FBD1013049
:1042F00087423244F5D1F0BC704700BFF8B507469D
:1043000018200E462BF0CEFE0446B8B106FB07F08F
:1043100003F0B2FC054648B14368E3600123C4E9F9
:104320000076C4E90403A6602046F8BD07490848A2
:10433000082328222C46FEF793FAF5E7034905489F
:1043400008231E22FEF78CFAEEE700BF9C0F03083D
:10435000D80F0308AC0F030870B504460E46FFF7EC
:10436000CDFF054688B106FB04F67400C0682246FE
:1043700000212BF0A7FE46B1EB68A21E1A440021D3
:10438000023B23F8021F9342FBD1284670BD00BFB9
:104390002DE9F843DDF82090994525D39046026831
:1043A0001E4608FB09139A4205460F4612D31820F1
:1043B0002BF078FE0446F8B16968C0F8008001EB84
:1043C0004701C0E90169C0E90315002343612046A4
:1043D000BDE8F8830C490D4804235B220024FEF756
:1043E0003FFA2046BDE8F8830749094804235622CE
:1043F000FEF736FA0024EAE7034906480823632259
:10440000FEF72EFAE3E700BF9C0F0308281003080D
:10441000FC0F0308AC0F03082DE9F8431F4603689F
:10442000DDF820900546C819984226D86B6890465A
:104430004A449A4217D818200E462BF033FE044601
:1044400018B30760AB68C4F80490D5E9031006FB05
:10445000038601EB46060022C4E90236C4E90402E1
:104460002046BDE8F8830C490C480423822200242E
:10447000FEF7F6F92046BDE8F8830749084804230B
:104480007D22FEF7EDF90024EAE7034905480823F9
:104490008A22FEF7E5F9E3E79C0F0308841003087E
:1044A00054100308AC0F030880B1436910B50446EB
:1044B00023B92046BDE810402BF0FCBD006903F095
:1044C0001DFC2046BDE810402BF0F4BD704700BF36
:1044D000F0B40668C768D0E9014C9EB10025023FE0
:1044E00028465CB107EB45020023C11AB1FA81F1FD
:1044F000013349099C4222F8021FF6D1013086425D
:104500006544EED1F0BC7047F0B40768C268D0E9EA
:1045100001468FB1C4EBC4750020760002EB440263
:104520006D00014653191CB123F8021B9342FBD1C5
:10453000013087423244F5D1F0BC7047F0B40768CF
:10454000C268D0E9014687B1C4EBC475760002EBBE
:1045500044026D00002053191CB123F8021B934242
:10456000FBD1013087423244F5D1F0BC704700BF27
:10457000F8B5074618200E462BF094FD0446B8B156
:1045800006FB07F003F0C6FB054648B14368E3604D
:104590000123C4E90076C4E90403A6602046F8BDFF
:1045A00007490848082328222C46FEF759F9F5E761
:1045B0000349054808231E22FEF752F9EEE700BF23
:1045C0009C0F0308D80F0308AC0F030870B504460E
:1045D0000E46FFF7CDFF054688B106FB04F67400D2
:1045E000C068224600212BF06DFD46B1EB68A21E8B
:1045F0001A440021023B23F8021F9342FBD12846B4
:1046000070BD00BF2DE9F843DDF82090994525D312
:10461000904602681E4608FB09139A4205460F465B
:1046200012D318202BF03EFD0446F8B16968C0F89B
:10463000008001EB4701C0E90169C0E903150023CF
:1046400043612046BDE8F8830C490D4804235B22F2
:104650000024FEF705F92046BDE8F883074909481C
:1046600004235622FEF7FCF80024EAE70349064833
:1046700008236322FEF7F4F8E3E700BF9C0F03086A
:1046800028100308FC0F0308AC0F03082DE9F843BA
:104690001F460368DDF820900546C819984226D8C1
:1046A0006B6890464A449A4217D818200E462BF061
:1046B000F9FC044618B30760AB68C4F80490D5E968
:1046C000031006FB038601EB46060022C4E902360E
:1046D000C4E904022046BDE8F8830C490C480423D1
:1046E00082220024FEF7BCF82046BDE8F883074983
:1046F000084804237D22FEF7B3F80024EAE70349C3
:10470000054808238A22FEF7ABF8E3E79C0F03086D
:104710008410030854100308AC0F030880B14369E8
:1047200010B5044623B92046BDE810402BF0C2BCAA
:10473000006903F031FB2046BDE810402BF0BABC05
:10474000704700BFF0B40668C768D0E9014C9EB15D
:104750000025023F28465CB107EB45020023C11A41
:10476000B1FA81F1013349099C4222F8021FF6D1C6
:10477000013086426544EED1F0BC7047F0B4076862
:10478000C268D0E901468FB1C4EBC4750020760041
:1047900002EB44026D00014653191CB123F8021BC1
:1047A0009342FBD1013087423244F5D1F0BC7047CF
:1047B000F0B40768C268D0E9014687B1C4EBC4759C
:1047C000760002EB44026D00002053191CB123F85F
:1047D000021B9342FBD1013087423244F5D1F0BC39
:1047E000704700BFF8B5074618200E462BF05AFC5C
:1047F0000446B8B106FB07F003F0DAFA054648B103
:104800004368E3600123C4E90076C4E90403A660B9
:104810002046F8BD07490848082328222C46FEF701
:104820001FF8F5E70349054808231E22FEF718F88C
:10483000EEE700BF9C0F0308D80F0308AC0F030876
:1048400070B506460C46FFF7CDFF054670B104FB78
:1048500006F4C068224600212BF034FC34B100235A
:104860001A46E968CA5401339C42FAD1284670BD01
:104870002DE9F843DDF82090994524D3904602684D
:104880001E4608FB09139A4205460F4611D318200D
:104890002BF008FC0446F0B16968C0F80080394488
:1048A000C0E90169C0E90315002343612046BDE862
:1048B000F8830C490C4804235B220024FDF7D0FF49
:1048C0002046BDE8F8830749084804235622FDF72F
:1048D000C7FF0024EAE70349054808236322FDF7E0
:1048E000BFFFE3E79C0F030828100308FC0F030831
:1048F000AC0F03082DE9F8431F460368DDF820904C
:104900000546C819984225D86B6890464A449A4291
:1049100016D818200E462BF0C5FB044610B30760CE
:10492000AB68C4F80490D5E9031006FB03860E4477
:104930000022C4E90236C4E904022046BDE8F88337
:104940000C490D48042382220024FDF789FF2046EC
:10495000BDE8F8830749094804237D22FDF780FF5D
:104960000024EAE70349064808238A22FDF778FF76
:10497000E3E700BF9C0F03088410030854100308EA
:10498000AC0F030880B1436910B5044623B9204633
:10499000BDE810402BF08EBB006903F049FA2046B9
:1049A000BDE810402BF086BB704700BFF0B507682C
:1049B000D0F80CE0D0E901C5D7B100263146CEF1E0
:1049C00000040EEB0C000EEB0603BCF1000F08D048
:1049D0001A19521AB2FA82F2520903F8012B8342D1
:1049E000F6D101318F42A4EB05042E442844EAD1CC
:1049F000F0BD00BFF0B40668D0F80CC0D0E9017576
:104A000086B10020044601460CEB07020CEB0003C4
:104A10001FB103F8011B9342FBD10134A642284485
:104A20002A44F3D1F0BC7047F0B40668D0F80CC04B
:104A3000D0E901757EB1002420460CEB07020CEB97
:104A400004031FB103F8011B9342FBD101308642DE
:104A50002C442A44F3D1F0BC704700BFF8B5074698
:104A600018200E462BF01EFB0446B8B106FB07F0DB
:104A700003F0EAF9054648B14368E3600123C4E95D
:104A80000076C4E90403A6602046F8BD074908483B
:104A9000082328222C46FDF7E3FEF5E703490548E5
:104AA00008231E22FDF7DCFEEEE700BF9C0F030883
:104AB000D80F0308AC0F030870B506460C46FFF785
:104AC000CDFF054670B104FB06F4C0682246002104
:104AD0002BF0F8FA34B100231A46E968CA540133BE
:104AE0009C42FAD1284670BD2DE9F843DDF82090AC
:104AF000994524D3904602681E4608FB09139A4242
:104B000005460F4611D318202BF0CCFA0446F0B11D
:104B10006968C0F800803944C0E90169C0E903153B
:104B2000002343612046BDE8F8830C490C48042368
:104B30005B220024FDF794FE2046BDE8F883074978
:104B4000084804235622FDF78BFE0024EAE70349B8
:104B5000054808236322FDF783FEE3E79C0F030863
:104B600028100308FC0F0308AC0F03082DE9F843D5
:104B70001F460368DDF820900546C819984225D8DD
:104B80006B6890464A449A4216D818200E462BF07D
:104B900089FA044610B30760AB68C4F80490D5E9FD
:104BA000031006FB03860E440022C4E90236C4E962
:104BB00004022046BDE8F8830C490D4804238222F4
:104BC0000024FDF74DFE2046BDE8F883074909485B
:104BD00004237D22FDF744FE0024EAE7034906484A
:104BE00008238A22FDF73CFEE3E700BF9C0F030881
:104BF0008410030854100308AC0F030880B1436904
:104C000010B5044623B92046BDE810402BF052BA37
:104C1000006903F059F92046BDE810402BF04ABA6C
:104C2000704700BFF0B50768D0F80CE0D0E901C5C7
:104C3000D7B100263146CEF100040EEB0C000EEB8E
:104C40000603BCF1000F08D01A19521AB2FA82F208
:104C5000520903F8012B8342F6D101318F42A4EBB4
:104C600005042E442844EAD1F0BD00BFF0B4066824
:104C7000D0F80CC0D0E9017586B100200446014689
:104C80000CEB07020CEB00031FB103F8011B93426E
:104C9000FBD10134A64228442A44F3D1F0BC70472A
:104CA000F0B40668D0F80CC0D0E901757EB10024DC
:104CB00020460CEB07020CEB04031FB103F8011BA9
:104CC0009342FBD1013086422C442A44F3D1F0BCFC
:104CD000704700BF30B40025C0E90455C0E9002387
:104CE00030BCC0E90231704738B5049DAB42044680
:104CF00008D80020C4E90400C4E90023C4E9025133
:104D0000204638BD0749084804233322FDF7A8FD93
:104D10000023C4E90033C4E90233C4E90433204664
:104D200038BD00BFB4100308C410030838B54D687F
:104D3000012D04460FD1086803FB02F5854219D8FE
:104D4000D1E9020122600022C4E90301C4E9013370
:104D50006261204638BD0A490A4804234F22FDF704
:104D60007FFD0023C4E90033C4E90233C4E90433FE
:104D7000204638BD0249044804235422EFE700BF0F
:104D8000B4100308EC1003080C11030870B54D684B
:104D9000049E012D044611D1B34223D8086802FBBA
:104DA00006F5854219D8D1E9020122600022C4E942
:104DB0000301C4E901366261204670BD0C490D480B
:104DC00004237222FDF74CFD0023C4E90033C4E93B
:104DD0000233C4E90433204670BD05490648042364
:104DE0007C22EFE70249054804237722EAE700BF67
:104DF000B4100308EC1003080C110308C4100308D6
:104E000030B40025C0E90455C0E9002330BCC0E936
:104E10000231704738B5049DAB42044608D80020E3
:104E2000C4E90400C4E90023C4E90251204638BDA6
:104E30000749084804233322FDF712FD0023C4E983
:104E40000033C4E90233C4E90433204638BD00BF4F
:104E5000B4100308C410030838B54D68012D04468A
:104E60000FD1086803FB02F5854219D8D1E9020188
:104E700022600022C4E90301C4E9013362612046D3
:104E800038BD0A490A4804234F22FDF7E9FC0023F4
:104E9000C4E90033C4E90233C4E90433204638BD11
:104EA0000249044804235422EFE700BFB41003086A
:104EB000EC1003080C11030870B54D68049E012D19
:104EC000044611D1B34223D8086802FB06F5854297
:104ED00019D8D1E9020122600022C4E90301C4E922
:104EE00001366261204670BD0C490D4804237222D0
:104EF000FDF7B6FC0023C4E90033C4E90233C4E97A
:104F00000433204670BD0549064804237C22EFE7A0
:104F10000249054804237722EAE700BFB4100308DA
:104F2000EC1003080C110308C410030830B400256A
:104F3000C0E90455C0E9002330BCC0E90231704724
:104F400038B5049DAB42044608D80020C4E90400EB
:104F5000C4E90023C4E90251204638BD0749084886
:104F600004233322FDF77CFC0023C4E90033C4E9A9
:104F70000233C4E90433204638BD00BFB41003082F
:104F8000C410030838B54D68012D04460FD10868D8
:104F900003FB02F5854219D8D1E902012260002203
:104FA000C4E90301C4E901336261204638BD0A49FE
:104FB0000A4804234F22FDF753FC0023C4E90033C1
:104FC000C4E90233C4E90433204638BD0249044829
:104FD00004235422EFE700BFB4100308EC100308C9
:104FE0000C11030870B54D68049E012D044611D1C3
:104FF000B34223D8086802FB06F5854219D8D1E9E7
:10500000020122600022C4E90301C4E901366261A1
:10501000204670BD0C490D4804237222FDF720FC88
:105020000023C4E90033C4E90233C4E90433204651
:1050300070BD0549064804237C22EFE70249054874
:1050400004237722EAE700BFB4100308EC1003083A
:105050000C110308C410030830B40025C0E904553E
:10506000C0E9002330BCC0E90231704738B5049D67
:10507000AB42044608D80020C4E90400C4E9002378
:10508000C4E90251204638BD0749084804233322A9
:10509000FDF7E6FB0023C4E90033C4E90233C4E9A9
:1050A0000433204638BD00BFB4100308C410030801
:1050B00038B54D68012D04460FD1086803FB02F591
:1050C000854219D8D1E9020122600022C4E9030116
:1050D000C4E901336261204638BD0A490A48042305
:1050E0004F22FDF7BDFB0023C4E90033C4E90233BE
:1050F000C4E90433204638BD02490448042354223D
:10510000EFE700BFB4100308EC1003080C1103080C
:1051100070B54D68049E012D044611D1B34223D8C9
:10512000086802FB06F5854219D8D1E90201226020
:105130000022C4E90301C4E901366261204670BD62
:105140000C490D4804237222FDF78AFB0023C4E9B1
:105150000033C4E90233C4E90433204670BD054975
:10516000064804237C22EFE70249054804237722FE
:10517000EAE700BFB4100308EC1003080C110308A1
:10518000C410030830B40025C0E90455C0E9002369
:1051900030BCC0E90231704738B5049DAB420446CB
:1051A00008D80020C4E90400C4E90023C4E902517E
:1051B000204638BD0749084804233322FDF750FB39
:1051C0000023C4E90033C4E90233C4E904332046B0
:1051D00038BD00BFB4100308C410030838B54D68CB
:1051E000012D04460FD1086803FB02F5854219D84A
:1051F000D1E9020122600022C4E90301C4E90133BC
:105200006261204638BD0A490A4804234F22FDF74F
:1052100027FB0023C4E90033C4E90233C4E90433A3
:10522000204638BD0249044804235422EFE700BF5A
:10523000B4100308EC1003080C11030870B54D6896
:10524000049E012D044611D1B34223D8086802FB05
:1052500006F5854219D8D1E9020122600022C4E98D
:105260000301C4E901366261204670BD0C490D4856
:1052700004237222FDF7F4FA0023C4E90033C4E9E1
:105280000233C4E90433204670BD054906480423AF
:105290007C22EFE70249054804237722EAE700BFB2
:1052A000B4100308EC1003080C110308C410030821
:1052B00030B40025C0E90455C0E9002330BCC0E982
:1052C0000231704738B5049DAB42044608D800202F
:1052D000C4E90400C4E90023C4E90251204638BDF2
:1052E0000749084804233322FDF7BAFA0023C4E92A
:1052F0000033C4E90233C4E90433204638BD00BF9B
:10530000B4100308C410030838B54D68012D0446D5
:105310000FD1086803FB02F5854219D8D1E90201D3
:1053200022600022C4E90301C4E90133626120461E
:1053300038BD0A490A4804234F22FDF791FA002399
:10534000C4E90033C4E90233C4E90433204638BD5C
:105350000249044804235422EFE700BFB4100308B5
:10536000EC1003080C11030870B54D68049E012D64
:10537000044611D1B34223D8086802FB06F58542E2
:1053800019D8D1E9020122600022C4E90301C4E96D
:1053900001366261204670BD0C490D48042372221B
:1053A000FDF75EFA0023C4E90033C4E90233C4E91F
:1053B0000433204670BD0549064804237C22EFE7EC
:1053C0000249054804237722EAE700BFB410030826
:1053D000EC1003080C110308C410030830B40025B6
:1053E000C0E90455C0E9002330BCC0E90231704770
:1053F00038B5049DAB42044608D80020C4E9040037
:10540000C4E90023C4E90251204638BD07490848D1
:1054100004233322FDF724FA0023C4E90033C4E94E
:105420000233C4E90433204638BD00BFB41003087A
:10543000C410030838B54D68012D04460FD1086823
:1054400003FB02F5854219D8D1E90201226000224E
:10545000C4E90301C4E901336261204638BD0A4949
:105460000A4804234F22FDF7FBF90023C4E9003367
:10547000C4E90233C4E90433204638BD0249044874
:1054800004235422EFE700BFB4100308EC10030814
:105490000C11030870B54D68049E012D044611D10E
:1054A000B34223D8086802FB06F5854219D8D1E932
:1054B000020122600022C4E90301C4E901366261ED
:1054C000204670BD0C490D4804237222FDF7C8F92F
:1054D0000023C4E90033C4E90233C4E9043320469D
:1054E00070BD0549064804237C22EFE702490548C0
:1054F00004237722EAE700BFB4100308EC10030886
:105500000C110308C410030830B40025C0E9045589
:10551000C0E9002330BCC0E90231704738B5049DB2
:10552000AB42044608D80020C4E90400C4E90023C3
:10553000C4E90251204638BD0749084804233322F4
:10554000FDF78EF90023C4E90033C4E90233C4E94E
:105550000433204638BD00BFB4100308C41003084C
:1055600038B54D68012D04460FD1086803FB02F5DC
:10557000854219D8D1E9020122600022C4E9030161
:10558000C4E901336261204638BD0A490A48042350
:105590004F22FDF765F90023C4E90033C4E9023363
:1055A000C4E90433204638BD024904480423542288
:1055B000EFE700BFB4100308EC1003080C11030858
:1055C00070B54D68049E012D044611D1B34223D815
:1055D000086802FB06F5854219D8D1E9020122606C
:1055E0000022C4E90301C4E901366261204670BDAE
:1055F0000C490D4804237222FDF732F90023C4E957
:105600000033C4E90233C4E90433204670BD0549C0
:10561000064804237C22EFE7024905480423772249
:10562000EAE700BFB4100308EC1003080C110308EC
:10563000C410030830B40025C0E90455C0E90023B4
:1056400030BCC0E90231704738B5049DAB42044616
:1056500008D80020C4E90400C4E90023C4E90251C9
:10566000204638BD0749084804233322FDF7F8F8DF
:105670000023C4E90033C4E90233C4E904332046FB
:1056800038BD00BFB4100308C410030838B54D6816
:10569000012D04460FD1086803FB02F5854219D895
:1056A000D1E9020122600022C4E90301C4E9013307
:1056B0006261204638BD0A490A4804234F22FDF79B
:1056C000CFF80023C4E90033C4E90233C4E904334A
:1056D000204638BD0249044804235422EFE700BFA6
:1056E000B4100308EC1003080C11030870B54D68E2
:1056F000049E012D044611D1B34223D8086802FB51
:1057000006F5854219D8D1E9020122600022C4E9D8
:105710000301C4E901366261204670BD0C490D48A1
:1057200004237222FDF79CF80023C4E90033C4E986
:105730000233C4E90433204670BD054906480423FA
:105740007C22EFE70249054804237722EAE700BFFD
:10575000B4100308EC1003080C110308C41003086C
:1057600030B40025C0E90455C0E9002330BCC0E9CD
:105770000231704738B5049DAB42044608D800207A
:10578000C4E90400C4E90023C4E90251204638BD3D
:105790000749084804233322FDF762F80023C4E9CF
:1057A0000033C4E90233C4E90433204638BD00BFE6
:1057B000B4100308C410030838B54D68012D044621
:1057C0000FD1086803FB02F5854219D8D1E902011F
:1057D00022600022C4E90301C4E90133626120466A
:1057E00038BD0A490A4804234F22FDF739F800233F
:1057F000C4E90033C4E90233C4E90433204638BDA8
:105800000249044804235422EFE700BFB410030800
:10581000EC1003080C11030870B54D68049E012DAF
:10582000044611D1B34223D8086802FB06F585422D
:1058300019D8D1E9020122600022C4E90301C4E9B8
:1058400001366261204670BD0C490D480423722266
:10585000FDF706F80023C4E90033C4E90233C4E9C4
:105860000433204670BD0549064804237C22EFE737
:105870000249054804237722EAE700BFB410030871
:10588000EC1003080C110308C410030830B4002501
:10589000C0E90455C0E9002330BCC0E902317047BB
:1058A00038B5049DAB42044608D80020C4E9040082
:1058B000C4E90023C4E90251204638BD074908481D
:1058C00004233322FCF7CCFF0023C4E90033C4E9EE
:1058D0000233C4E90433204638BD00BFB4100308C6
:1058E000C410030838B54D68012D04460FD108686F
:1058F00003FB02F5854219D8D1E90201226000229A
:10590000C4E90301C4E901336261204638BD0A4994
:105910000A4804234F22FCF7A3FF0023C4E9003305
:10592000C4E90233C4E90433204638BD02490448BF
:1059300004235422EFE700BFB4100308EC1003085F
:105940000C11030870B54D68049E012D044611D159
:10595000B34223D8086802FB06F5854219D8D1E97D
:10596000020122600022C4E90301C4E90136626138
:10597000204670BD0C490D4804237222FCF770FFCD
:105980000023C4E90033C4E90233C4E904332046E8
:1059900070BD0549064804237C22EFE7024905480B
:1059A00004237722EAE700BFB4100308EC100308D1
:1059B0000C110308C410030830B40025C0E90455D5
:1059C000C0E9002330BCC0E90231704738B5049DFE
:1059D000AB42044608D80020C4E90400C4E900230F
:1059E000C4E90251204638BD074908480423332240
:1059F000FCF736FF0023C4E90033C4E90233C4E9ED
:105A00000433204638BD00BFB4100308C410030897
:105A100038B54D68012D04460FD1086803FB02F527
:105A2000854219D8D1E9020122600022C4E90301AC
:105A3000C4E901336261204638BD0A490A4804239B
:105A40004F22FCF70DFF0023C4E90033C4E9023301
:105A5000C4E90433204638BD0249044804235422D3
:105A6000EFE700BFB4100308EC1003080C110308A3
:105A700070B54D68049E012D044611D1B34223D860
:105A8000086802FB06F5854219D8D1E902012260B7
:105A90000022C4E90301C4E901366261204670BDF9
:105AA0000C490D4804237222FCF7DAFE0023C4E9F6
:105AB0000033C4E90233C4E90433204670BD05490C
:105AC000064804237C22EFE7024905480423772295
:105AD000EAE700BFB4100308EC1003080C11030838
