:020000040800F2
:100000000080012035B00208B5AC0208C5AC02087A
:10001000CBAC0208D1AC0208D7AC0208000000004B
:10002000000000000000000000000000DDAC02083D
:10003000EBAC020800000000F9AC020807AD0208B2
:1000400085B0020885B0020885B0020885B00208B4
:1000500085B0020885B0020885B0020885B00208A4
:1000600085B0020885B0020885B0020885B0020894
:1000700085B0020885B0020885B0020885B0020884
:1000800085B0020885B0020885B0020800000000B3
:1000900000000000000000000000000085B0020821
:1000A00085B0020885B0020885B0020885B0020854
:1000B00085B0020885B0020885B0020885B0020844
:1000C00085B0020885B0020885B0020885B0020834
:1000D00085B0020815AD020885B0020800000000D6
:1000E00085B0020885B0020885B002080000000053
:1000F00000000000000000000000000085B00208C1
:100100000000000085B0020885B0020885B0020832
:1001100000000000000000000000000000000000DF
:1001200051AD020885B0020829AD020865AD02088C
:1001300085B0020800000000000000000000000080
:1001400000000000000000000000000085B0020870
:1001500085B0020885B002083DAD020885B00208EE
:1001600085B0020885B00208000000000000000011
:10017000000000000000000000000000000000007F
:100180000000000085B00208000000000000000030
:0401900085B002082C
:1001A00010B5054C237833B9044B13B10448AFF3B1
:1001B00000800123237010BD0C010020000000000E
:1001C000B000030808B5034B1BB103490348AFF364
:1001D000008008BD0000000010010020B0000308EE
:1001E00030B50B6804460068984283B008D00B49CC
:1001F0000B481323392202F033FB132003B030BD28
:100200004B6800938B681546D4E9012107F0AAF9E1
:10021000002085ED000A03B030BD00BF8001030857
:100220008801030830B50B6804460068984283B023
:1002300008D00B490B4813234A2202F011FB13206C
:1002400003B030BD4B6800938B681546D4E901219B
:100250000CF0ECFF002085ED000B03B030BD00BFBB
:10026000800103088801030830B50B680446006864
:10027000984283B008D00B490B4813235B2202F04D
:10028000EFFA132003B030BD4B6800938B6815461E
:10029000D4E9012107F03EF9002085ED000A03B002
:1002A00030BD00BF800103088801030830B50B682A
:1002B00004460068984283B008D00B490B481323CA
:1002C0006B2202F0CDFA132003B030BD4B680093CF
:1002D0008B681546D4E901210BF076FB002085EDF3
:1002E000000B03B030BD00BF800103088801030884
:1002F00010B50B6804460068984282B008D00A49DD
:100300000A4813237C2202F0ABFA132002B010BD7E
:100310004B68CDE900328B68D4E9012111F0F8FB7C
:10032000002002B010BD00BF80010308880103084F
:1003300010B50B6804460068984282B008D00A499C
:100340000A4813238D2202F08BFA132002B010BD4D
:100350004B68CDE900328B68D4E9012111F044FBF0
:10036000002002B010BD00BF80010308880103080F
:1003700010B50B6804460068984282B008D00A495C
:100380000A4813239E2202F06BFA132002B010BD1C
:100390004B68CDE900328B68D4E9012119F0CCF922
:1003A000002002B010BD00BF8001030888010308CF
:1003B00010B50B6804460068984282B008D00A491C
:1003C0000A481323AF2202F04BFA132002B010BDEB
:1003D0004B68CDE900328B68D4E9012119F01CF992
:1003E000002002B010BD00BF80010308880103088F
:1003F000D0E90121006807F02DBE00BFD0E901213E
:1004000000680CF099B900BFD0E90121006806F03E
:10041000DFBF00BFD0E90121006811F0ADB900BF16
:10042000D0E90121006806F0FBBE00BFD0E9012140
:1004300000680BF0C3B900BFD0E90121006806F0E5
:1004400085BF00BFD0E90121006811F059B900BF94
:10045000D0E90121006827F08BBA00BFD0E9012163
:10046000006827F057BA00BFD0E90121006827F0E3
:1004700027BA00BFD0E90121006827F09DBA00BF6C
:1004800010B50B6804460068984282B009D00A494A
:100490000A48132340F20F1202F0E2F9132002B0CF
:1004A00010BD4B6800938B68D4E9012108F078F8FF
:1004B000002002B010BD00BF8001030888010308BE
:1004C00010B50B6804460068984282B009D00A490A
:1004D0000A4813234FF48F7202F0C2F9132002B0BE
:1004E00010BD4B6800938B68D4E901210CF0DCFE51
:1004F000002002B010BD00BF80010308880103087E
:1005000010B50B6804460068984282B009D00A49C9
:100510000A48132340F22D1202F0A2F9132002B070
:1005200010BD4B6800938B68D4E9012114F06AFF79
:10053000002002B010BD00BF80010308880103083D
:1005400010B50B6804460068984282B009D00A4989
:100550000A4813234FF49E7202F082F9132002B06E
:1005600010BD4B6800938B68D4E901211FF0C6FCD5
:10057000002002B010BD00BF8001030888010308FD
:1005800010B50B6804460068984282B009D00A4949
:100590000A4813234FF4A77202F062F9132002B045
:1005A00010BD4B6800938B68D4E9012106F092FFDF
:1005B000002002B010BD00BF8001030888010308BD
:1005C00010B50B6804460068984282B009D00A4909
:1005D0000A48132340F25D1202F042F9132002B0E0
:1005E00010BD4B6800938B68D4E901210BF0CAF968
:1005F000002002B010BD00BF80010308880103087D
:1006000010B50B6804460068984282B009D00A49C8
:100610000A48132340F26D1202F022F9132002B0AF
:1006200010BD4B6800938B68D4E9012111F0BAF931
:10063000002002B010BD00BF80010308880103083C
:1006400010B50B6804460068984282B009D00A4988
:100650000A4813234FF4BE7202F002F9132002B0CD
:1006600010BD4B6800938B68D4E9012118F0AEFFF0
:10067000002002B010BD00BF8001030888010308FC
:1006800010B50B6804460068984282B009D00A4948
:100690000A4813234FF4C77202F0E2F8132002B0A5
:1006A00010BD4B6800938B68D4E9012106F0D0FDA2
:1006B000002002B010BD00BF8001030888010308BC
:1006C00010B50B6804460068984282B009D00A4908
:1006D0000A48132340F29D1202F0C2F8132002B020
:1006E00010BD4B6800938B68D4E901210BF08CF8A6
:1006F000002002B010BD00BF80010308880103087C
:1007000010B50B680246006884B098428DED020A6D
:10071000CDED030A09D00B490B4813234FF4D772D0
:1007200002F09EF8132004B010BDD1E90143CDE9D9
:10073000003402A9D2E9013211F0E4F8002004B03B
:1007400010BD00BF800103088801030810B50B68C5
:100750000246006886B098428DED020B8DED041BB9
:1007600009D00B490B4813234FF4DF7202F078F8DD
:10077000132006B010BDD1E90143CDE9003402A930
:10078000D2E9013218F08EFE002006B010BD00BF85
:10079000800103088801030808B507F0E7FC002082
:1007A00008BD00BF08B50CF0C3F8002008BD00BFAD
:1007B00010B50B6804460068984282B009D00A4917
:1007C0000A48132340F2DF1202F04AF8132002B065
:1007D00010BD4B6800938B68D4E9012107F096FCAB
:1007E000002002B010BD00BF80010308880103088B
:1007F00010B50B6804460068984282B009D00A49D7
:100800000A4813234FF4F77202F02AF8132002B0BB
:1008100010BD4B6800938B68D4E901210CF016F8E9
:10082000002002B010BD00BF80010308880103084A
:1008300008B507F08BFD002008BD00BF08B50CF01F
:100840003BFA002008BD00BF10B50B6804460068E5
:10085000984282B009D00A490A48132340F2112273
:1008600001F0FEFF132002B010BD4B68CDE900324D
:100870008B68D4E9012107F0FBFC002002B010BD19
:10088000800103088801030810B50B68044600685E
:10089000984282B009D00A490A4813234FF40872DB
:1008A00001F0DEFF132002B010BD4B68CDE900322D
:1008B0008B68D4E901210CF017F9002002B010BDBB
:1008C0008001030888010308D0E90121006807F0CE
:1008D00055BE00BFD0E9012100680CF08BBC00BF01
:1008E00000B583B0D0E90132694600688DED000A99
:1008F000CDED010A14F042FD03B05DF804FB00BF2A
:1009000000B585B0D0E90132694600688DED000B75
:100910008DED021B1FF09CFA05B05DF804FB00BFD3
:10092000D0E90121006814F04FBD00BFD0E90121DA
:10093000006818F08DBF00BFF0B56F28D1E9004501
:1009400087B011D0702805D11668A64202D11E6862
:10095000AE420FD012491348132340F2662201F031
:100960007FFF132007B0F0BD1668AE42F2D11E68BB
:10097000A642EFD1D3E90163D2E901EC0596D1E9B2
:100980000276224604930146CDE902CECDE9006706
:100990002B46652007F0D2F8002007B0F0BD00BF5D
:1009A0008001030888010308F0B56F28D1E90045EC
:1009B00087B011D0702805D11668A64202D11E68F2
:1009C000AE420FD01249134813234FF41F7201F0A7
:1009D00047FF132007B0F0BD1668AE42F2D11E6883
:1009E000A642EFD1D3E90163D2E901EC0596D1E942
:1009F0000276224604930146CDE902CECDE9006796
:100A00002B4665200BF068FB002007B0F0BD00BF4F
:100A100080010308880103082DE9F0416F288CB09C
:100A2000D1E900450E468DED0A0ACDED0B0A8DED9C
:100A3000081ACDED091A15D0702810D11168A142FD
:100A400002D11968A94213D018491948132340F25A
:100A5000962201F005FF13200CB0BDE8F08171284B
:100A6000ECD0F1E71168A942EED11968A142EBD1AF
:100A7000D3E90118D2E901C70791CDF818802B46B8
:100A80002246D6E902540DF1200E01460AA8009034
:100A9000CDE9037CCDE90145CDF814E0652011F0E6
:100AA00095FC00200CB0BDE8F08100BF8001030878
:100AB000880103082DE9F0416F2890B0D1E9004585
:100AC0008DED0C0B8DED0E1B8DED082B8DED0A3B86
:100AD0000E4615D0702810D11168A14202D11968B4
:100AE000A94213D018491948132340F2AF2201F04C
:100AF000B7FE132010B0BDE8F0817128ECD0F1E70B
:100B00001168A942EED11968A142EBD1D3E90118CD
:100B1000D2E901C70791CDF818802B462246D6E9C5
:100B200002540DF1200E01460CA80090CDE9037C83
:100B3000CDE90145CDF814E0652019F015FD002040
:100B400010B0BDE8F08100BF8001030888010308F0
:100B5000F0B5D1E900658DB0AE428DED0A0ACDED5C
:100B60000B0A8DED081ACDED091A27D11568B5428B
:100B700003D10C461968A94209D015491548132319
:100B800040F2C62201F06CFE13200DB0F0BDD3E997
:100B90000173D2E90165069705930A460146D4E937
:100BA000020308AFCDE901050093CDE903670AAB65
:100BB000652012F0DFFD00200DB0F0BD04490648AD
:100BC000142340F2C22201F04BFE14200DB0F0BD00
:100BD000800103088801030898010308F0B5D1E9F2
:100BE000006591B0AE428DED0C0B8DED0E1B8DEDC1
:100BF000082B8DED0A3B27D11568B54203D10C4671
:100C00001968A94209D015491548132340F2DD227D
:100C100001F026FE132011B0F0BDD3E90173D2E933
:100C20000165069705930A460146D4E9020308AF19
:100C3000CDE901050093CDE903670CAB65201BF0FE
:100C4000D3FE002011B0F0BD04490648142340F241
:100C5000D92201F005FE142011B0F0BD8001030877
:100C60008801030898010308F0B5D1E90065AE4298
:100C700087B024D11568B54203D10C461968A94242
:100C800009D014491448132340F2F62201F0E8FD7C
:100C9000132007B0F0BDD3E901C7D2E90165CDF853
:100CA00010C0A3680093CDE9015603970A46E36894
:100CB0000146652007F0AEFF002007B0F0BD0549F2
:100CC0000648142340F2F22201F0CAFD142007B0B6
:100CD000F0BD00BF800103088801030898010308E4
:100CE000F0B5D1E90065AE4287B024D11568B542B0
:100CF00003D10C461968A94209D01449144813239A
:100D000040F20B3201F0ACFD132007B0F0BDD3E987
:100D100001C7D2E90165CDF810C0A3680093CDE901
:100D2000015603970A46E368014665200CF04AFF26
:100D3000002007B0F0BD05490648142340F20732F1
:100D400001F08EFD142007B0F0BD00BF8001030844
:100D50008801030898010308F0B5D3E9006487B05F
:100D6000A6420C9D1ED12C68B44211D1D5E9017662
:100D70000094D3E902541346CDE902560A4604977B
:100D800001460194652009F083FC002007B0F0BD06
:100D900009490A4813234FF4497201F061FD1320F9
:100DA00007B0F0BD0449064814234FF4487201F01F
:100DB00057FD142007B0F0BD800103088801030827
:100DC00098010308F0B5D3E9006487B0A6420C9DF2
:100DD0001ED12C68B44211D1D5E901760094D3E933
:100DE00002541346CDE902560A460497014601947F
:100DF00065200FF01BF9002007B0F0BD09490A4833
:100E0000132340F23A3201F02BFD132007B0F0BD5E
:100E100004490648142340F2363201F021FD142023
:100E200007B0F0BD8001030888010308980103089A
:100E3000F0B5D3E9006487B0A6420C9D1ED12C68A2
:100E4000B44211D1D5E901760094D3E90254134696
:100E5000CDE902560A46049701460194652016F032
:100E6000A1FB002007B0F0BD09490A48132340F256
:100E7000513201F0F5FC132007B0F0BD04490648DB
:100E8000142340F24D3201F0EBFC142007B0F0BD0A
:100E9000800103088801030898010308F0B5D3E92D
:100EA000006487B0A6420C9D1ED12C68B44211D1BB
:100EB000D5E901760094D3E902541346CDE90256F0
:100EC0000A46049701460194652023F055FA002054
:100ED00007B0F0BD09490A4813234FF45A7201F0D4
:100EE000BFFC132007B0F0BD0449064814234FF49B
:100EF000597201F0B5FC142007B0F0BD8001030861
:100F00008801030898010308F0B5D3E9006487B0AD
:100F1000A6420C9D1ED12C68B44211D1D5E90176B0
:100F20000094D3E902541346CDE902560A460497C9
:100F30000146019465200AF047FA002007B0F0BD91
:100F400009490A48132340F2813201F089FC132039
:100F500007B0F0BD04490648142340F27D3201F089
:100F60007FFC142007B0F0BD80010308880103084E
:100F700098010308F0B5D3E9006487B0A6420C9D40
:100F80001ED12C68B44211D1D5E901760094D3E981
:100F900002541346CDE902560A46049701460194CD
:100FA000652010F017F9002007B0F0BD09490A4884
:100FB000132340F2973201F053FC132007B0F0BD29
:100FC00004490648142340F2933201F049FC1420EE
:100FD00007B0F0BD800103088801030898010308E9
:100FE000F0B5D3E9006487B0A6420C9D1ED12C68F1
:100FF000B44211D1D5E901760094D3E902541346E5
:10100000CDE902560A46049701460194652017F07F
:101010002DFE002007B0F0BD09490A48132340F215
:10102000AE3201F01DFC132007B0F0BD04490648A4
:10103000142340F2AA3201F013FC142007B0F0BDD3
:10104000800103088801030898010308F0B5D3E97B
:10105000006487B0A6420C9D1ED12C68B44211D109
:10106000D5E901760094D3E902541346CDE902563E
:101070000A46049701460194652025F00BFD0020E7
:1010800007B0F0BD09490A48132340F2C53201F008
:10109000E7FB132007B0F0BD04490648142340F2D3
:1010A000C13201F0DDFB142007B0F0BD8001030860
:1010B0008801030898010308F0B503681468A34287
:1010C00087B003D155680C68AC4209D00E490F486F
:1010D00013234FF4787201F0C3FB132007B0F0BD67
:1010E000D2E90252D1E90176049545680095CDE92F
:1010F00001670392194622468368652006F096FE32
:10110000002007B0F0BD00BF80010308880103087C
:10111000F0B503681468A34287B003D155680C6822
:10112000AC4209D00E490F48132340F2F53201F0CA
:1011300097FB132007B0F0BDD2E90252D1E9017646
:10114000049545680095CDE901670392194622464A
:10115000836865200BF090F9002007B0F0BD00BF58
:101160008001030888010308F0B51368046889B09A
:101170009C428DED060ACDED070A03D155680B6838
:10118000AB4209D00F491048132340F20E4201F040
:1011900067FB132009B0F0BDD2E90252D1E9017614
:1011A0000595D0E901502146CDE900050492CDE92D
:1011B00002671A46652006AB11F014FD002009B045
:1011C000F0BD00BF8001030888010308F0B5136873
:1011D00004688BB09C428DED060B8DED081B03D18E
:1011E00055680B68AB4209D00F491048132340F2F1
:1011F000224201F035FB13200BB0F0BDD2E90252C0
:10120000D1E901760595D0E901502146CDE90005E7
:101210000492CDE902671A46652006AB1AF0F8F889
:1012200000200BB0F0BD00BF800103088801030857
:10123000F0B51368046889B09C428DED060ACDEDC7
:10124000070A03D155680B68AB4209D00F49104813
:10125000132340F23B4201F003FB132009B0F0BD21
:10126000D2E90252D1E901760595D0E90150214633
:10127000CDE900050492CDE902671A46652006AB68
:1012800011F03CFB002009B0F0BD00BF8001030855
:1012900088010308F0B5136804688BB09C428DED9B
:1012A000060B8DED081B03D155680B68AB4209D0C6
:1012B0000F49104813234FF48A6201F0D1FA13202A
:1012C0000BB0F0BDD2E90252D1E901760595D0E923
:1012D00001502146CDE900050492CDE902671A4686
:1012E000652006AB19F03CFE00200BB0F0BD00BF3E
:1012F000800103088801030870B5D2E90045AC42BB
:1013000084B01CD10B460968A1420ED1D2E9026516
:101310005C680296CDE900450A469B680146652057
:1013200012F0ECFC002004B070BD0A490A481323F7
:1013300040F2644201F094FA132004B070BD0549F4
:10134000064814234FF48C6201F08AFA142004B08A
:1013500070BD00BF800103088801030898010308DD
:1013600070B5D2E90045AC4284B01CD10B46096887
:10137000A1420ED1D2E902655C680296CDE9004532
:101380000A469B68014665201CF066F8002004B000
:1013900070BD0A490A48132340F27A4201F060FA0C
:1013A000132004B070BD05490648142340F276426C
:1013B00001F056FA142004B070BD00BF800103088C
:1013C0008801030898010308F0B5D3E9005489B0F7
:1013D000A5428DED060ACDED070A24D10C68AC427A
:1013E00002D11568A54209D014491548132340F2CB
:1013F000944201F035FA132009B0F0BDD3E902435D
:10140000D2E901760594D1E90142049300920146A4
:10141000CDE902672A46019406AB652012F0DEFD95
:10142000002009B0F0BD0549064814234FF492622C
:1014300001F016FA142009B0F0BD00BF80010308C6
:101440008801030898010308F0B5D3E900548BB074
:10145000A5428DED060B8DED081B24D10C68AC4226
:1014600002D11568A54209D014491548132340F24A
:10147000AC4201F0F5F913200BB0F0BDD3E9024303
:10148000D2E901760594D1E9014204930092014624
:10149000CDE902672A46019406AB65201CF048FAA4
:1014A00000200BB0F0BD0549064814234FF49562A7
:1014B00001F0D6F914200BB0F0BD00BF8001030885
:1014C000880103089801030870B5D2E90045AC42D1
:1014D00084B01CD10B460968A1420ED1D2E9026545
:1014E0005C680296CDE900450A469B680146652086
:1014F00007F060FD002004B070BD0A490A481323BC
:1015000040F2C54201F0ACF9132004B070BD0549AA
:101510000648142340F2C14201F0A2F9142004B09D
:1015200070BD00BF8001030888010308980103080B
:1015300070B5D2E90045AC4284B01CD10B460968B5
:10154000A1420ED1D2E902655C680296CDE9004560
:101550000A469B68014665200CF0AEFD002004B0F1
:1015600070BD0A490A48132340F2DB4201F078F9C2
:10157000132004B070BD05490648142340F2D74239
:1015800001F06EF9142004B070BD00BF80010308A3
:101590008801030898010308F0B5D3E90045AC427F
:1015A00087B024D10D68A5420E4602D11168A94228
:1015B00009D014491448132340F2F34201F050F9C2
:1015C000132007B0F0BDD3E902C7D2E90154CDF82A
:1015D00010C073680093CDE9014503970A46B368CC
:1015E0000146652007F0C2FD002007B0F0BD0549A7
:1015F0000648142340F2EF4201F032F9142007B0FC
:10160000F0BD00BF800103088801030898010308AA
:10161000F0B5D3E90045AC4287B024D10D68A542AE
:101620000E4602D11168A94209D014491448132367
:1016300040F2095201F014F9132007B0F0BDD3E9CC
:1016400002C7D2E90154CDF810C073680093CDE908
:10165000014503970A46B368014665200CF056FE23
:10166000002007B0F0BD05490648142340F205529A
:1016700001F0F6F8142007B0F0BD00BF80010308A8
:1016800088010308980103082DE9F04188B06F280C
:10169000DDF838C0D2E900E7DCF8006002D174461A
:1016A000BE4627466F29D3E9004502D1A0462C4605
:1016B0004546BE4205D1DCF80470BC4201D1AE45BE
:1016C0000AD01249124813234FF4A66201F0C8F859
:1016D000132008B0BDE8F081DCE9028CCDF804E00D
:1016E000D3E902E70094D2E9025433460A46CDE931
:1016F00005EC0146CDE90357CDF81C800294652026
:1017000005F07CFF002008B0BDE8F08180010308EF
:10171000880103082DE9F04188B06F28DDF838C052
:10172000D2E900E7DCF8006002D17446BE462746E5
:101730006F29D3E9004502D1A0462C464546BE425A
:1017400005D1DCF80470BC4201D1AE450AD0124983
:101750001248132340F24A5201F082F8132008B0D5
:10176000BDE8F081DCE9028CCDF804E0D3E902E7C2
:101770000094D2E9025433460A46CDE905EC01460D
:10178000CDE90357CDF81C80029465200AF056F984
:10179000002008B0BDE8F08180010308880103083B
:1017A0002DE9F0418EB06F28149C8DED0C0AD2E922
:1017B0000075D4F800E0CDED0D0A8DED0A1ACDEDDF
:1017C0000B1A02D13E462F4635466F29D3E9006CED
:1017D00002D1B0466646C446AE4504D16568AE4205
:1017E00001D167450AD014491448132340F26752C7
:1017F00001F036F813200EB0BDE8F081D4E90254B0
:1018000001970096D3E902870995D2E902650DF1A7
:10181000280C08940CAC0A46CDE9068C0146CDE9AB
:101820000467CDE902457346652010F0FFF90020FA
:101830000EB0BDE8F08100BF8001030888010308F5
:101840002DE9F04393B06F28DDF868C0D2E900E7D6
:101850008DED0E0B8DED101B8DED0A2B8DED0C3BE0
:10186000DCF8006002D17446BE4627466F29D3E9F2
:10187000004502D1A0462C464546BE4205D1DCF8C3
:101880000470BC4201D1AE450AD015491548132356
:1018900040F2835200F0E4FF132013B0BDE8F08360
:1018A000DCE90259CDF804E00094D3E9028C0995F3
:1018B000D2E902750DF1280E0EAC0A46CDE9068E6E
:1018C0000146CDE9047CCDE90245CDF820903346B0
:1018D000652017F0E5FF002013B0BDE8F08300BFDE
:1018E0008001030888010308F0B5D2E9006489B0DB
:1018F000A6420E9D34D18D28D5E90047D3E900CE0C
:1019000011D08E2805D1644503D1B74201D1774566
:101910000FD018491848132340F2A55200F0A0FF39
:10192000132009B0F0BDB442F3D17745F1D164453D
:10193000EFD1D5E9026E0097D3E902570696D2E9B6
:1019400002630A4601930146CDE90375CDF814E020
:1019500023460296652006F045FE002009B0F0BD42
:101960000449064814234FF4B36200F079FF1420B1
:1019700009B0F0BD8001030888010308B001030825
:10198000F0B5D2E9006489B0A6420E9D34D18D280D
:10199000D5E90047D3E900CE11D08E2805D16445A2
:1019A00003D1B74201D177450FD018491848132306
:1019B00040F2C65200F054FF132009B0F0BDB4420B
:1019C000F3D17745F1D16445EFD1D5E9026E0097A7
:1019D000D3E902570696D2E902630A46019301460B
:1019E000CDE90375CDF814E02346029665200BF08F
:1019F00083FC002009B0F0BD04490648142340F2DE
:101A0000B95200F02DFF142009B0F0BD8001030889
:101A100088010308B00103082DE9F041144612685B
:101A200067688EB0BA42149E8DED0C0ACDED0D0A9A
:101A30008DED0A1ACDED0B1A3DD11D468D28D6E944
:101A40000037D5E900CE12D08E2805D1634503D1E9
:101A5000974201D1774510D01C491D48132340F20D
:101A6000E95200F0FDFE13200EB0BDE8F081934274
:101A7000F2D17745F0D16345EED1D6E9028E0097D9
:101A8000CDF82080D5E90276CDF81CE0D4E90254E7
:101A90000DF1280C0A4601460CA80190CDE9046717
:101AA000CDE90245CDF818C0652013F0E5FC002013
:101AB0000EB0BDE8F08105490648142340F2DB5220
:101AC00000F0CEFE14200EB0BDE8F08180010308C6
:101AD00088010308B0010308F0B5D2E9007693B09D
:101AE000B74214468DED0E0B8DED101B8DED0A2BBC
:101AF0008DED0C3B189A3AD11D468D28D2E900365F
:101B0000D5E900CE11D08E2805D1634503D1BE4260
:101B100001D176450FD01B491B48132340F20A62BE
:101B200000F09EFE132013B0F0BDBB42F3D176450A
:101B3000F1D16345EFD1D2E9027E00960897D5E94D
:101B40000276CDF81CE0D4E902540DF1280C0A46C7
:101B500001460EA80190CDE90467CDE90245CDF814
:101B600018C065201EF004FA002013B0F0BD05492E
:101B70000648142340F2FC5200F072FE142013B009
:101B8000F0BD00BF8001030888010308B00103080D
:101B90002DE9F0411446126867688EB0BA42149E6F
:101BA0008DED0C0ACDED0D0A8DED0A1ACDED0B1A57
:101BB0003DD11D468D28D6E90037D5E900CE12D09B
:101BC0008E2805D1634503D1974201D1774510D0C6
:101BD0001C491D48132340F22F6200F041FE1320E0
:101BE0000EB0BDE8F0819342F2D17745F0D1634564
:101BF000EED1D6E9028E0097CDF82080D5E90276A5
:101C0000CDF81CE0D4E902540DF1280C0A46014637
:101C10000CA80190CDE90467CDE90245CDF818C0C4
:101C2000652011F053F900200EB0BDE8F0810549A0
:101C30000648142340F2216200F012FE14200EB078
:101C4000BDE8F0818001030888010308B0010308A2
:101C5000F0B5D2E9007693B0B74214468DED0E0B85
:101C60008DED101B8DED0A2B8DED0C3B189A3AD1A2
:101C70001D468D28D2E90036D5E900CE11D08E2838
:101C800005D1634503D1BE4201D176450FD01B4932
:101C90001B48132340F2526200F0E2FD132013B000
:101CA000F0BDBB42F3D17645F1D16345EFD1D2E926
:101CB000027E00960897D5E90276CDF81CE0D4E9BB
:101CC00002540DF1280C0A4601460EA80190CDE9F8
:101CD0000467CDE90245CDF818C0652019F0F0FD84
:101CE000002013B0F0BD05490648142340F24462B9
:101CF00000F0B6FD142013B0F0BD00BF8001030852
:101D000088010308B0010308F0B56F29D3E9004743
:101D1000D2E9006587B002D1B4462E466546BC4282
:101D20001DD1AC4211D1D3E902570096D2E902632A
:101D30000A4601930146CDE90267049523466520D2
:101D400007F05AFE002007B0F0BD0A490A481323E5
:101D500040F2676200F084FD132007B0F0BD054932
:101D60000648142340F2636200F07AFD142007B0A5
:101D7000F0BD00BF8001030888010308C801030803
:101D8000F0B56F29D3E90047D2E9006587B002D1E9
:101D9000B4462E466546BC421DD1AC4211D1D3E9B2
:101DA00002570096D2E902630A4601930146CDE943
:101DB00002670495234665200DF0B6F8002007B0B1
:101DC000F0BD0A490A48132340F27F6200F048FD43
:101DD000132007B0F0BD05490648142340F27B628A
:101DE00000F03EFD142007B0F0BD00BF80010308E5
:101DF00088010308C8010308F0B514460A468DB0EF
:101E00006F2A0146D4E90065D3E900078DED0A0A7F
:101E1000CDED0B0A8DED081ACDED091A02D1B446AD
:101E20002E466546B8421FD1A84213D1D3E90257C6
:101E300000960695D4E90254034608AE0AA8CDE9F7
:101E40000104CDE903560597652014F03BFB002003
:101E50000DB0F0BD09490A48132340F29A6200F020
:101E6000FFFC13200DB0F0BD04490648142340F2D6
:101E7000966200F0F5FC14200DB0F0BD800103085F
:101E800088010308C8010308F0B514460A4691B05A
:101E90006F2A0146D4E90065D3E900078DED0C0BEC
:101EA0008DED0E1B8DED082B8DED0A3B02D1B44656
:101EB0002E466546B8421FD1A84213D1D3E9025736
:101EC00000960695D4E90254034608AE0CA8CDE965
:101ED0000104CDE903560597652020F099F800200C
:101EE00011B0F0BD09490A48132340F2B46200F072
:101EF000B7FC132011B0F0BD0449064814234FF479
:101F0000D66200F0ADFC142011B0F0BD80010308D2
:101F100088010308C8010308F0B56F29D3E9004719
:101F2000D2E9006587B002D1B4462E466546BC4270
:101F30001DD1AC4211D1D3E902570096D2E9026318
:101F40000A4601930146CDE90267049523466520C0
:101F500012F0A6FE002007B0F0BD0A490A4813237C
:101F600040F2CF6200F07CFC132007B0F0BD0549C1
:101F70000648142340F2CB6200F072FC142007B034
:101F8000F0BD00BF8001030888010308C8010308F1
:101F9000F0B56F29D3E90047D2E9006587B002D1D7
:101FA000B4462E466546BC421DD1AC4211D1D3E9A0
:101FB00002570096D2E902630A4601930146CDE931
:101FC00002670495234665201DF09AF9002007B0AA
:101FD000F0BD0A490A4813234FF4DD6200F040FCCB
:101FE000132007B0F0BD05490648142340F2E4620F
:101FF00000F036FC142007B0F0BD00BF80010308DC
:1020000088010308C80103082DE9F04788B06F294B
:10201000109ED3E900ECD2E90087D6E9005405D13F
:10202000BA46F1464746E646D046CC46A54210D1D0
:10203000BD4203D1654501D1C64515D017491848A1
:10204000132340F2047200F00BFC132008B0BDE82B
:10205000F0871249134814234FF4E06200F000FCAB
:10206000142008B0BDE8F087D6E90248CDF800E0BA
:10207000D3E902C70694D2E902642B460A46CDE9A9
:10208000037C0146CDE90146CDF81480652007F0B8
:10209000A7F9002008B0BDE8F08700BF8001030861
:1020A00088010308C80103082DE9F04788B06F29AB
:1020B000109DD3E900C7D2E900E6D5E9004805D173
:1020C000B246E1467646BC46D6464F46444510D118
:1020D000B44203D1BC4201D1F44515D01749184888
:1020E00013234FF4E46200F0BBFB132008B0BDE8FB
:1020F000F08712491348142340F21C7200F0B0FB21
:10210000142008B0BDE8F087D5E9026ECDF800C014
:10211000D3E902570696D2E902630A4601930146C3
:10212000CDE90375CDF814E02346029665200CF046
:10213000A7FA002008B0BDE8F08700BF80010308BF
:1021400088010308C80103082DE9F0478EB0144642
:10215000169A8DED0C0A6F29D3E900C71D46D4E904
:1021600000E6D2E90038CDED0D0A8DED0A1ACDED6D
:102170000B1A05D1B246E1467646BC46D6464F46D6
:10218000434510D1B34203D1BB4201D1F44515D030
:1021900019491A48132340F23E7200F061FB1320E4
:1021A0000EB0BDE8F08714491548142340F23A7286
:1021B00000F056FB14200EB0BDE8F087D2E9026EA5
:1021C000CDF800C00896D5E90276CDF81CE0D4E938
:1021D00002540DF1280C0A4601460CA80190CDE9E5
:1021E0000467CDE90245CDF818C0652013F0D2FD93
:1021F00000200EB0BDE8F0878001030888010308C5
:10220000C80103082DE9F04792B014461A9A6F29C5
:10221000D3E900C71D46D4E900E68DED0E0B8DED28
:10222000101B8DED0A2B8DED0C3BD2E9003805D14A
:10223000B246E1467646BC46D6464F46434510D1A7
:10224000B34203D1BB4201D1F44515D019491A4814
:10225000132340F25C7200F003FB132012B0BDE8C0
:10226000F0871449154814234FF4EB6200F0F8FA94
:10227000142012B0BDE8F087D2E9026ECDF800C09C
:102280000896D5E90276CDF81CE0D4E902540DF1A8
:10229000280C0A4601460EA80190CDE90467CDE955
:1022A0000245CDF818C065201EF06EFF002012B068
:1022B000BDE8F0878001030888010308C80103080E
:1022C0002DE9F0478AB06F29129E8DED080AD3E9F7
:1022D00000ECD2E90087D6E90045CDED090A05D129
:1022E000BA46F1464746E646D046CC46AC4210D107
:1022F000BC4203D1644501D1C64515D018491948DF
:10230000132340F27B7200F0ABFA13200AB0BDE851
:10231000F08713491448142340F2777200F0A0FAB2
:1023200014200AB0BDE8F087D6E90275CDF800E0C8
:10233000D3E902E60797D2E90273069508AD029346
:102340000A46CDE9046E0146B0EE410A23460397E2
:102350000195652012F014F800200AB0BDE8F0875E
:102360008001030888010308C80103082DE9F0472C
:102370008CB06F29149DD3E900C7D2E900E68DED3A
:10238000080B8DED0A1BD5E9004805D1B246E146A0
:102390007646BC46D6464F46444510D1B44203D19A
:1023A000BC4201D1F44515D019491A48132340F213
:1023B000997200F055FA13200CB0BDE8F08714496B
:1023C0001548142340F2957200F04AFA14200CB01C
:1023D000BDE8F087D5E90265B0EE420AF0EE620A88
:1023E000CDF800C0D3E902EC0796D2E90276069553
:1023F00008AD0A46CDE904CE0146CDE90267234681
:10240000019565201BF064FE00200CB0BDE8F0874C
:102410008001030888010308C8010308F0B589B0EA
:10242000DDE90E46D4E90075AF4227D18D28D6E903
:1024300000C50DD08E2801D1BD420BD014491548DE
:10244000132340F2BC7200F00BFA132009B0F0BD68
:10245000BC45F3D1D6E902760295D4E90254CDE920
:10246000003CCDE905671346CDE903450A46014620
:10247000652007F047FD002009B0F0BD044906487B
:10248000142340F2B17200F0EBF9142009B0F0BD52
:102490008001030888010308B0010308F0B589B082
:1024A000DDE90E46D4E90075AF4227D18D28D6E983
:1024B00000C50DD08E2801D1BD420BD0144915485E
:1024C00013234FF4FB6200F0CBF9132009B0F0BDE9
:1024D000BC45F3D1D6E902760295D4E90254CDE9A0
:1024E000003CCDE905671346CDE903450A460146A0
:1024F00065200DF0A5F8002009B0F0BD044906489C
:10250000142340F2CD7200F0ABF9142009B0F0BDF5
:102510008001030888010308B0010308F0B58BB0FF
:10252000DDE91046D4E90075AF428DED080ACDED26
:10253000090A2AD18D28D6E900C50DD08E2801D1EF
:10254000BD420BD016491748132340F2F77200F032
:1025500087F913200BB0F0BDBC45F3D1D6E9027664
:102560000295D4E902E408AD0093CDE9066713466D
:10257000CDE9044E0A46CDF804C001460395652016
:1025800014F09AFA00200BB0F0BD05490648142358
:1025900040F2EB7200F064F914200BB0F0BD00BF04
:1025A0008001030888010308B0010308F0B58DB06D
:1025B000DDE91246D4E90075AF428DED080B8DEDD3
:1025C0000A1B2AD18D28D6E900C50DD08E2801D14D
:1025D000BD420BD016491748132340F6150200F0F0
:1025E0003FF913200DB0F0BDBC45F3D1D6E902761A
:1025F0000295D4E902E408AD0093CDE906671346DD
:10260000CDE9044E0A46CDF804C001460395652085
:1026100020F0B2FA00200DB0F0BD054906481423A1
:1026200040F6090200F01CF914200DB0F0BD00BF07
:102630008001030888010308B0010308F0B589B0E0
:10264000DDE90E46D4E90075AF4227D18D28D6E9E1
:1026500000C50DD08E2801D1BD420BD014491548BC
:10266000132340F6330200F0FBF8132009B0F0BD4D
:10267000BC45F3D1D6E902760295D4E90254CDE9FE
:10268000003CCDE905671346CDE903450A460146FE
:10269000652008F0D1F9002009B0F0BD04490648D2
:1026A000142340F6280200F0DBF8142009B0F0BD36
:1026B0008001030888010308B0010308F0B589B060
:1026C000DDE90E46D4E90075AF4227D18D28D6E961
:1026D00000C50DD08E2801D1BD420BD0144915483C
:1026E000132340F64F0200F0BBF8132009B0F0BDF1
:1026F000BC45F3D1D6E902760295D4E90254CDE97E
:10270000003CCDE905671346CDE903450A4601467D
:1027100065200DF0F9FE002009B0F0BD044906481F
:10272000142340F6440200F09BF8142009B0F0BDD9
:102730008001030888010308B0010308F0B58BB0DD
:10274000DDE91046D4E90075AF428DED080ACDED04
:10275000090A2AD18D28D6E900C50DD08E2801D1CD
:10276000BD420BD016491748132340F66E0200F005
:1027700077F813200BB0F0BDBC45F3D1D6E9027653
:102780000295D4E902E408AD0093CDE9066713464B
:10279000CDE9044E0A46CDF804C0014603956520F4
:1027A00015F0F2F900200BB0F0BD054906481423DE
:1027B00040F6620200F054F814200BB0F0BD00BFE8
:1027C0008001030888010308B0010308F0B58DB04B
:1027D000DDE91246D4E90075AF428DED080B8DEDB1
:1027E0000A1B2AD18D28D6E900C50DD08E2801D12B
:1027F000BD420BD016491748132340F68C0200F057
:102800002FF813200DB0F0BDBC45F3D1D6E9027608
:102810000295D4E902E408AD0093CDE906671346BA
:10282000CDE9044E0A46CDF804C001460395652063
:1028300022F006FB00200DB0F0BD05490648142328
:102840004FF4086200F00CF814200DB0F0BD00BF8A
:102850008001030888010308B0010308704700BF26
:1028600070B50F4C25681DB1AC46BDE8704060479F
:102870000C4D044623460C4800F02CF82B68986851
:102880002CF0E4FB2B680948DB68232201212CF0A3
:1028900019FD2B68D8682CF0D9FB2CF019FB00BF70
:1028A00028010020A4000020E0010308E80103083B
:1028B000024B1A6818601046704700BF28010020BC
:1028C000024B034A18681A60704700BF28010020B5
:1028D0005D28000830B50E4D2C6883B034B16C68AB
:1028E0005CB1A44603B0BDE830406047094C2468A1
:1028F000E4682C606C68002CF3D1CDE9000313462A
:1029000028680A4604492CF05FFC03B030BD00BFC4
:102910002C010020A40000200C020308024B5A687E
:1029200058601046704700BF2C010020054A13680C
:1029300013B1106018467047034B10601B68DB68CA
:10294000184670472C010020A4000020F8B5074667
:1029500018200E462CF0E8FC0446B8B106FB07F040
:1029600004F020F8054648B14368E3600123C4E958
:102970000076C4E90403A6602046F8BD074908486C
:10298000082328222C46FFF76BFFF5E7034905488B
:1029900008231E22FFF764FFEEE700BF20020308B2
:1029A0005C02030830020308F8B504460E46FFF740
:1029B000CDFF054688B106FB04F63401C068224607
:1029C00000212CF0C1FC730007D0EB680026002723
:1029D000E218E3E802679342FBD12846F8BD00BF46
:1029E0002DE9F843DDF82090994525D390460268FB
:1029F0001E4608FB09139A4205460F4612D31820BB
:102A00002CF092FC0446F8B16968C0F8008001EB34
:102A10000711C0E90169C0E903150023436120469D
:102A2000BDE8F8830C490D4804235B220024FFF71E
:102A300017FF2046BDE8F8830749094804235622BA
:102A4000FFF70EFF0024EAE7034906480823632244
:102A5000FFF706FFE3E700BF20020308AC0203080C
:102A600080020308300203082DE9F8431F4603687B
:102A7000DDF820900546C819984226D86B68904624
:102A80004A449A4217D818200E462CF04DFC0446B2
:102A900018B30760AB68C4F80490D5E9031006FBCF
:102AA000038601EBC6060022C4E90236C4E904022B
:102AB0002046BDE8F8830C490C48042382220024F8
:102AC000FFF7CEFE2046BDE8F883074908480423F7
:102AD0007D22FFF7C5FE0024EAE7034905480823E5
:102AE0008A22FFF7BDFEE3E720020308080303087C
:102AF000D80203083002030880B1436910B50446C8
:102B000023B92046BDE810402CF016BC006903F044
:102B10008BFF2046BDE810402CF00EBC704700BF74
:102B20002DE9F0430768051D95E8205027B30026DE
:102B3000DFF84890002000214FF000083446BDB176
:102B40000EEB0612002308E001339D42C2E90001AA
:102B5000C2E9020102F110020AD0A342F4D101330A
:102B60009D42C2E90089C2E9020102F11002F4D1DA
:102B70000134A7426644E2D1BDE8F0830000F03F93
:102B8000D0F800C0C268F0B4D0E90157BCF1000F22
:102B900015D0C5EB05763F0102EB05123601002486
:102BA00000200021931935B1C3E90001C3E90201F6
:102BB00010339342F8D10134A4453A44F2D1F0BC29
:102BC000704700BF2DE9F043D0F80090C66885B08B
:102BD000D0E901C38DED000B8DED021BB9F1000FA3
:102BE00019D0CCEB0C7E4FEA031806EB0C164FEA1B
:102BF0000E1E00276D4606EB0E04BCF1000F06D03A
:102C000095E80F0084E80F001034B442F8D1013782
:102C1000B9454644EFD105B0BDE8F083F8B50746A5
:102C200018200E462CF080FB0446B8B106FB07F0D6
:102C300003F006FF054648B14368E3600123C4E999
:102C40000076C4E90403A6602046F8BD0749084899
:102C5000082328222C46FFF703FEF5E70349054821
:102C600008231E22FFF7FCFDEEE700BF2002030849
:102C70005C02030830020308F8B504460E46FFF76D
:102C8000CDFF054688B106FB04F63401C068224634
:102C900000212CF059FB730007D0EB6800260027B9
:102CA000E218E3E802679342FBD12846F8BD00BF73
:102CB0002DE9F843DDF82090994525D39046026828
:102CC0001E4608FB09139A4205460F4612D31820E8
:102CD0002CF02AFB0446F8B16968C0F8008001EBCB
:102CE0000711C0E90169C0E90315002343612046CB
:102CF000BDE8F8830C490D4804235B220024FFF74C
:102D0000AFFD2046BDE8F883074909480423562251
:102D1000FFF7A6FD0024EAE70349064808236322DB
:102D2000FFF79EFDE3E700BF20020308AC020308A3
:102D300080020308300203082DE9F8431F460368A8
:102D4000DDF820900546C819984226D86B68904651
:102D50004A449A4217D818200E462CF0E5FA044649
:102D600018B30760AB68C4F80490D5E9031006FBFC
:102D7000038601EBC6060022C4E90236C4E9040258
:102D80002046BDE8F8830C490C4804238222002425
:102D9000FFF766FD2046BDE8F8830749084804238D
:102DA0007D22FFF75DFD0024EAE70349054808237B
:102DB0008A22FFF755FDE3E7200203080803030812
:102DC000D80203083002030880B1436910B50446F5
:102DD00023B92046BDE810402CF0AEBA006903F0DC
:102DE00071FE2046BDE810402CF0A6BA704700BF27
:102DF0002DE9F0430768051D95E8205027B300260C
:102E0000DFF84890002000214FF000083446BDB1A3
:102E10000EEB0612002308E001339D42C2E90001D7
:102E2000C2E9020102F110020AD0A342F4D1013337
:102E30009D42C2E90089C2E9020102F11002F4D107
:102E40000134A7426644E2D1BDE8F0830000F03FC0
:102E5000D0F800C0C268F0B4D0E90157BCF1000F4F
:102E600015D0C5EB05763F0102EB051236010024B3
:102E700000200021931935B1C3E90001C3E9020123
:102E800010339342F8D10134A4453A44F2D1F0BC56
:102E9000704700BF2DE9F043D0F80090C66885B0B8
:102EA000D0E901C38DED000B8DED021BB9F1000FD0
:102EB00019D0CCEB0C7E4FEA031806EB0C164FEA48
:102EC0000E1E00276D4606EB0E04BCF1000F06D067
:102ED00095E80F0084E80F001034B442F8D10137B0
:102EE000B9454644EFD105B0BDE8F083F8B50746D3
:102EF00018200E462CF018FA0446B8B106FB07F06D
:102F000003F0ECFD054648B14368E3600123C4E9E2
:102F10000076C4E90403A6602046F8BD07490848C6
:102F2000082328222C46FFF79BFCF5E703490548B8
:102F300008231E22FFF794FCEEE700BF20020308DF
:102F40005C0203083002030870B504460E46FFF722
:102F5000CDFF054680B106FB04F6F400C0682246AA
:102F600000212CF0F1F9730006D0EB680021E21883
:102F700043F8041B9342FBD1284670BD2DE9F8436A
:102F8000DDF82090994525D3904602681E4608FB3F
:102F900009139A4205460F4612D318202CF0C4F9A3
:102FA0000446F8B16968C0F8008001EBC701C0E9C8
:102FB0000169C0E90315002343612046BDE8F88399
:102FC0000C490D4804235B220024FFF749FC2046EE
:102FD000BDE8F8830749094804235622FFF740FC5F
:102FE0000024EAE70349064808236322FFF738FC78
:102FF000E3E700BF20020308AC02030880020308D5
:10300000300203082DE9F8431F460368DDF82090DD
:103010000546C819984226D86B6890464A449A4299
:1030200017D818200E462CF07FF9044618B3076015
:10303000AB68C4F80490D5E9031006FB038601EBE6
:1030400086060022C4E90236C4E904022046BDE82F
:10305000F8830C490C48042382220024FFF700FC6B
:103060002046BDE8F8830749084804237D22FFF77E
:10307000F7FB0024EAE70349054808238A22FFF703
:10308000EFFBE3E72002030808030308D802030864
:103090003002030880B1436910B5044623B92046C5
:1030A000BDE810402CF048B9006903F059FD2046F6
:1030B000BDE810402CF040B9704700BFF0B507687C
:1030C000041D94E81050BFB10025002128464FF0A0
:1030D0007E566CB10EEBC5020023834203F101035F
:1030E0000CBF166011609C42516002F10802F4D1DD
:1030F000013087426544ECD1F0BD00BFF0B40768F1
:10310000C168D0E9014697B1C4EB4475F60001EB04
:10311000C401ED00002000224B1924B11A605A604E
:1031200008338B42FAD1013087423144F4D1F0BCEC
:10313000704700BFF0B5D0F800E0C56883B0D0E9B3
:1031400001638DED000ACDED010ABEF1000F12D032
:103150004FEAC30C00276C46002346B194E80300F5
:1031600005EBC30201339E4282E80300F6D101372A
:10317000BE456544F0D103B0F0BD00BFF8B50746C9
:1031800018200E462CF0D0F80446B8B106FB07F024
:1031900003F0F2FC054648B14368E3600123C4E94B
:1031A0000076C4E90403A6602046F8BD0749084834
:1031B000082328222C46FFF753FBF5E7034905486F
:1031C00008231E22FFF74CFBEEE700BF2002030896
:1031D0005C02030830020308F8B504460E46FFF708
:1031E000CDFF054680B106FB04F6F400C068224618
:1031F00000212CF0A9F83EB1EB6800260027E21868
:10320000E3E802679342FBD12846F8BD2DE9F84375
:10321000DDF82090994525D3904602681E4608FBAC
:1032200009139A4205460F4612D318202CF07CF859
:103230000446F8B16968C0F8008001EBC701C0E935
:103240000169C0E90315002343612046BDE8F88306
:103250000C490D4804235B220024FFF701FB2046A4
:10326000BDE8F8830749094804235622FFF7F8FA16
:103270000024EAE70349064808236322FFF7F0FA2F
:10328000E3E700BF20020308AC0203088002030842
:10329000300203082DE9F8431F460368DDF820904B
:1032A0000546C819984226D86B6890464A449A4207
:1032B00017D818200E462CF037F8044618B30760CC
:1032C000AB68C4F80490D5E9031006FB038601EB54
:1032D000C6060022C4E90236C4E904022046BDE85D
:1032E000F8830C490C48042382220024FFF7B8FA23
:1032F0002046BDE8F8830749084804237D22FFF7EC
:10330000AFFA0024EAE70349054808238A22FFF7B9
:10331000A7FAE3E72002030808030308D80203081A
:103320003002030880B1436910B5044623B9204632
:10333000BDE810402CF000B8006903F05FFC2046A7
:10334000BDE810402BF0F8BF704700BF2DE9F04FEB
:10335000D0F800E0051D95E8200CBEF1000F1CD050
:103360004FF0000CDFF838904FF0000800260027DF
:10337000644675B10BEBCC0200239C4203F10103C0
:1033800019BF30463946404649469D42E2E80201AF
:10339000F3D10134A645D444EBD1BDE8F08F00BF92
:1033A0000000F03FD0F800C0C268F0B4D0E9015787
:1033B000BCF1000F12D0C5EB4576FF0002EBC50251
:1033C000F60000240020002193191DB1E3E802015A
:1033D0009342FBD10134A4453A44F5D1F0BC704787
:1033E00070B40668C268D0E9014586B1C4EB447088
:1033F000ED0002EBC402C000002113181CB1A3ECC5
:10340000020B9342FBD101318E422A44F5D170BCAC
:10341000704700BFF8B5074618200E462BF084FF12
:103420000446B8B106FB07F003F0F4FB054648B1CB
:103430004368E3600123C4E90076C4E90403A6609D
:103440002046F8BD07490848082328222C46FFF7E4
:1034500007FAF5E70349054808231E22FFF700FA9B
:10346000EEE700BF200203085C02030830020308F5
:10347000F8B504460E46FFF7CDFF054680B106FBC2
:1034800004F6F400C068224600212BF05DFF3EB137
:10349000EB6800260027E218E3E802679342FBD1BD
:1034A0002846F8BD2DE9F843DDF82090994525D34D
:1034B000904602681E4608FB09139A4205460F46CD
:1034C00012D318202BF030FF0446F8B16968C0F819
:1034D000008001EBC701C0E90169C0E903150023C1
:1034E00043612046BDE8F8830C490D4804235B2264
:1034F0000024FFF7B5F92046BDE8F88307490948DD
:1035000004235622FFF7ACF90024EAE703490648F2
:1035100008236322FFF7A4F9E3E700BF20020308B2
:10352000AC02030880020308300203082DE9F843C7
:103530001F460368DDF820900546C819984226D832
:103540006B6890464A449A4217D818200E462BF0D2
:10355000EBFE044618B30760AB68C4F80490D5E9E5
:10356000031006FB038601EBC6060022C4E90236FF
:10357000C4E904022046BDE8F8830C490C48042342
:1035800082220024FFF76CF92046BDE8F883074942
:10359000084804237D22FFF763F90024EAE7034982
:1035A000054808238A22FFF75BF9E3E720020308B6
:1035B00008030308D80203083002030880B14369F6
:1035C00010B5044623B92046BDE810402BF0B4BE28
:1035D000006903F061FB2046BDE810402BF0ACBE53
:1035E000704700BF2DE9F04FD0F800E0051D95E8C9
:1035F000200CBEF1000F1CD04FF0000CDFF838900B
:103600004FF0000800260027644675B10BEBCC0292
:1036100000239C4203F1010319BF3046394640465E
:1036200049469D42E2E80201F3D10134A645D44463
:10363000EBD1BDE8F08F00BF0000F03FD0F800C034
:10364000C268F0B4D0E90157BCF1000F12D0C5EB4D
:103650004576FF0002EBC502F600002400200021A1
:1036600093191DB1E3E802019342FBD10134A44553
:103670003A44F5D1F0BC704770B40668C268D0E92E
:10368000014586B1C4EB4470ED0002EBC402C000FA
:10369000002113181CB1A3EC020B9342FBD10131A2
:1036A0008E422A44F5D170BC704700BFF8B507467A
:1036B00018200E462BF038FE0446B8B106FB07F082
:1036C00003F0F6FA054648B14368E3600123C4E914
:1036D0000076C4E90403A6602046F8BD07490848FF
:1036E000082328222C46FFF7BBF8F5E703490548D5
:1036F00008231E22FFF7B4F8EEE700BF20020308FC
:103700005C0203083002030870B504460E46FFF75A
:10371000CDFF054678B106FB04F6B400C06822462A
:1037200000212BF011FE36B1EB680021E21843F8BE
:10373000041B9342FBD1284670BD00BF2DE9F8431E
:10374000DDF82090994525D3904602681E4608FB77
:1037500009139A4205460F4612D318202BF0E4FDB8
:103760000446F8B16968C0F8008001EB8701C0E940
:103770000169C0E90315002343612046BDE8F883D1
:103780000C490D4804235B220024FFF769F820460A
:10379000BDE8F8830749094804235622FFF760F87B
:1037A0000024EAE70349064808236322FFF758F894
:1037B000E3E700BF20020308AC020308800203080D
:1037C000300203082DE9F8431F460368DDF8209016
:1037D0000546C819984226D86B6890464A449A42D2
:1037E00017D818200E462BF09FFD044618B307602B
:1037F000AB68C4F80490D5E9031006FB038601EB1F
:1038000086060022C4E90236C4E904022046BDE867
:10381000F8830C490C48042382220024FFF720F887
:103820002046BDE8F8830749084804237D22FFF7B6
:1038300017F80024EAE70349054808238A22FFF71E
:103840000FF8E3E72002030808030308D80203087F
:103850003002030880B1436910B5044623B92046FD
:10386000BDE810402BF068BD006903F061FA204606
:10387000BDE810402BF060BD704700BFF0B4056894
:10388000041DD0CCCDB10020DFED0D6A0146B7EEAE
:10389000007A74B107EB80020023994203F101031F
:1038A00014BFF0EE667AF0EE477A9C42E2EC017AC1
:1038B000F3D101318D423044EBD1F0BC704700BFF1
:1038C00000000000F0B40768C268D0E901468FB17B
:1038D000C4EB8475B60002EB8402AD000020002129
:1038E00053191CB143F8041B9342FBD101308742AA
:1038F0003244F5D1F0BC704770B40668C268D0E9B4
:10390000014586B1C4EB8470AD0002EB84028000F7
:10391000002113181CB1A3EC010A9342FBD1013121
:103920008E422A44F5D170BC704700BFF8B50746F7
:1039300018200E462BF0F8FC0446B8B106FB07F041
:1039400003F002FA054648B14368E3600123C4E985
:103950000076C4E90403A6602046F8BD074908487C
:10396000082328222C46FEF77BFFF5E7034905488C
:1039700008231E22FEF774FFEEE700BF20020308B3
:103980005C0203083002030870B504460E46FFF7D8
:10399000CDFF054688B106FB04F6B400C068224698
:1039A00000212BF0D1FC46B1EB68221F1A44002104
:1039B000043B43F8041F9342FBD1284670BD00BF6F
:1039C0002DE9F843DDF82090994525D3904602680B
:1039D0001E4608FB09139A4205460F4612D31820CB
:1039E0002BF0A2FC0446F8B16968C0F8008001EB36
:1039F0008701C0E90169C0E903150023436120463E
:103A0000BDE8F8830C490D4804235B220024FEF72F
:103A100027FF2046BDE8F8830749094804235622BA
:103A2000FEF71EFF0024EAE7034906480823632245
:103A3000FEF716FFE3E700BF20020308AC0203080D
:103A400080020308300203082DE9F8431F4603688B
:103A5000DDF820900546C819984226D86B68904634
:103A60004A449A4217D818200E462BF05DFC0446B3
:103A700018B30760AB68C4F80490D5E9031006FBDF
:103A8000038601EB86060022C4E90236C4E904027B
:103A90002046BDE8F8830C490C4804238222002408
:103AA000FEF7DEFE2046BDE8F883074908480423F8
:103AB0007D22FEF7D5FE0024EAE7034905480823E6
:103AC0008A22FEF7CDFEE3E720020308080303087D
:103AD000D80203083002030880B1436910B50446D8
:103AE00023B92046BDE810402BF026BC006903F046
:103AF0006DF92046BDE810402BF01EBC704700BF9A
:103B0000F0B40668C768D0E9014C9EB10025043FB7
:103B100028465CB107EB85020023C11AB1FA81F196
:103B2000013349099C4242F8041FF6D10130864214
:103B30006544EED1F0BC7047F0B40768C268D0E9C4
:103B400001468FB1C4EB84750020B60002EB8402FD
:103B5000AD00014653191CB143F8041B9342FBD13D
:103B6000013087423244F5D1F0BC7047F0B40768A9
:103B7000C268D0E9014687B1C4EB8475B60002EB98
:103B80008402AD00002053191CB143F8041B93427A
:103B9000FBD1013087423244F5D1F0BC704700BF01
:103BA000F8B5074618200E462BF0BEFB0446B8B108
:103BB00006FB07F003F016F9054648B14368E360D9
:103BC0000123C4E90076C4E90403A6602046F8BDD9
:103BD00007490848082328222C46FEF741FEF5E74E
:103BE0000349054808231E22FEF73AFEEEE700BF10
:103BF000200203085C0203083002030870B5044683
:103C00000E46FFF7CDFF054688B106FB04F6B4006B
:103C1000C068224600212BF097FB46B1EB68221FBB
:103C20001A440021043B43F8041F9342FBD1284669
:103C300070BD00BF2DE9F843DDF82090994525D3EC
:103C4000904602681E4608FB09139A4205460F4635
:103C500012D318202BF068FB0446F8B16968C0F84D
:103C6000008001EB8701C0E90169C0E90315002369
:103C700043612046BDE8F8830C490D4804235B22CC
:103C80000024FEF7EDFD2046BDE8F883074909480A
:103C900004235622FEF7E4FD0024EAE70349064820
:103CA00008236322FEF7DCFDE3E700BF20020308E0
:103CB000AC02030880020308300203082DE9F84330
:103CC0001F460368DDF820900546C819984226D89B
:103CD0006B6890464A449A4217D818200E462BF03B
:103CE00023FB044618B30760AB68C4F80490D5E919
:103CF000031006FB038601EB86060022C4E90236A8
:103D0000C4E904022046BDE8F8830C490C480423AA
:103D100082220024FEF7A4FD2046BDE8F88307496F
:103D2000084804237D22FEF79BFD0024EAE70349AF
:103D3000054808238A22FEF793FDE3E720020308E3
:103D400008030308D80203083002030880B143695E
:103D500010B5044623B92046BDE810402BF0ECBA5C
:103D6000006903F081F82046BDE810402BF0E4BA6A
:103D7000704700BFF0B40668C768D0E9014C9EB137
:103D80000025043F28465CB107EB85020023C11AD9
:103D9000B1FA81F1013349099C4242F8041FF6D17E
:103DA000013086426544EED1F0BC7047F0B407683C
:103DB000C268D0E901468FB1C4EB84750020B6001B
:103DC00002EB8402AD00014653191CB143F8041BF9
:103DD0009342FBD1013087423244F5D1F0BC7047A9
:103DE000F0B40768C268D0E9014687B1C4EB8475B6
:103DF000B60002EB8402AD00002053191CB143F859
:103E0000041B9342FBD1013087423244F5D1F0BC10
:103E1000704700BFF8B5074618200E462BF084FA0D
:103E20000446B8B106FB07F003F02AF8054648B18E
:103E30004368E3600123C4E90076C4E90403A66093
:103E40002046F8BD07490848082328222C46FEF7DB
:103E500007FDF5E70349054808231E22FEF700FD8C
:103E6000EEE700BF200203085C02030830020308EB
:103E700070B504460E46FFF7CDFF054688B106FB38
:103E800004F6B400C068224600212BF05DFA46B16A
:103E9000EB68221F1A440021043B43F8041F93429D
:103EA000FBD1284670BD00BF2DE9F843DDF8209016
:103EB000994525D3904602681E4608FB09139A428D
:103EC00005460F4612D318202BF02EFA0446F8B1FF
:103ED0006968C0F8008001EB8701C0E90169C0E9A9
:103EE0000315002343612046BDE8F8830C490D48C3
:103EF00004235B220024FEF7B3FC2046BDE8F883D0
:103F00000749094804235622FEF7AAFC0024EAE7E1
:103F10000349064808236322FEF7A2FCE3E700BF3B
:103F200020020308AC0203088002030830020308E1
:103F30002DE9F8431F460368DDF820900546C819AF
:103F4000984226D86B6890464A449A4217D818205F
:103F50000E462BF0E9F9044618B30760AB68C4F8C5
:103F60000490D5E9031006FB038601EB86060022C8
:103F7000C4E90236C4E904022046BDE8F8830C49CE
:103F80000C48042382220024FEF76AFC2046BDE888
:103F9000F8830749084804237D22FEF761FC0024CA
:103FA000EAE70349054808238A22FEF759FCE3E7BC
:103FB0002002030808030308D8020308300203089C
:103FC00080B1436910B5044623B92046BDE81040CE
:103FD0002BF0B2B9006902F095FF2046BDE8104011
:103FE0002BF0AAB9704700BFF0B40668C768D0E9E3
:103FF000014C9EB10025043F28465CB107EB8502C9
:104000000023C11AB1FA81F1013349099C4242F8F7
:10401000041FF6D1013086426544EED1F0BC7047F2
:10402000F0B40768C268D0E901468FB1C4EB84756B
:104030000020B60002EB8402AD00014653191CB10A
:1040400043F8041B9342FBD1013087423244F5D13F
:10405000F0BC7047F0B40768C268D0E9014687B188
:10406000C4EB8475B60002EB8402AD000020531946
:104070001CB143F8041B9342FBD101308742324408
:10408000F5D1F0BC704700BFF8B5074618200E46C2
:104090002BF04AF90446B8B106FB07F002F03EFFE8
:1040A000054648B14368E3600123C4E90076C4E9EA
:1040B0000403A6602046F8BD0749084808232822C3
:1040C0002C46FEF7CDFBF5E70349054808231E22E1
:1040D000FEF7C6FBEEE700BF200203085C02030800
:1040E0003002030870B504460E46FFF7CDFF0546C3
:1040F00088B106FB04F6B400C068224600212BF00C
:1041000023F946B1EB68221F1A440021043B43F80F
:10411000041F9342FBD1284670BD00BF2DE9F84330
:10412000DDF82090994525D3904602681E4608FB8D
:1041300009139A4205460F4612D318202BF0F4F8C3
:104140000446F8B16968C0F8008001EB8701C0E956
:104150000169C0E90315002343612046BDE8F883E7
:104160000C490D4804235B220024FEF779FB20460E
:10417000BDE8F8830749094804235622FEF770FB7F
:104180000024EAE70349064808236322FEF768FB98
:10419000E3E700BF20020308AC0203088002030823
:1041A000300203082DE9F8431F460368DDF820902C
:1041B0000546C819984226D86B6890464A449A42E8
:1041C00017D818200E462BF0AFF8044618B3076036
:1041D000AB68C4F80490D5E9031006FB038601EB35
:1041E00086060022C4E90236C4E904022046BDE87E
:1041F000F8830C490C48042382220024FEF730FB8C
:104200002046BDE8F8830749084804237D22FEF7CD
:1042100027FB0024EAE70349054808238A22FEF722
:104220001FFBE3E72002030808030308D802030882
:104230003002030880B1436910B5044623B9204613
:10424000BDE810402BF078B8006902F0A9FE2046C6
:10425000BDE810402BF070B8704700BFF0B406689E
:10426000C768D0E9014C9EB10025043F28465CB1E7
:1042700007EB85020023C11AB1FA81F10133490924
:104280009C4242F8041FF6D1013086426544EED1CB
:10429000F0BC7047F0B40768C268D0E901468FB13E
:1042A000C4EB84750020B60002EB8402AD00014629
:1042B00053191CB143F8041B9342FBD101308742D0
:1042C0003244F5D1F0BC7047F0B40768C268D0E959
:1042D000014687B1C4EB8475B60002EB8402AD00E1
:1042E000002053191CB143F8041B9342FBD1013049
:1042F00087423244F5D1F0BC704700BFF8B507469D
:1043000018200E462BF010F80446B8B106FB07F053
:1043100002F052FE054648B14368E3600123C4E958
:104320000076C4E90403A6602046F8BD07490848A2
:10433000082328222C46FEF793FAF5E7034905489F
:1043400008231E22FEF78CFAEEE700BF20020308C6
:104350005C0203083002030870B504460E46FFF7FE
:10436000CDFF054688B106FB04F67400C0682246FE
:1043700000212AF0E9FF46B1EB68A21E1A44002191
:10438000023B23F8021F9342FBD1284670BD00BFB9
:104390002DE9F843DDF82090994525D39046026831
:1043A0001E4608FB09139A4205460F4612D31820F1
:1043B0002AF0BAFF0446F8B16968C0F8008001EB42
:1043C0004701C0E90169C0E90315002343612046A4
:1043D000BDE8F8830C490D4804235B220024FEF756
:1043E0003FFA2046BDE8F8830749094804235622CE
:1043F000FEF736FA0024EAE7034906480823632259
:10440000FEF72EFAE3E700BF20020308AC02030820
:1044100080020308300203082DE9F8431F460368B1
:10442000DDF820900546C819984226D86B6890465A
:104430004A449A4217D818200E462AF075FF0446BF
:1044400018B30760AB68C4F80490D5E9031006FB05
:10445000038601EB46060022C4E90236C4E90402E1
:104460002046BDE8F8830C490C480423822200242E
:10447000FEF7F6F92046BDE8F8830749084804230B
:104480007D22FEF7EDF90024EAE7034905480823F9
:104490008A22FEF7E5F9E3E7200203080803030890
:1044A000D80203083002030880B1436910B50446FE
:1044B00023B92046BDE810402AF03EBF006902F053
:1044C000BDFD2046BDE810402AF036BF704700BF52
:1044D000F0B40668C768D0E9014C9EB10025023FE0
:1044E00028465CB107EB45020023C11AB1FA81F1FD
:1044F000013349099C4222F8021FF6D1013086425D
:104500006544EED1F0BC7047F0B40768C268D0E9EA
:1045100001468FB1C4EBC4750020760002EB440263
:104520006D00014653191CB123F8021B9342FBD1C5
:10453000013087423244F5D1F0BC7047F0B40768CF
:10454000C268D0E9014687B1C4EBC475760002EBBE
:1045500044026D00002053191CB123F8021B934242
:10456000FBD1013087423244F5D1F0BC704700BF27
:10457000F8B5074618200E462AF0D6FE0446B8B114
:1045800006FB07F002F066FD054648B14368E360AC
:104590000123C4E90076C4E90403A6602046F8BDFF
:1045A00007490848082328222C46FEF759F9F5E761
:1045B0000349054808231E22FEF752F9EEE700BF23
:1045C000200203085C0203083002030870B50446A9
:1045D0000E46FFF7CDFF054688B106FB04F67400D2
:1045E000C068224600212AF0AFFE46B1EB68A21E49
:1045F0001A440021023B23F8021F9342FBD12846B4
:1046000070BD00BF2DE9F843DDF82090994525D312
:10461000904602681E4608FB09139A4205460F465B
:1046200012D318202AF080FE0446F8B16968C0F859
:10463000008001EB4701C0E90169C0E903150023CF
:1046400043612046BDE8F8830C490D4804235B22F2
:104650000024FEF705F92046BDE8F883074909481C
:1046600004235622FEF7FCF80024EAE70349064833
:1046700008236322FEF7F4F8E3E700BF20020308F3
:10468000AC02030880020308300203082DE9F84356
:104690001F460368DDF820900546C819984226D8C1
:1046A0006B6890464A449A4217D818200E462AF062
:1046B0003BFE044618B30760AB68C4F80490D5E924
:1046C000031006FB038601EB46060022C4E902360E
:1046D000C4E904022046BDE8F8830C490C480423D1
:1046E00082220024FEF7BCF82046BDE8F883074983
:1046F000084804237D22FEF7B3F80024EAE70349C3
:10470000054808238A22FEF7ABF8E3E720020308F6
:1047100008030308D80203083002030880B1436984
:1047200010B5044623B92046BDE810402AF004BE67
:10473000006902F0D1FC2046BDE810402AF0FCBD23
:10474000704700BFF0B40668C768D0E9014C9EB15D
:104750000025023F28465CB107EB45020023C11A41
:10476000B1FA81F1013349099C4222F8021FF6D1C6
:10477000013086426544EED1F0BC7047F0B4076862
:10478000C268D0E901468FB1C4EBC4750020760041
:1047900002EB44026D00014653191CB123F8021BC1
:1047A0009342FBD1013087423244F5D1F0BC7047CF
:1047B000F0B40768C268D0E9014687B1C4EBC4759C
:1047C000760002EB44026D00002053191CB123F85F
:1047D000021B9342FBD1013087423244F5D1F0BC39
:1047E000704700BFF8B5074618200E462AF09CFD1A
:1047F0000446B8B106FB07F002F07AFC054648B162
:104800004368E3600123C4E90076C4E90403A660B9
:104810002046F8BD07490848082328222C46FEF701
:104820001FF8F5E70349054808231E22FEF718F88C
:10483000EEE700BF200203085C0203083002030811
:1048400070B506460C46FFF7CDFF054670B104FB78
:1048500006F4C068224600212AF076FD34B1002318
:104860001A46E968CA5401339C42FAD1284670BD01
:104870002DE9F843DDF82090994524D3904602684D
:104880001E4608FB09139A4205460F4611D318200D
:104890002AF04AFD0446F0B16968C0F80080394446
:1048A000C0E90169C0E90315002343612046BDE862
:1048B000F8830C490C4804235B220024FDF7D0FF49
:1048C0002046BDE8F8830749084804235622FDF72F
:1048D000C7FF0024EAE70349054808236322FDF7E0
:1048E000BFFFE3E720020308AC02030880020308CD
:1048F000300203082DE9F8431F460368DDF82090D5
:104900000546C819984225D86B6890464A449A4291
:1049100016D818200E462AF007FD044610B307608B
:10492000AB68C4F80490D5E9031006FB03860E4477
:104930000022C4E90236C4E904022046BDE8F88337
:104940000C490D48042382220024FDF789FF2046EC
:10495000BDE8F8830749094804237D22FDF780FF5D
:104960000024EAE70349064808238A22FDF778FF76
:10497000E3E700BF2002030808030308D802030886
:104980003002030880B1436910B5044623B92046BC
:10499000BDE810402AF0D0BC006902F0E9FB2046D7
:1049A000BDE810402AF0C8BC704700BFF0B50768EA
:1049B000D0F80CE0D0E901C5D7B100263146CEF1E0
:1049C00000040EEB0C000EEB0603BCF1000F08D048
:1049D0001A19521AB2FA82F2520903F8012B8342D1
:1049E000F6D101318F42A4EB05042E442844EAD1CC
:1049F000F0BD00BFF0B40668D0F80CC0D0E9017576
:104A000086B10020044601460CEB07020CEB0003C4
:104A10001FB103F8011B9342FBD10134A642284485
:104A20002A44F3D1F0BC7047F0B40668D0F80CC04B
:104A3000D0E901757EB1002420460CEB07020CEB97
:104A400004031FB103F8011B9342FBD101308642DE
:104A50002C442A44F3D1F0BC704700BFF8B5074698
:104A600018200E462AF060FC0446B8B106FB07F099
:104A700002F08AFB054648B14368E3600123C4E9BC
:104A80000076C4E90403A6602046F8BD074908483B
:104A9000082328222C46FDF7E3FEF5E703490548E5
:104AA00008231E22FDF7DCFEEEE700BF200203080C
:104AB0005C0203083002030870B506460C46FFF797
:104AC000CDFF054670B104FB06F4C0682246002104
:104AD0002AF03AFC34B100231A46E968CA5401337B
:104AE0009C42FAD1284670BD2DE9F843DDF82090AC
:104AF000994524D3904602681E4608FB09139A4242
:104B000005460F4611D318202AF00EFC0446F0B1DA
:104B10006968C0F800803944C0E90169C0E903153B
:104B2000002343612046BDE8F8830C490C48042368
:104B30005B220024FDF794FE2046BDE8F883074978
:104B4000084804235622FDF78BFE0024EAE70349B8
:104B5000054808236322FDF783FEE3E720020308EC
:104B6000AC02030880020308300203082DE9F84371
:104B70001F460368DDF820900546C819984225D8DD
:104B80006B6890464A449A4216D818200E462AF07E
:104B9000CBFB044610B30760AB68C4F80490D5E9BA
:104BA000031006FB03860E440022C4E90236C4E962
:104BB00004022046BDE8F8830C490D4804238222F4
:104BC0000024FDF74DFE2046BDE8F883074909485B
:104BD00004237D22FDF744FE0024EAE7034906484A
:104BE00008238A22FDF73CFEE3E700BF200203080A
:104BF00008030308D80203083002030880B14369A0
:104C000010B5044623B92046BDE810402AF094BBF5
:104C1000006902F0F9FA2046BDE810402AF08CBB8A
:104C2000704700BFF0B50768D0F80CE0D0E901C5C7
:104C3000D7B100263146CEF100040EEB0C000EEB8E
:104C40000603BCF1000F08D01A19521AB2FA82F208
:104C5000520903F8012B8342F6D101318F42A4EBB4
:104C600005042E442844EAD1F0BD00BFF0B4066824
:104C7000D0F80CC0D0E9017586B100200446014689
:104C80000CEB07020CEB00031FB103F8011B93426E
:104C9000FBD10134A64228442A44F3D1F0BC70472A
:104CA000F0B40668D0F80CC0D0E901757EB10024DC
:104CB00020460CEB07020CEB04031FB103F8011BA9
:104CC0009342FBD1013086422C442A44F3D1F0BCFC
:104CD000704700BF0000000010B5194B1B6888B07A
:104CE0002BB103688B4212D94368934222D9D0E991
:104CF000024304FB012203EB02110FC908AC04E9D3
:104D00000F009DED040B9DED061B08B010BD0D4975
:104D10000D4804234FF48A72FDF7A2FD0022002300
:104D2000CDE90423CDE906239DED040B9DED061B83
:104D300008B010BD0349054804234FF48C72EBE71B
:104D40000000002038030308600303087C03030805
:104D5000F0B4164B1B6884B08DED000B8DED021B7B
:104D60000C4616462BB103688B4210D94368934218
:104D700016D904ABD0E9027513E90F0007FB0464F0
:104D800005EB041484E80F0004B0F0BC7047084938
:104D90000848042340F2291204B0F0BCFDF760BDBE
:104DA00003490548042340F22D12F5E700000020D6
:104DB00038030308600303087C03030808B5114B9C
:104DC0001B682BB103688B4209D9436893420FD902
:104DD000D0E9023003FB012200EB021008BD0A49B2
:104DE0000A4804234FF49F72FDF73AFD002008BDE6
:104DF0000549074804234FF4A172FDF731FD002057
:104E000008BD00BF0000002038030308600303084A
:104E10007C03030808B5114B1B682BB103688B4258
:104E200009D9436893420FD9D0E9023003FB01222C
:104E300000EB021008BD0A490A48042340F253124D
:104E4000FDF70EFD002008BD05490748042340F288
:104E50005712FDF705FD002008BD00BF000000202F
:104E600038030308600303087C03030810B5194BDB
:104E70001B6888B02BB103688B4212D943689342F8
:104E800022D9D0E9024304FB012203EB02110FC92E
:104E900008AC04E90F009DED040B9DED061B08B066
:104EA00010BD0D490D4804234FF48A72FDF7D8FC5C
:104EB00000220023CDE90423CDE906239DED040B58
:104EC0009DED061B08B010BD0349054804234FF4AF
:104ED0008C72EBE7000000209803030860030308CE
:104EE0007C030308F0B4164B1B6884B08DED000BF7
:104EF0008DED021B0C4616462BB103688B4210D970
:104F00004368934216D904ABD0E9027513E90F0048
:104F100007FB046405EB041484E80F0004B0F0BC44
:104F2000704708490848042340F2291204B0F0BC35
:104F3000FDF796BC03490548042340F22D12F5E71E
:104F40000000002098030308600303087C030308A3
:104F500008B5114B1B682BB103688B4209D9436814
:104F600093420FD9D0E9023003FB012200EB02107B
:104F700008BD0A490A4804234FF49F72FDF770FCEC
:104F8000002008BD0549074804234FF4A172FDF72E
:104F900067FC002008BD00BF000000209803030844
:104FA000600303087C03030808B5114B1B682BB191
:104FB00003688B4209D9436893420FD9D0E9023084
:104FC00003FB012200EB021008BD0A490A48042332
:104FD00040F25312FDF744FC002008BD0549074884
:104FE000042340F25712FDF73BFC002008BD00BF30
:104FF0000000002098030308600303087C030308F3
:1050000010B51A4B1B6884B02BB103688B4212D9C0
:10501000436893421FD9D0E9024304FB012203EB0A
:10502000C20103C904AB03E903009DED020ADDEDF3
:10503000030A04B010BD0E490E4804234FF48A72CF
:10504000FDF70EFC0023029303939DED020ADDEDB4
:10505000030A04B010BD0423054907484FF48C72BD
:10506000FDF7FEFB002302930393DEE70000002020
:10507000BC030308600303087C03030830B4164B29
:105080001C6882B08DED000A0B46CDED010A2CB1F3
:105090000168994210D94168914216D9D0E9025469
:1050A00002A911E9030005FB032204EBC20383E814
:1050B000030002B030BC704708490948042340F29D
:1050C000291202B030BCFDF7CBBB044905480423CC
:1050D00040F22D12F5E700BF00000020BC030308DA
:1050E000600303087C03030808B5114B1B682BB150
:1050F00003688B4209D9436893420FD9D0E9023043
:1051000003FB012200EBC20008BD0A490A48042340
:105110004FF49F72FDF7A4FB002008BD0549074826
:1051200004234FF4A172FDF79BFB002008BD00BFD4
:1051300000000020BC030308600303087C0303088D
:1051400008B5114B1B682BB103688B4209D9436822
:1051500093420FD9D0E9023003FB012200EBC200D9
:1051600008BD0A490A48042340F25312FDF778FBB0
:10517000002008BD05490748042340F25712FDF7F7
:105180006FFB002008BD00BF00000020BC03030827
:10519000600303087C030308154B1B6810B52BB193
:1051A00003688B420BD94368934212D9D0E902437A
:1051B00004FB012203EBC20191ED000B10BD0D4970
:1051C0000D4804234FF48B72FDF74AFB9FED060B4D
:1051D00010BD0849094804234FF48D72FDF740FBC8
:1051E0009FED010B10BD00BF00000000000000009B
:1051F00000000020E0030308600303087C030308A9
:10520000114B1B682BB103688B420ED94368934244
:1052100012D910B4D0E9024304FB012203EBC2010E
:1052200081ED000B5DF8044B7047084908480423E2
:105230004FF49572FDF714BB0449064804234FF45C
:105240009772FDF70DBB00BF00000020E0030308CC
:10525000600303087C03030808B5114B1B682BB1DE
:1052600003688B4209D9436893420FD9D0E90230D1
:1052700003FB012200EBC20008BD0A490A480423CF
:105280004FF49F72FDF7ECFA002008BD054907486E
:1052900004234FF4A172FDF7E3FA002008BD00BF1C
:1052A00000000020E0030308600303087C030308F8
:1052B00008B5114B1B682BB103688B4209D94368B1
:1052C00093420FD9D0E9023003FB012200EBC20068
:1052D00008BD0A490A4804234FF4A972FDF7C0FA31
:1052E000002008BD0549074804234FF4AB72FDF7C1
:1052F000B7FA002008BD00BF00000020E00303084B
:10530000600303087C030308154B1B6810B52BB121
:1053100003688B420BD94368934212D9D0E9024308
:1053200004FB012203EBC20191ED000B10BD0D49FE
:105330000D4804234FF48B72FDF792FA9FED060B94
:1053400010BD0849094804234FF48D72FDF788FA0F
:105350009FED010B10BD00BF000000000000000029
:105360000000002000040308600303087C03030816
:10537000114B1B682BB103688B420ED943689342D3
:1053800012D910B4D0E9024304FB012203EBC2019D
:1053900081ED000B5DF8044B704708490848042371
:1053A0004FF49572FDF75CBA0449064804234FF4A4
:1053B0009772FDF755BA00BF0000002000040308F3
:1053C000600303087C03030808B5114B1B682BB16D
:1053D00003688B4209D9436893420FD9D0E9023060
:1053E00003FB012200EBC20008BD0A490A4804235E
:1053F0004FF49F72FDF734FA002008BD05490748B5
:1054000004234FF4A172FDF72BFA002008BD00BF62
:105410000000002000040308600303087C03030865
:1054200008B5114B1B682BB103688B4209D943683F
:1054300093420FD9D0E9023003FB012200EBC200F6
:1054400008BD0A490A4804234FF4A972FDF708FA77
:10545000002008BD0549074804234FF4AB72FDF74F
:10546000FFF9002008BD00BF000000200004030871
:10547000600303087C030308134B1B6810B52BB1B2
:1054800003688B420BD94368934212D9D0E9024397
:1054900004FB012203EB820191ED000A10BD0B49D0
:1054A0000B4804234FF48B72FDF7DAF99FED090ADC
:1054B00010BD0649084804234FF48D72FDF7D0F95A
:1054C0009FED040A10BD00BF000000201C0403086B
:1054D00060030308000000007C030308114B1B68F5
:1054E0002BB103688B420ED94368934212D910B492
:1054F000D0E9024304FB012203EB82015DF8044B77
:1055000081ED000A70470849084804234FF495725A
:10551000FDF7A6B90449064804234FF49772FDF736
:105520009FB900BF000000201C04030860030308AB
:105530007C03030808B5114B1B682BB103688B4231
:1055400009D9436893420FD9D0E9023003FB012205
:1055500000EB820008BD0A490A4804234FF49F72F9
:10556000FDF77EF9002008BD0549074804234FF4E4
:10557000A172FDF775F9002008BD00BF00000020F2
:105580001C040308600303087C03030808B5114BDF
:105590001B682BB103688B4209D9436893420FD92A
:1055A000D0E9023003FB012200EB820008BD0A496A
:1055B0000A4804234FF4A972FDF752F9002008BDF0
:1055C0000549074804234FF4AB72FDF749F9002061
:1055D00008BD00BF000000201C040308600303088E
:1055E0007C030308114B1B6810B52BB103688B4279
:1055F00009D9436893420FD9D0E9024304FB012241
:1056000053F8220010BD0A490A4804234FF48B7254
:10561000FDF726F9002010BD0549074804234FF483
:105620008D72FDF71DF9002010BD00BF00000020A5
:1056300038040308600303087C03030810B4124C09
:1056400024682CB104688C420BD94468944211D967
:10565000D0E9024004FB01225DF8044B40F82230FF
:1056600070470A490A485DF8044B04234FF49572C9
:10567000FDF7F6B8054907485DF8044B04234FF4DD
:105680009772FDF7EDB800BF000000203804030852
:10569000600303087C03030808B5114B1B682BB19A
:1056A00003688B4209D9436893420FD9D0E902308D
:1056B00003FB012200EB820008BD0A490A480423CB
:1056C0004FF49F72FDF7CCF8002008BD054907484C
:1056D00004234FF4A172FDF7C3F8002008BD00BFFA
:1056E0000000002038040308600303087C0303085B
:1056F00008B5114B1B682BB103688B4209D943686D
:1057000093420FD9D0E9023003FB012200EB820063
:1057100008BD0A490A4804234FF4A972FDF7A0F80E
:10572000002008BD0549074804234FF4AB72FDF77C
:1057300097F8002008BD00BF0000002038040308CF
:10574000600303087C030308114B1B6810B52BB1E1
:1057500003688B4209D9436893420FD9D0E90243C9
:1057600004FB012253F8220010BD0A490A48042311
:105770004FF48B72FDF774F8002010BD05490748FF
:1057800004234FF48D72FDF76BF8002010BD00BFAD
:105790000000002054040308600303087C0303088E
:1057A00010B4124C24682CB104688C420BD94468A4
:1057B000944211D9D0E9024004FB01225DF8044B68
:1057C00040F8223070470A490A485DF8044B042328
:1057D0004FF49572FDF744B8054907485DF8044B4E
:1057E00004234FF49772FDF73BB800BF0000002080
:1057F00054040308600303087C03030808B5114B35
:105800001B682BB103688B4209D9436893420FD9B7
:10581000D0E9023003FB012200EB820008BD0A49F7
:105820000A4804234FF49F72FDF71AF8002008BDC0
:105830000549074804234FF4A172FDF711F8002031
:1058400008BD00BF000000205404030860030308E3
:105850007C03030808B5114B1B682BB103688B420E
:1058600009D9436893420FD9D0E9023003FB0122E2
:1058700000EB820008BD0A490A4804234FF4A972CC
:10588000FCF7EEFF002008BD0549074804234FF44C
:10589000AB72FCF7E5FF002008BD00BF0000002050
:1058A00054040308600303087C030308114B1B68BE
:1058B00010B52BB103688B4209D9436893420FD9C5
:1058C000D0E9024304FB012253F8220010BD0A492B
:1058D0000A4804234FF48B72FCF7C2FF002010BD6E
:1058E0000549074804234FF48D72FCF7B9FF0020E7
:1058F00010BD00BF0000002070040308600303080F
:105900007C03030810B4124C24682CB104688C4248
:105910000BD94468944211D9D0E9024004FB01221A
:105920005DF8044B40F8223070470A490A485DF898
:10593000044B04234FF49572FCF792BF05490748C6
:105940005DF8044B04234FF49772FCF789BF00BF46
:105950000000002070040308600303087C030308B0
:1059600008B5114B1B682BB103688B4209D94368FA
:1059700093420FD9D0E9023003FB012200EB8200F1
:1059800008BD0A490A4804234FF49F72FCF768FFD8
:10599000002008BD0549074804234FF4A172FCF715
:1059A0005FFF002008BD00BF000000207004030856
:1059B000600303087C03030808B5114B1B682BB177
:1059C00003688B4209D9436893420FD9D0E902306A
:1059D00003FB012200EB820008BD0A490A480423A8
:1059E0004FF4A972FCF73CFF002008BD05490748A9
:1059F00004234FF4AB72FCF733FF002008BD00BF57
:105A00000000002070040308600303087C030308FF
:105A1000114B1B6810B52BB103688B4209D9436841
:105A200093420FD9D0E9024304FB012253F822002C
:105A300010BD0A490A4804234FF48B72FCF710FF8B
:105A4000002010BD0549074804234FF48D72FCF770
:105A500007FF002010BD00BF000000208C040308D9
:105A6000600303087C03030810B4124C24682CB1B3
:105A700004688C420BD94468944211D9D0E90240A1
:105A800004FB01225DF8044B40F8223070470A49BC
:105A90000A485DF8044B04234FF49572FCF7E0BE0E
:105AA000054907485DF8044B04234FF49772FCF74F
:105AB000D7BE00BF000000208C0403086003030869
:105AC0007C03030808B5114B1B682BB103688B429C
:105AD00009D9436893420FD9D0E9023003FB012270
