:020000040800F2
:1000000000800120ED300008E52E0008F52E0008E4
:10001000FB2E0008012F0008072F00080000000039
:100020000000000000000000000000000D2F00088C
:100030001B2F000800000000292F0008372F0008A0
:100040003D3100083D3100083D3100083D310008D8
:100050003D3100083D3100083D3100083D310008C8
:100060003D3100083D3100083D3100083D310008B8
:100070003D3100083D3100083D3100083D310008A8
:100080003D3100083D3100083D310008000000000E
:100090000000000000000000000000003D310008EA
:1000A0003D3100083D3100083D3100083D31000878
:1000B0003D3100083D3100083D3100083D31000868
:1000C0003D3100083D3100083D3100083D31000858
:1000D0003D310008452F00083D31000800000000B8
:1000E0003D3100083D3100083D31000800000000AE
:1000F0000000000000000000000000003D3100088A
:10010000000000003D3100083D3100083D3100088D
:1001100000000000000000000000000000000000DF
:10012000812F00083D310008592F0008952F000845
:100130003D31000800000000000000000000000049
:100140000000000000000000000000003D31000839
:100150003D3100083D3100086D2F00083D31000899
:100160003D3100083D3100080000000000000000A3
:10017000000000000000000000000000000000007F
:10018000000000003D3100080000000000000000F9
:040190003D310008F5
:1001940010B5054C237833B9044B13B10448AFF3BD
:1001A40000800123237010BD2C00002000000000FB
:1001B400F86F000808B5034B1BB103490348AFF3BC
:1001C400008008BD0000000030000020F86F000827
:1001D40081F0004102E000BF83F0004330B54FEAF4
:1001E40041044FEA430594EA050F08BF90EA020F61
:1001F4001FBF54EA000C55EA020C7FEA645C7FEAF4
:10020400655C00F0E2804FEA5454D4EB5555B8BF16
:100214006D420CDD2C4480EA020281EA030382EA87
:10022400000083EA010180EA020281EA0303362D19
:1002340088BF30BD11F0004F4FEA01314FF4801CEC
:100244004CEA113102D0404261EB410113F0004FFE
:100254004FEA03334CEA133302D0524263EB4303B5
:1002640094EA050F00F0A780A4F10104D5F1200E53
:100274000DDB02FA0EFC22FA05F2801841F10001AE
:1002840003FA0EF2801843FA05F359410EE0A5F182
:1002940020050EF1200E012A03FA0EFC28BF4CF0B3
:1002A400020C43FA05F3C01851EBE37101F0004569
:1002B40007D54FF0000EDCF1000C7EEB00006EEB76
:1002C4000101B1F5801F1BD3B1F5001F0CD3490800
:1002D4005FEA30004FEA3C0C04F101044FEA445257
:1002E40012F5800F80F09A80BCF1004F08BF5FEADE
:1002F400500C50F1000041EB045141EA050130BDBE
:100304005FEA4C0C404141EB010111F4801FA4F160
:100314000104E9D191F0000F04BF01460020B1FAB5
:1003240081F308BF2033A3F10B03B3F120020CDAED
:100334000C3208DD02F1140CC2F10C0201FA0CF0CB
:1003440021FA02F10CE002F11402D8BFC2F1200C30
:1003540001FA02F120FA0CFCDCBF41EA0C019040E6
:10036400E41AA2BF01EB0451294330BD6FEA04042F
:100374001F3C1CDA0C340EDC04F11404C4F120021A
:1003840020FA04F001FA02F340EA030021FA04F32C
:1003940045EA030130BDC4F10C04C4F1200220FA83
:1003A40002F001FA04F340EA0300294630BD21FAC1
:1003B40004F0294630BD94F0000F83F4801306BF87
:1003C40081F480110134013D4EE77FEA645C18BF7B
:1003D4007FEA655C29D094EA050F08BF90EA020F12
:1003E40005D054EA000C04BF1946104630BD91EA0A
:1003F400030F1EBF0021002030BD5FEA545C05D10D
:100404004000494128BF41F0004130BD14F580044B
:100414003CBF01F5801130BD01F0004545F0FE41BF
:1004240041F470014FF0000030BD7FEA645C1ABFF4
:10043400194610467FEA655C1CBF0B46024650EA2B
:10044400013406BF52EA033591EA030F41F4002157
:1004540030BD00BF90F0000F04BF0021704730B5DD
:100464004FF4806404F132044FF000054FF00001B2
:1004740050E700BF90F0000F04BF0021704730B573
:100484004FF4806404F1320410F0004548BF404248
:100494004FF000013EE700BF42004FEAE2014FEA9D
:1004A40031014FEA02701FBF12F07F4393F07F4F78
:1004B40081F06051704732F07F4208BF704793F07B
:1004C4007F4F04BF41F40021704730B54FF460748E
:1004D40001F0004521F000411CE700BF50EA010291
:1004E40008BF704730B54FF000050AE050EA01023A
:1004F40008BF704730B511F0004502D5404261EBAA
:1005040041014FF4806404F132045FEA915C3FF4EA
:10051400D8AE4FF003025FEADC0C18BF03325FEA87
:10052400DC0C18BF033202EBDC02C2F1200300FA38
:1005340003FC20FA02F001FA03FE40EA0E0021FA5D
:1005440002F11444BDE600BF70B54FF0FF0C4CF44B
:10055400E06C1CEA11541DBF1CEA135594EA0C0FFD
:1005640095EA0C0F00F0DEF82C4481EA030621EA38
:100574004C5123EA4C5350EA013518BF52EA033573
:1005840041F4801143F4801338D0A0FB02CE4FF025
:100594000005E1FB02E506F00042E0FB03E54FF055
:1005A4000006E1FB03569CF0000F18BF4EF0010E4D
:1005B400A4F1FF04B6F5007F64F5407404D25FEA49
:1005C4004E0E6D4146EB060642EAC62141EA5551FC
:1005D4004FEAC52040EA5E504FEACE2EB4F1FD0C3E
:1005E40088BFBCF5E06F1ED8BEF1004F08BF5FEABC
:1005F400500E50F1000041EB045170BD06F000466E
:1006040046EA010140EA020081EA0301B4EB5C041A
:10061400C2BFD4EB0C0541EA045170BD41F4801112
:100624004FF0000E013C00F3AB8014F1360FDEBF37
:10063400002001F0004170BDC4F10004203C35DA13
:100644000C341BDC04F11404C4F1200500FA05F396
:1006540020FA04F001FA05F240EA020001F0004237
:1006640021F0004110EBD37021FA04F642EB0601AD
:100674005EEA430E08BF20EAD37070BDC4F10C04D7
:10068400C4F1200500FA04F320FA05F001FA04F29B
:1006940040EA020001F0004110EBD37041F1000187
:1006A4005EEA430E08BF20EAD37070BDC4F1200592
:1006B40000FA05F24EEA020E20FA04F301FA05F2FA
:1006C40043EA020321FA04F001F0004121FA04F2A2
:1006D40020EA020000EBD3705EEA430E08BF20EA72
:1006E400D37070BD94F0000F0FD101F000464000AC
:1006F40041EB010111F4801F08BF013CF7D041EA2E
:10070400060195F0000F18BF704703F00046520031
:1007140043EB030313F4801F08BF013DF7D043EA02
:100724000603704794EA0C0F0CEA135518BF95EAB8
:100734000C0F0CD050EA410618BF52EA4306D1D13F
:1007440081EA030101F000414FF0000070BD50EA5E
:10075400410606BF1046194652EA430619D094EAE8
:100764000C0F02D150EA013613D195EA0C0F05D1D2
:1007740052EA03361CBF104619460AD181EA030126
:1007840001F0004141F0FE4141F470014FF00000DE
:1007940070BD41F0FE4141F4780170BD70B54FF079
:1007A400FF0C4CF4E06C1CEA11541DBF1CEA1355F9
:1007B40094EA0C0F95EA0C0F00F0A7F8A4EB0504DB
:1007C40081EA030E52EA03354FEA013100F08880D2
:1007D4004FEA03334FF0805545EA131343EA12639B
:1007E4004FEA022245EA111545EA10654FEA002650
:1007F4000EF000419D4208BF964244F1FD0404F509
:10080400407402D25B084FEA3202B61A65EB030564
:100814005B084FEA32024FF480104FF4002CB6EB21
:10082400020E75EB030E22BFB61A754640EA0C00A1
:100834005B084FEA3202B6EB020E75EB030E22BFE1
:10084400B61A754640EA5C005B084FEA3202B6EB22
:10085400020E75EB030E22BFB61A754640EA9C00E1
:100864005B084FEA3202B6EB020E75EB030E22BFB1
:10087400B61A754640EADC0055EA060E18D04FEA6F
:10088400051545EA16754FEA06164FEAC30343EA0F
:1008940052734FEAC2025FEA1C1CC0D111F4801FDC
:1008A4000BD141EA00014FF000004FF0004CB6E7D5
:1008B40011F4801F04BF01430020B4F1FD0C88BF74
:1008C400BCF5E06F3FF6AFAEB5EB030C04BFB6EB7F
:1008D400020C5FEA500C50F1000041EB045170BD72
:1008E4000EF0004E4EEA113114EB5C04C2BFD4EB9F
:1008F4000C0541EA045170BD41F480114FF0000E23
:10090400013C90E645EA060E8DE60CEA135594EA9E
:100914000C0F08BF95EA0C0F3FF43BAF94EA0C0FA1
:100924000AD150EA01347FF434AF95EA0C0F7FF416
:1009340025AF104619462CE795EA0C0F06D152EA6A
:1009440003353FF4FDAE1046194622E750EA41064E
:1009540018BF52EA43067FF4C5AE50EA41047FF45F
:100964000DAF52EA43057FF4EBAE12E74FEA4102C2
:10097400B2F1E04324BFB3F5001CDCF1FE5C0DD9F9
:1009840001F0004C4FEAC0024CEA5070B2F1004F43
:1009940040EB830008BF20F00100704711F0804F46
:1009A40021D113F13872BCBF01F00040704741F40B
:1009B40080114FEA5252C2F11802C2F1200C10FA0F
:1009C4000CF320FA02F018BF40F001004FEAC123F3
:1009D4004FEAD32303FA0CFC40EA0C0023FA02F397
:1009E4004FEA4303CCE77FEA625307D150EA01336D
:1009F4001EBF4FF0FE4040F44000704701F000403D
:100A040040F0FE4040F40000704700BF53B94AB9BB
:100A1400002908BF00281CBF4FF0FF314FF0FF3002
:100A240000F072B9ADF1080C6DE904CE00F006F8DF
:100A3400DDF804E0DDE9022304B070472DE9F04756
:100A4400089E04468846002B4BD18A42154667D936
:100A5400B2FA82F24AB1C2F1200701FA02F320FA93
:100A640007F7954047EA030894404FEA154E230CD4
:100A7400B8FBFEF71FFA85FC0EFB178843EA084310
:100A840007FB0CF1994209D9EB1807F1FF3080F00C
:100A94001B81994240F21881023F2B445B1AA4B295
:100AA400B3FBFEF00EFB103344EA034400FB0CFCE2
:100AB400A44509D92C1900F1FF3380F00781A4451E
:100AC40040F2048102382C4440EA0740A4EB0C04B1
:100AD40000271EB1D4400023C6E900433946BDE8CF
:100AE400F0878B4209D9002E00F0EB800027C6E97D
:100AF400000138463946BDE8F087B3FA83F7002F82
:100B040047D18B4202D3824200F2FA80841A61EB0D
:100B1400030301209846002EE0D0C6E90048DDE733
:100B240002B9FFDEB2FA82F2002A40F08F80491B3C
:100B34004FEA154E1FFA85F80127B1FBFEFC230C82
:100B44000EFB1C1143EA014308FB0CF1994207D93F
:100B5400EB180CF1FF3002D2994200F2CD808446AA
:100B6400591AA3B2B1FBFEF00EFB101443EA04447D
:100B740008FB00F8A04507D92C1900F1FF3302D275
:100B8400A04500F2B6801846A4EB080440EA0C40E5
:100B94009FE7C7F1200CBB4022FA0CFE4EEA030E7D
:100BA40001FA07F420FA0CF521FA0CF34FEA1E4877
:100BB4002543B3FBF8F92C0C08FB19331FFA8EFA02
:100BC40044EA034309FB0AF49C4202FA07F200FADE
:100BD40007F10BD91EEB030309F1FF3080F0878086
:100BE4009C4240F28480A9F1020973441B1BADB2FC
:100BF400B3FBF8F008FB103345EA034400FB0AFAA0
:100C0400A24508D91EEB040400F1FF336BD2A245C0
:100C140069D90238744440EA0940A0FB0289A4EB74
:100C24000A044C45C2464B4654D351D0002E69D0D9
:100C3400B1EB0A0564EB030404FA0CFCFD40FC4030
:100C44004CEA0505C6E90054002747E7C2F1200332
:100C540020FA03F7954001FA02F021FA03F34FEA70
:100C6400154E3843010CB3FBFEF71FFA85F80EFB53
:100C7400173341EA034107FB08F38B4204FA02F4F9
:100C840007D9691807F1FF3C2FD28B422DD9023FB7
:100C94002944CB1A81B2B3FBFEF00EFB103341EAB8
:100CA400034100FB08F38B4207D9691800F1FF3CAC
:100CB40017D28B4215D902382944C91A40EA07478A
:100CC4003BE73746304609E70746E7E61846FBE6C2
:100CD4004145ABD2B8EB020A69EB0E020138134668
:100CE400A4E76046E9E7184695E76746D1E78146F9
:100CF4007CE702382C4447E7ACF1020C2B442FE785
:100D0400384608E73746E9E6704700BF80B594B037
:100D140000AF07F1200330220021184606F061F9E4
:100D240007F10C0300221A605A609A60DA601A61B3
:100D34000023BB60294B1B6C284A43F08053136487
:100D4400264B1B6C03F08053BB60BB6800237B60A5
:100D5400234B1B6823F44043214A43F400431360AC
:100D64001F4B1B6803F440437B607B6801233B6299
:100D74004FF480337B620223BB634FF48003FB6335
:100D840008233B644FF4A8737B640423BB640723E8
:100D9400FB6407F12003184603F0BAF80346002B5E
:100DA40001D000F0F1FE0F23FB6002233B6100231E
:100DB4007B614FF48053BB610023FB6107F10C039B
:100DC4000221184603F014FB0346002B01D000F067
:100DD400DBFE00BF5037BD4680BD00BF0038024077
:100DE4000070004080B582B000AF786000BF0C4B4B
:100DF40093F85130DBB2022BF9D00A4B18680A4B36
:100E04001B880122194603F069F8054804F01EF90D
:100E1400064B00221A6000BF0837BD4680BD00BFE4
:100E24005C150020D4130020D8130020700000208B
:100E340090B587B002AFF860B9607A60964B012232
:100E44001A60964B9B7803F01003002B1ED0944B32
:100E540000221A60FB681B68052B03D0FB681B6823
:100E6400013300E00023FA681360FB681B6818462E
:100E740000F0A8FA8B4B1A688B4B19880223009355
:100E84000B468649894801F05FFD66E1844B1B6887
:100E9400002B02D0012B0FD05FE1814B01221A609D
:100EA400804B1A68804B19880D2300930B468049A8
:100EB400804801F049FD50E17D4B1B791B0218B2BB
:100EC4007B4B9B7819B2FB681B681A464FF49663F8
:100ED40003FB02F3BA681344FA6814687A6852F898
:100EE4002420014309B223F81210FB681A687B68B6
:100EF40053F82230622B06DCFB681A687B6853F8CF
:100F04002230013300E00023FA6811687A6842F85D
:100F14002130674B1B7A1B0218B2654B9B7919B2BF
:100F2400FB681B681A464FF4966303FB02F3BA6826
:100F34001344FA6814687A68063452F8242001438A
:100F440009B2643223F81210FB681A687B6806320F
:100F540053F82230622B07DCFB681A687B68063280
:100F640053F82230013300E00023FA6811687A68EC
:100F7400063142F821304E4B1B7B1B0218B24C4BFE
:100F84009B7A19B2FB681B681A464FF4966303FBFD
:100F940002F3BA681344FA6814687A680C3452F895
:100FA4002420014309B2C83223F81210FB681A68DE
:100FB4007B680C3253F82230622B07DCFB681A681A
:100FC4007B680C3253F82230013300E00023FA68C6
:100FD40011687A680C3142F82130354B1B7C1B02B6
:100FE40018B2334B9B7B19B2FB681B681A464FF44B
:100FF400966303FB02F3BA681344FA6814687A68C8
:10100400123452F82420014309B202F5967223F8EF
:101014001210FB681A687B68123253F82230622B74
:1010240007DCFB681A687B68123253F822300133FC
:1010340000E00023FA6811687A68123142F821301E
:101044001B4B1B7D1B0218B2194B9B7C19B2FB680E
:101054001B681A464FF4966303FB02F3BA68134401
:10106400FA6814687A68183452F82420014309B2E3
:1010740002F5C87223F81210FB681A687B681832EC
:1010840053F82230622B17DCFB681A687B6818322D
:1010940053F82230013310E0700000206C0000206F
:1010A40064000020D4130020D81300201000002076
:1010B40048000020000000200023FA6811687A68C4
:1010C400183142F82130274B1B7E1B0218B2254BE6
:1010D4009B7D19B2FB681B681A464FF4966303FBA9
:1010E40002F3BA681344FA6814687A681E3452F832
:1010F4002420014309B202F5FA7223F81210FB68A6
:101104001A687B681E3253F82230622B07DCFB68B6
:101114001A687B681E3253F82230013300E0002342
:10112400FA6811687A681E3142F821300E4B0122A8
:101134001A600E4B00221A600D4B1B6801330C4AD7
:1011440013600C4B1A680C4B1988022300930B464E
:101154000A490B4801F0F8FB00BF00BF1437BD4635
:1011640090BD00BF480000207400002064000020EF
:1011740068000020D4130020D81300206C00002045
:101184001000002080B58AB000AF07F114030022DC
:101194001A605A609A60DA601A6100233B613B4B23
:1011A4001B6B3A4A43F004031363384B1B6B03F085
:1011B40004033B613B690023FB60344B1B6B334AE4
:1011C40043F080031363314B1B6B03F08003FB601C
:1011D400FB680023BB602D4B1B6B2C4A43F00103BF
:1011E40013632A4B1B6B03F00103BB60BB68002332
:1011F4007B60264B1B6B254A43F002031363234B8E
:101204001B6B03F002037B607B684FF480737B618C
:101214000123BB610023FB6100233B6207F114033C
:1012240019461B4802F0C0FC4FF400437B610023C5
:10123400BB610223FB6100233B6207F114031946DF
:10124400134802F0B1FC4EF23C037B610123BB6105
:101254000023FB6100233B6207F1140319460D4888
:1012640002F0A2FC40F681437B610123BB610023B1
:10127400FB6100233B6207F114031946064802F0A0
:1012840093FC00BF2837BD4680BD00BF0038024034
:1012940000000240000402400008024080B584B00F
:1012A40000AF78600023FB6053E0FB684FF4966264
:1012B40002FB03F37A681344C8220021184605F0A0
:1012C40090FEFB684FF4966202FB03F37A681344C2
:1012D400C833C8220021184605F083FEFB684FF48A
:1012E400966202FB03F37A68134403F5C873C822B9
:1012F4000021184605F075FEFB684FF4966202FB68
:1013040003F37A68134403F51673C82200211846C0
:1013140005F067FEFB684FF4966202FB03F37A68FC
:10132400134403F54873C8220021184605F059FEFA
:10133400FB684FF4966202FB03F37A68134403F5E7
:101344007A73C8220021184605F04BFEFB6801336E
:10135400FB60FB68052BA8DD00BF1037BD4680BDD0
:1013640080B582B000AF78607B68182200211846EF
:1013740005F037FE7B68183318220021184605F063
:1013840030FE7B68303318220021184605F029FE10
:101394007B68483318220021184605F022FE7B683A
:1013A400603318220021184605F01BFE7B68783351
:1013B40018220021184605F014FE00BF0837BD4668
:1013C40080BD000080B582B000AF78607B68052BDB
:1013D4006BD801A252F823F0F51300081514000885
:1013E40035140008551400087314000891140008FB
:1013F400304B314A1A60314B4FF400421A802D4B66
:1014040018682E4B1B880122194602F067FD4CE038
:10141400284B294A1A60294B4FF480421A80254BE5
:101424001868264B1B880122194602F057FD3CE040
:10143400204B214A1A60214B4FF400521A801D4B55
:1014440018681E4B1B880122194602F047FD2CE048
:10145400184B194A1A60194B08221A80154B186840
:10146400164B1B880122194602F038FD1DE0114B72
:10147400114A1A60114B10221A800E4B18680F4B38
:101484001B880122194602F029FD0EE0094B0A4A85
:101494001A600A4B20221A80064B1868074B1B88D7
:1014A4000122194602F01AFD00BF00BF0837BD46ED
:1014B40080BD00BFD413002000040240D8130020D4
:1014C40080B582B000AF05237B6010E07868FFF739
:1014D40079FF0A4B1A680A4B1B881946104600F01C
:1014E40019F9052001F09CFE7B68013B7B607B6859
:1014F400002BEBDA00BF0837BD4680BDD4130020B3
:10150400D813002080B582B000AF05237B602DE0A6
:101514007868FFF757FF194B1A68194B1B8819464F
:10152400104600F09FF8154B1A68154B1B88194696
:10153400104600F027F8114B1A68114B1B88194606
:10154400104600F03FF90D4B1A680D4B1B881946E5
:10155400104600F085F9094B1A68094B1B88194697
:10156400104600F0C3F97B68013B7B607B68002B6D
:10157400CEDA00BF0837BD4680BD00BFD4130020BB
:10158400D813002080B590B000AF78600B467B8004
:10159400314B1B68BB63002387F834307B8807F129
:1015A400340107F138007A6801F0ECF9002387F878
:1015B40030307A8807F1300107F13803981C13465C
:1015C4007A6801F0DFF9254A07F1240307CA83E8A2
:1015D4000700234A07F1180307CA83E8070007F145
:1015E400100300221A609A8007F1080300221A608F
:1015F4009A800023FB6327E007F12402FB6B5B0066
:1016040013447A887968184601F0E4F907F118025E
:10161400FB6B5B00D01807F10802FB6BD1187B88C9
:101624007A6801F0AFF9FB6B5B0007F140021344E9
:1016340033F81C3CD9B207F11002FB6B13440A4681
:101644001A70FB6B0133FB63FB6B052BD4DD00BF0E
:101654004037BD4680BD00BF1470000818700008F4
:1016640024700008B0B594B000AF78600B467B805E
:10167400264B07F138041D460FCD0FC42B68238079
:10168400234B07F124041D460FCD0FC42B68238080
:1016940007F1180300221A605A601A7207F10C034A
:1016A40000221A605A601A720023FB6427E007F1D3
:1016B4003802FB6C5B0013447A887968184601F0A1
:1016C40089F907F12402FB6C5B00D01807F10C02C6
:1016D400FB6CD1187B887A6801F054F9FB6C5B00D1
:1016E40007F15002134433F8183CD9B207F1180239
:1016F400FB6C13440A461A70FB6C0133FB64FB6CED
:10170400082BD4DD00BF5037BD46B0BD3070000893
:101714004470000880B58AB000AF78600B467B80C7
:10172400264A07F11C0392E8030018600433198069
:10173400234A07F1140392E8030018600433198064
:1017440000233B7400237B740023BB7400233B738E
:1017540000237B730023BB7300237B6227E007F124
:101764001C027B6A5B0013447A887968184601F08E
:1017740031F907F114027B6A5B00D01807F10C02FF
:101784007B6AD1187B887A6801F0FCF87B6A5B007D
:1017940007F12802134433F80C3CD9B207F11002C4
:1017A4007B6A13440A461A707B6A01337B627B6A44
:1017B400022BD4DD00BF2837BD4680BD5870000819
:1017C4006070000880B58AB000AF78600B467B80FB
:1017D400214A07F11C0392E8030083E803001F4A2F
:1017E40007F1140392E8030083E8030000233B613C
:1017F4000023FB6000237B6227E007F11C027B6A65
:101804005B0013447A887968184601F0E3F807F11D
:1018140014027B6A5B00D01807F10C027B6AD118B2
:101824007B887A6801F0AEF87B6A5B0007F12802D6
:10183400134433F80C3CD9B207F110027B6A134409
:101844000A461A707B6A01337B627B6A032BD4DD00
:1018540000BF2837BD4680BD68700008707000085E
:1018640080B588B000AF78600B467B801D4B1B6849
:10187400BB611D4B1B687B6100233B820023BB8142
:101884000023FB6127E007F11802FB695B001344A6
:101894007A887968184601F09DF807F11402FB690B
:1018A4005B00D01807F10C02FB69D1187B887A68B9
:1018B40001F068F8FB695B0007F12002134433F878
:1018C400083CD9B207F11002FB6913440A461A70A6
:1018D400FB690133FB61FB69012BD4DD00BF2037B9
:1018E400BD4680BD787000087C700008B0B594B027
:1018F40000AF78600B467B80264B07F138041D4609
:101904000FCD0FC42B682380234B07F124041D46FD
:101914000FCD0FC42B68238007F1180300221A602F
:101924005A601A7207F10C0300221A605A601A7284
:101934000023FB6427E007F13802FB6C5B001344CF
:101944007A887968184601F045F807F12402FB6C9F
:101954005B00D01807F10C02FB6CD1187B887A6805
:1019640001F010F8FB6C5B0007F15002134433F8EC
:10197400183CD9B207F11802FB6C13440A461A70DA
:10198400FB6C0133FB64FB6C082BD4DD00BF5037C8
:10199400BD46B0BD8070000894700008B0B5ADF5C8
:1019A400665D86B024AF01F0C9FBFFF7AFF9FFF71E
:1019B400E9FB01F061FB01F00BFB01F033FB00F0EC
:1019C400DFFE0021674803F017FE00F04FFF07F524
:1019D400E75303F10803043B1846FFF75FFC07F1E4
:1019E400C803043B1846FFF759FC07F14803143BAE
:1019F4001846FFF7B5FC07F148032C3B1A460023B1
:101A0400136053609360D3601361536107F108035B
:101A1400043B1A460023136053609360D360136140
:101A2400536107F10803083B00221A60FFF748FDE1
:101A3400FFF768FD00F052FF4B4B1A684B4B1988B7
:101A4400022300930B464A494A4800F07DFF0023D5
:101A540007F5645202F1040213600122042146488E
:101A640002F03CFA4FF40041444802F01FFA0346E6
:101A7400002B60D0012BF5D107F5645303F1040367
:101A84001B68002B09D10021364803F083FD012394
:101A940007F5645202F104021360394B1B68002BF2
:101AA4000DD107F14802143A07F5E75101F1080195
:101AB400043907F10803083B1846FFF7B9F9314B1D
:101AC4001B68002B49D02F4B00221A6007F1080332
:101AD400083B1B6807F14804143C07F5E75505F17A
:101AE4000805043D229307F148032C3B21936846E3
:101AF40004F10C038422194605F068FA94E80E00F8
:101B0400284600F045F807F5E75303F10803043BC2
:101B1400184600F0FBF907F10803083B1A6807F1BF
:101B24000803043B53F82230591C07F10803043B13
:101B340043F8221011E007F5645303F104031B6812
:101B4400002B0CD00021074803F056FD002307F5B5
:101B5400645202F10402136001E000BF82E700BF97
:101B640080E700BFDC130020D4130020D81300202A
:101B74006C0000201000002000040240000002401D
:101B8400700000207400002080B400AFFEE7000065
:101B940084B090B486B000AF786007F1240080E888
:101BA4000E0000237B61D7F8B8309B00D7F8B4202F
:101BB40013441B68A04A52F82320D7F8B8304FF4D6
:101BC400966101FB03F379681944D7F8B8309B0098
:101BD40007F1200003445B68013B31F913301846D8
:101BE400D7F8B8309B00D7F8B4100B441B680244F4
:101BF400914941F82320D7F8B8309B00D7F8B42096
:101C040013441B688D4A52F82320D7F8B8304FF498
:101C1400966101FB03F379681944D7F8B8300633A9
:101C24009B0007F1200003445B68013B643331F9F6
:101C340013301846D7F8B8309B00D7F8B4100B44CB
:101C44001B6802447D4941F82320D7F8B8309B0033
:101C5400D7F8B42013441B68794A52F82320D7F8E4
:101C6400B8304FF4966101FB03F379681944D7F84F
:101C7400B8300C339B0007F1200003445B68013B40
:101C8400C83331F913301846D7F8B8309B00D7F869
:101C9400B4100B441B680244694941F82320D7F867
:101CA400B8309B0007F1200213445A68D7F8B830C3
:101CB4009B00D7F8B4100B441B68013A6148D7F86D
:101CC400B810642404FB01F10B4440F82320D7F836
:101CD400B8309B00D7F8B42013441A6801321A6054
:101CE400D7F8B8309B00D7F8B42013441A68564B81
:101CF4001B689A4208DDD7F8B8309B00D7F8B420A7
:101D040013441B68504A136000233B610DE03B6998
:101D14009B00D7F8B42013441B68002B02DD7B69B9
:101D240001337B613B6901333B613B69052BEEDD8C
:101D34007B69062B7AD1404B1B6807EE903AB8EECC
:101D4400E77A424B1B68F1EE086AC7EE267A404AEE
:101D54009B001344C3ED007A384B1B6807EE903A9E
:101D6400B8EEE77A394B1B68F1EE086AC7EE267ABB
:101D7400374A64339B001344C3ED007A304B1B682D
:101D840007EE903AB8EEE77A304B1B68F1EE086A3A
:101D9400C7EE267A2E4AC8339B001344C3ED007A5B
:101DA4002A4B1B68632B03DC284B1B68013300E0C0
:101DB4000023264A13600123FB601DE0FB68013BFE
:101DC4001D49FA6851F822201B4941F82320FB6879
:101DD400013B1A49FA6851F82220184941F8232096
:101DE400FB68013B1649FA6851F82220144941F86E
:101DF4002320FB680133FB60134B1B680133FA6833
:101E04009A42DBDB0023BB600DE0BB68052B07DCDB
:101E1400BB689B00D7F8B42013441A68013A1A60CF
:101E2400BB680133BB60BB68052BEEDD00BF183710
:101E3400BD4690BC04B07047780000200802002022
:101E440098030020280500203C13002038130020AC
:101E5400880E002090B482B000AF02237B6043E080
:101E64007B68023B26497A6892000A441268244936
:101E74009B000B441A607B68023B21497A686432F8
:101E840092000A4412681E4964339B000B441A6092
:101E94007B68023B1A497A68C83292000A44126885
:101EA4001749C8339B000B441A6000233B6015E0BC
:101EB4007B68023B13483A68642101FB02F17A68AB
:101EC4000A4450F822200F483968642404FB01F1C5
:101ED4000B4440F823203B6801333B603B68052BEF
:101EE400E6DD7B6801337B60074B1B6802337A684D
:101EF4009A42B5DB00BF0837BD4690BC704700BFAF
:101F0400880E002028050020381300202DE9B04356
:101F14008CB000AF7860C04B1968C04B83FB0132B2
:101F2400CB17D21A13465B001344CA1A002A40F096
:101F3400B782B94B1B68002B40F3B282B84B1B68C5
:101F44000133B74A13600023FB62BEE0B54B1B6844
:101F5400012B09D1B44AFB6A9B0013441A68B349A4
:101F6400FB6A9B000B441A60AE4B01221A60AF4A15
:101F7400FB6A9B0013441B681846FEF78DFA04465F
:101F84000D46AB4BD3E900014FF00002A94BFEF71D
:101F9400DBFA02460B4690469946A74AFB6A4FF481
:101FA400C87101FB03F3134493ED007AA24AFB6A60
:101FB4004FF4C87101FB03F313440433D3ED007AE7
:101FC40077EE277A17EE900AFEF766FA02460B467A
:101FD40040464946FEF7B8FA02460B4620462946D3
:101FE400FEF7FCF803460C4618462146FEF7BEFCF5
:101FF40001468E4AFB6A03339B00134419608B4AE3
:10200400FB6A9B0013441B681846FEF745FA044616
:102014000D46874BD3E900014FF00002874BFEF7D2
:10202400BDFB02460B4690469946834AFB6A4FF431
:10203400C87101FB03F3134493ED007A7E4AFB6AF3
:102044004FF4C87101FB03F313440433D3ED007A56
:10205400F1EE006A67EEA67A37EE277A764AFB6AD3
:102064004FF4C87101FB03F313440833D3ED007A32
:1020740077EE277A17EE900AFEF70EFA02460B4621
:1020840040464946FEF760FA02460B46204629467A
:10209400FEF7A4F803460C4618462146FEF766FCF4
:1020A4000146624AFB6A06339B00134419605F4A87
:1020B400FB6A06339B0013441A685B49FB6A9B0066
:1020C4000B441A60FB6A0133FB62FB6A022B7FF745
:1020D4003DAF0023BB621DE15449BA6A13465B005D
:1020E40013449B000B44043393ED007A524ABB6AB9
:1020F400C8339B001344D3ED007A27EE277A4B496B
:10210400BA6A13465B0013449B000B440833D3EDB7
:10211400006A494ABB6A64339B001344D3ED007AD6
:1021240066EEA77A77EE677AB6EE007A67EE877A7C
:102134004349BA6A13465B0013449B000B44C3ED46
:10214400007A3A49BA6A13465B0013449B000B4475
:10215400083393ED007A384ABB6A9B001344D3EDED
:10216400007A27EE277A3149BA6A13465B00134492
:102174009B000B44D3ED006A2F4ABB6AC8339B0013
:102184001344D3ED007A66EEA77A77EE677AB6EE5B
:10219400007A67EE877A2A49BA6A13465B001344C9
:1021A4009B000B440433C3ED007A2049BA6A1346FA
:1021B4005B0013449B000B4493ED007A1E4ABB6AF8
:1021C40064339B001344D3ED007A27EE277A174932
:1021D400BA6A13465B0013449B000B440433D3EDEB
:1021E400006A154ABB6A9B001344D3ED007A66EE7D
:1021F400A77A77EE677AB6EE007A67EE877A1049A7
:10220400BA6A13465B0013449B000B440833C3EDC6
:10221400007A00237B6277E0381300205655555529
:10222400C8130020C413002088130020401300208A
:10223400180000200000D03F880E00200000184045
:1022440094130020B149BA6A13465B0013447A6AB6
:1022540013449B000B441B681846FEF71DF9044603
:102264000D46AB4B1B68013B5A00BB6A134418462E
:10227400FEF700F980468946A64BD3E900014FF0EA
:1022840000024FF08043FEF789FA02460B464046AF
:102294004946FEF759F902460B46904699469E492F
:1022A4007B6A642202FB03F2BB6A13449B000B4467
:1022B4001B681846FEF7F0F802460B4640464946AE
:1022C400FEF742F902460B4620462946FDF784FFF5
:1022D40003460C46184621464FF000028F4BFEF78A
:1022E40033F903460C4618462146FEF73FFB8C495A
:1022F400BA6A13465B0013447A6A13449B000B4486
:1023040018607B6A01337B627B6A022B9ADDBB6AAD
:102314000133BB62BB6A022B7FF7DEAE00233B6254
:10232400B3E0804A3B6A9B0013441B681846FEF7DF
:10233400B3F804460D46774BD3E900014FF0000291
:10234400794BFEF72BFA02460B4690469946774A9C
:102354003B6A9B00134493ED007A744A3B6A03334F
:102364009B001344D3ED007AF1EE006A67EEA67A7F
:1023740037EE277A6D4A3B6A06339B001344D3ED4C
:10238400007A77EE277A17EE900AFEF785F8024670
:102394000B4640464946FEF7D7F802460B46204610
:1023A4002946FDF71BFF03460C4618462146FEF757
:1023B400DDFA01465B4A3B6A9B00134419605C4AA0
:1023C4003B6A9B0013441B681846FEF765F80446F5
:1023D4000D46504BD3E900014FF00002524BFEF77B
:1023E400DDF902460B46904699464D4A3B6A9B00EE
:1023F400134493ED007A4A4A3B6A03339B00134427
:10240400D3ED007AF1EE006A67EEA67A37EE277A0A
:10241400434A3B6A06339B001344D3ED007A77EEBC
:10242400277A17EE900AFEF737F802460B46404625
:102434004946FEF789F802460B4620462946FDF731
:10244400CDFE03460C4618462146FEF78FFA014698
:10245400374A3B6A9B00134419602C4A3B6A063393
:102464009B00134493ED007A2E4A3B6A9B0013446D
:10247400D3ED007A77EE277A2E4A3B6A9B00134409
:10248400C3ED007A3B6A01333B623B6A022B7FF760
:1024940048AFFFF7DFFC284B1B68023B264A13605A
:1024A4001B4B1B68B3F5C87F40F03B810023FB61E5
:1024B40025E0204AFB699B0013441A681F49FB6905
:1024C4009B000B441A60FB6903331949FA699200B3
:1024D4000A44126819499B000B441A60FB690633CD
:1024E4000D49FA694FF4C87000FB02F20A441268FD
:1024F40012499B000B441A60FB690133FB61FB69C1
:10250400022BD6DD0023BB6180E000BF4013002016
:10251400C813002018000020880E00200000E03FAF
:1025240064130020B8130020000018409413002006
:1025340080170020FC160020381300200817002004
:10254400BB694FF4966202FB03F37A68134477493C
:10255400BA694FF4C87000FB02F20A44126802F52B
:10256400967233F91210BA6913465B0013440933A7
:1025740007EE901AF8EEE77A6D4A9B001344C3ED18
:10258400007ABB694FF4966202FB03F37A68134442
:102594006649BA694FF4C87000FB02F20A44126833
:1025A40002F5C87233F91210BA6913465B0013447A
:1025B4000A3307EE901AF8EEE77A5D4A9B0013445B
:1025C400C3ED007ABB694FF4966202FB03F37A68A9
:1025D40013445649BA694FF4C87000FB02F20A4426
:1025E400126802F5FA7233F91210BA6913465B00E5
:1025F40013440B3307EE901AF8EEE77A4C4A9B002B
:102604001344C3ED007ABB690133BB61BB69052B7D
:1026140096DD484803F012FE51224549454803F02F
:102624003DFD00237B6112E0434B1A684349134686
:102634005B001344DA0013447A6913443C487A6912
:1026440050F8222041F823207B6901337B617B69A8
:102654001A2BE9DD384B1B68622B08DD364B002250
:102664001A60374B1B680133354A136004E0324B60
:102674001B680133304A136000233B614BE0314A4D
:102684003B699B0013444FF000021A602E4A3B69D9
:102694009B0013444FF000021A602C4A3B699B00D4
:1026A40013444FF000021A60294A3B699B0013440B
:1026B4004FF000021A600023FB6026E02549FA6807
:1026C40013465B0013443A6913449B000B444FF0D8
:1026D40000021A602049FA6813465B0013443A6901
:1026E40013449B000B444FF000021A601B49FA6824
:1026F40013465B0013443A6913449B000B444FF0A8
:1027040000021A60FB680133FB60FB68022BD5DD15
:102714003B6901333B613B69022BB0DD104B002266
:102724001A6000BF3037BD46BDE8B08328050020DD
:10273400081700201C150020CC1300208C17002043
:10274400D013002088130020B81300208017002025
:10275400FC16002040130020941300206413002072
:10276400C813002080B582B000AF7860034803F03E
:1027740001FD00BF0837BD4680BD00BF1C15002009
:1027840080B58EB000AF07F1280300221A605A60AA
:102794009A60DA6007F1200300221A605A603B1D38
:1027A40000221A605A609A60DA601A615A619A616A
:1027B4002C4B2D4A1A602B4B4CF613525A60294B62
:1027C40000229A60274B0122DA60264B00221A610C
:1027D400244B00229A61234802F07CFE0346002B1E
:1027E40001D0FFF7D1F94FF48053BB6207F12803FE
:1027F40019461C4803F012F80346002B01D0FFF7DA
:10280400C3F9184802F091FE0346002B01D0FFF7EC
:10281400BBF900233B6200237B6207F120031946C6
:10282400104803F07FFB0346002B01D0FFF7ACF9FF
:1028340060237B600123BB600023FB6004237B6176
:102844003B1D00221946074802F022FF0346002BD5
:1028540001D0FFF799F9034800F042F900BF383777
:10286400BD4680BDDC1300200008004080B500AFE9
:10287400184B194A1A60174B4FF482725A60154B61
:1028840000229A60134B4FF40062DA60114B02226B
:102894001A61104B01225A610E4B4FF400729A6177
:1028A4000C4B1822DA610B4B00221A62094B0022EE
:1028B4005A62084B00229A62064B0A22DA620548E1
:1028C40001F088FF0346002B01D0FFF75DF900BF3C
:1028D40080BD00BF5C1500200030014080B500AF12
:1028E400174B184A1A60164B4FF482725A60144BF5
:1028F40000229A60124B0022DA60114B02221A6104
:102904000F4B01225A610E4B4FF400729A610C4B2B
:102914001822DA610A4B00221A62094B00225A6219
:10292400074B00229A62064B0A22DA62044801F03D
:1029340051FF0346002B01D0FFF726F900BF80BDED
:102944005C1500200030014080B584B000AFF86011
:10295400B9607A607B800A4802F09AFB7B88002287
:102964001946786801F0BAFABB699BB2BA68F9688B
:10297400034802F069FA00BF1037BD4680BD00BFAE
:102984005C15002080B586B002AFF860B9607A604B
:102994007B807B8800221946786801F09FFA6423C3
:1029A40000930123BA68F968094802F0ABF800BF44
:1029B400074B93F85130DBB2022BF9D07B8801220C
:1029C4001946786801F08AFA00BF1037BD4680BD09
:1029D4005C15002080B584B000AFF860B960134680
:1029E400FB80FB8800221946B86801F077FA64235B
:1029F4000122F968094801F051FF00BF074B93F821
:102A04005130DBB2022BF9D0FB8801221946B86899
:102A140001F064FA00BF1037BD4680BD5C1500208C
:102A240080B582B000AF00237B60104B5B6C0F4A13
:102A340043F4804353640D4B5B6C03F480437B602D
:102A44007B6800233B60094B1B6C084A43F08053AE
:102A54001364064B1B6C03F080533B603B680720F8
:102A640000F0D0FC00BF0837BD4680BD00380240EE
:102A740080B485B000AF78607B681B68154A9342C8
:102A84000ED10023FB60144B1B6C134A43F002036A
:102A94001364114B1B6C03F00203FB60FB6812E030
:102AA4007B681B680D4A93420DD10023BB600A4B1F
:102AB4001B6C094A43F004031364074B1B6C03F0BB
:102AC4000403BB60BB6800BF1437BD465DF8047BDC
:102AD400704700BF00040040003802400008004076
:102AE40080B58AB000AF786007F1140300221A6041
:102AF4005A609A60DA601A617B681B68244A9342C0
:102B04001ED100233B61234B1B6B224A43F0040379
:102B14001363204B1B6B03F004033B613B694023AD
:102B24007B610223BB610023FB6100233B62022320
:102B34007B6207F114031946174801F035F822E0C7
:102B44007B681B68154A93421DD10023FB60114B1F
:102B54001B6B104A43F0020313630E4B1B6B03F011
:102B64000203FB60FB6840237B610223BB610023FB
:102B7400FB6100233B6202237B6207F114031946C5
:102B8400074801F011F800BF2837BD4680BD00BFDB
:102B940000040040003802400008024000080040E1
:102BA4000004024080B58CB000AF786007F11C03CC
:102BB40000221A605A609A60DA601A617B681B68A6
:102BC400664A934240F094800023BB61644B5B6C83
:102BD400634A43F010035364614B5B6C03F01003CE
:102BE400BB61BB6900237B615D4B1B6B5C4A43F09B
:102BF400010313635A4B1B6B03F001037B617B6975
:102C04004FF4C063FB6102233B6200237B62032316
:102C1400BB620723FB6207F11C031946514800F00D
:102C2400C3FF514B514A1A604F4B4FF000625A6038
:102C34004D4B40229A604C4B0022DA604A4B4FF4D1
:102C440080621A61484B00225A61474B00229A6104
:102C5400454B4FF48072DA61434B00221A62424BB7
:102C640000225A62404800F00FFC0346002B01D0BA
:102C7400FEF78AFF7B683C4A1A633B4A7B6893638E
:102C84003B4B3C4A1A603A4B4FF000625A60384B57
:102C940000229A60364B0022DA60354B4FF4806292
:102CA4001A61334B00225A61314B00229A61304B36
:102CB4004FF48072DA612E4B00221A622C4B0022F0
:102CC4005A622B4800F0E0FB0346002B01D0FEF7CC
:102CD4005BFF7B68264A5A63254A7B68936300221C
:102CE4000021252000F099FB252000F0B2FB30E004
:102CF4007B681B68204A93422BD100233B61184B0D
:102D04001B6C174A43F400331364154B1B6C03F418
:102D140000333B613B690023FB60114B1B6B104A82
:102D240043F0010313630E4B1B6B03F00103FB60C1
:102D3400FB680C23FB6102233B6200237B620023BC
:102D4400BB620723FB6207F11C031946054800F028
:102D54002BFF00BF3037BD4680BD00BF00100140CF
:102D640000380240000002405C140020B8640240B5
:102D7400BC140020406402400044004080B58AB086
:102D840000AF786007F1140300221A605A609A6059
:102D9400DA601A617B681B684A4A934240F08E806D
:102DA40000233B61484B5B6C474A43F480535364B4
:102DB400454B5B6C03F480533B613B690023FB6030
:102DC400414B1B6B404A43F0010313633E4B1B6BA7
:102DD40003F00103FB60FB68F0237B610223BB610A
:102DE4000023FB6103233B6205237B6207F1140389
:102DF4001946364800F0D8FE354B364A1A60344B33
:102E04004FF0C0625A60324B00229A60304B00226D
:102E1400DA602F4B4FF480621A612D4B4FF400623D
:102E24005A612B4B4FF400529A61294B0022DA610C
:102E3400274B4FF480321A62254B00225A622448F1
:102E440000F022FB0346002B01D0FEF79DFE7B68B9
:102E54001F4ADA641E4A7B6893631F4B1F4A1A6039
:102E64001D4B4FF0C0625A601B4B40229A601A4BB4
:102E74000022DA60184B4FF480621A61164B4FF44B
:102E840000625A61144B4FF400529A61124B0022B3
:102E9400DA61114B4FF480321A620F4B00225A62EE
:102EA4000D4800F0F1FA0346002B01D0FEF76CFE4A
:102EB4007B68094A9A64084A7B68936300BF283791
:102EC400BD4680BD00300140003802400000024091
:102ED400F415002010640240541600205864024087
:102EE40080B400AF00BF00BFBD465DF8047B7047EF
:102EF40080B400AFFEE780B400AFFEE780B400AF5B
:102F0400FEE780B400AFFEE780B400AF00BFBD466B
:102F14005DF8047B704780B400AF00BFBD465DF828
:102F2400047B704780B400AF00BFBD465DF8047BEE
:102F3400704780B500AF00F053F900BF80BD0000BA
:102F440080B500AF024803F0CBF900BF80BD00BFDD
:102F54001C15002080B500AF024800F0BDFB00BF87
:102F640080BD00BFBC14002080B500AF024800F053
:102F7400B3FB00BF80BD00BF5C14002080B500AF70
:102F8400024800F0A9FB00BF80BD00BFF41500207B
:102F940080B500AF024800F09FFB00BF80BD00BFBA
:102FA4005416002080B400AF084BD3F88830074A89
:102FB40043F47003C2F88830044B4FF000629A6007
:102FC40000BFBD465DF8047B704700BF00ED00E024
:102FD40080B500AF114B124A1A60104B4FF4E13226
:102FE4005A600E4B00229A600C4B0022DA600B4BA5
:102FF40000221A61094B0C225A61084B00229A6183
:10300400064B0022DA61054802F0FAFF0346002B62
:1030140001D0FEF7B9FD00BF80BD00BF1C15002024
:103024000010014080B500AF114B124A1A60104BDA
:103034004FF4E1325A600E4B00229A600C4B00228E
:10304400DA600B4B00221A61094B0C225A61084BBF
:1030540000229A61064B0022DA61054802F0D0FF93
:103064000346002B01D0FEF78FFD00BF80BD00BFDB
:10307400B41500200044004080B582B000AF0023A6
:103084007B60184B1B6B174A43F480031363154B87
:103094001B6B03F480037B607B68002200213A20D1
:1030A40000F0BBF93A2000F0D4F9002200214620B8
:1030B40000F0B3F9462000F0CCF9002200213820BA
:1030C40000F0ABF9382000F0C4F9002200213B20C5
:1030D40000F0A3F93B2000F0BCF900BF0837BD465F
:1030E40080BD00BF00380240DFF834D0002103E087
:1030F4000C4B5B58435004310B480C4B42189A421A
:10310400F6D30B4A02E0002342F8043B094B9A42EF
:10311400F9D3FFF747FF03F035FFFEF73FFC704795
:1031240000800120D8700008000000202C0000203E
:103134002C000020C4410020FEE7000080B500AF51
:103144000E4B1B680D4A43F4007313600B4B1B6852
:103154000A4A43F480631360084B1B68074A43F42C
:1031640080731360032000F04DF9002000F008F88C
:10317400FFF756FC0023184680BD00BF003C024008
:1031840080B582B000AF7860124B1A68124B1B787E
:1031940019464FF47A73B3FBF1F3B2FBF3F3184619
:1031A40000F065F90346002B01D001230EE07B6893
:1031B4000F2B0AD8002279684FF0FF3000F02DF968
:1031C400064A7B681360002300E001231846083791
:1031D400BD4680BD200000202800002024000020DF
:1031E40080B400AF064B1B781A46064B1B68134489
:1031F400044A136000BFBD465DF8047B704700BFFE
:1032040028000020C041002080B400AF034B1B689D
:103214001846BD465DF8047B704700BFC0410020DE
:1032240080B584B000AF7860FFF7EEFFB8607B68CC
:10323400FB60FB68B3F1FF3F05D0094B1B781A46CE
:10324400FB681344FB6000BFFFF7DEFF0246BB6868
:10325400D31AFA689A42F7D800BF1037BD4680BD2A
:103264002800002080B485B000AF78607B6803F04C
:103274000703FB600C4BDB68BB60BA684FF6FF03C7
:103284001340BB60FB681A02BB68134343F0BF637F
:1032940043F40033BB60044ABB68D36000BF1437F7
:1032A400BD465DF8047B704700ED00E080B400AFDC
:1032B400044BDB681B0A03F007031846BD465DF8A0
:1032C400047B704700ED00E080B483B000AF034698
:1032D400FB7197F90730002B0BDBFB7903F01F021E
:1032E400074997F907305B09012000FA02F241F817
:1032F400232000BF0C37BD465DF8047B704700BF38
:1033040000E100E080B483B000AF03463960FB7194
:1033140097F90730002B0ADB3B68DAB20C4997F9BE
:1033240007301201D2B20B4483F800230AE03B6851
:10333400DAB20849FB7903F00F03043B1201D2B25D
:103344000B441A7600BF0C37BD465DF8047B70470A
:1033540000E100E000ED00E080B489B000AFF86067
:10336400B9607A60FB6803F00703FB61FB69C3F192
:103374000703042B28BF0423BB61FB690433062B1A
:1033840002D9FB69033B00E000237B614FF0FF326D
:10339400BB6902FA03F3DA43BB681A407B699A40BB
:1033A4004FF0FF317B6901FA03F3D9437B680B408B
:1033B400134318462437BD465DF8047B704700006C
:1033C40080B582B000AF78607B68013BB3F1807F49
:1033D40001D301230FE00A4A7B68013B53600F21AC
:1033E4004FF0FF30FFF78EFF054B00229A60044B2D
:1033F40007221A60002318460837BD4680BD00BF67
:1034040010E000E080B582B000AF78607868FFF724
:1034140029FF00BF0837BD4680BD80B586B000AF28
:103424000346B9607A60FB7300237B61FFF73EFFBC
:1034340078617A68B9687869FFF78EFF024697F970
:103444000F3011461846FFF75DFF00BF1837BD4621
:1034540080BD80B582B000AF0346FB7197F9073099
:103464001846FFF731FF00BF0837BD4680BD80B561
:1034740082B000AF78607868FFF7A2FF0346184671
:103484000837BD4680BD000080B586B000AF7860C7
:1034940000237B61FFF7B8FE38617B68002B01D104
:1034A400012399E07B68002283F834207B680222A0
:1034B40083F835207B681B681A687B681B6822F0D8
:1034C40001021A600FE0FFF79FFE02463B69D31A20
:1034D400052B08D97B6820225A657B68032283F870
:1034E4003520032378E07B681B681B6803F0010325
:1034F400002BE8D17B681B681B687B617A69384BB9
:1035040013407B617B685A687B689B681A437B68BD
:10351400DB681A437B681B691A437B685B691A433F
:103524007B689B691A437B68DB691A437B681B6A67
:1035340013437A6913437B617B685B6A042B07D16D
:103544007B68DA6A7B681B6B13437A6913437B617C
:103554007B681B687A691A607B681B685B697B619E
:103564007B6923F007037B617B685B6A7A69134399
:103574007B617B685B6A042B17D17B689B6A7A69E1
:1035840013437B617B68DB6A002B0ED0786800F004
:1035940091FA0346002B08D07B6840225A657B6869
:1035A400012283F83520012316E07B681B687A69C1
:1035B4005A61786800F048FA0346FB607B68DB6D6B
:1035C4003F229A40FB689A607B6800225A657B68B8
:1035D400012283F83520002318461837BD4680BDE4
:1035E4003F8010F080B586B000AFF860B9607A60B3
:1035F4003B600023FB75FB689B6D3B61FB6893F8A4
:103604003430012B01D1022340E0FB68012283F80E
:103614003420FB6893F83530DBB2012B2FD1FB68E3
:10362400022283F83520FB6800225A653B687A68D9
:10363400B968F86800F0DAF9FB68DB6D3F229A405C
:103644003B699A60FB681B681A68FB681B6842F058
:1036540016021A60FB681B6C002B07D0FB681B6802
:103664001A68FB681B6842F008021A60FB681B6852
:103674001A68FB681B6842F001021A6005E0FB68E7
:10368400002283F834200223FB75FB7D184618378B
:10369400BD4680BD80B483B000AF78607B6893F88A
:1036A4003530DBB2022B04D07B6880225A650123BB
:1036B4000CE07B68052283F835207B681B681A6858
:1036C4007B681B6822F001021A60002318460C373D
:1036D400BD465DF8047B704780B586B000AF786066
:1036E4000023BB60924B1B68924AA2FB03239B0AF4
:1036F4007B617B689B6D3B613B691B68FB607B68FE
:10370400DB6D08229A40FB681340002B1AD07B68BB
:103714001B681B6803F00403002B13D07B681B6831
:103724001A687B681B6822F004021A607B68DB6DF0
:1037340008229A403B699A607B685B6D43F0010202
:103744007B685A657B68DB6D01229A40FB681340F5
:10375400002B12D07B681B685B6903F08003002B8D
:103764000BD07B68DB6D01229A403B699A607B68D1
:103774005B6D43F002027B685A657B68DB6D042253
:103784009A40FB681340002B12D07B681B681B68AF
:1037940003F00203002B0BD07B68DB6D04229A40FC
:1037A4003B699A607B685B6D43F004027B685A65F1
:1037B4007B68DB6D10229A40FB681340002B43D0DA
:1037C4007B681B681B6803F00803002B3CD07B68F4
:1037D400DB6D10229A403B699A607B681B681B680A
:1037E40003F48023002B18D07B681B681B6803F448
:1037F4000023002B08D17B681B6C002B24D07B6832
:103804001B6C786898471FE07B689B6C002B1BD06F
:103814007B689B6C7868984716E07B681B681B681C
:1038240003F48073002B07D17B681B681A687B68DC
:103834001B6822F008021A607B681B6C002B03D003
:103844007B681B6C786898477B68DB6D20229A4004
:10385400FB681340002B00F08E807B681B681B689C
:1038640003F01003002B00F086807B68DB6D2022C0
:103874009A403B699A607B6893F83530DBB2052B3C
:1038840036D17B681B681A687B681B6822F01602B5
:103894001A607B681B685A697B681B6822F0800287
:1038A4005A617B681B6C002B03D17B689B6C002BDB
:1038B40007D07B681B681A687B681B6822F00802C3
:1038C4001A607B68DB6D3F229A403B699A607B6893
:1038D400002283F834207B68012283F835207B683A
:1038E4001B6D002B7DD07B681B6D7868984778E052
:1038F4007B681B681B6803F48023002B1CD07B6847
:103904001B681B6803F40023002B08D17B685B6CE5
:10391400002B30D07B685B6C786898472BE07B6821
:10392400DB6B002B27D07B68DB6B7868984722E041
:1039340020000020B5814E1B7B681B681B6803F4C4
:103944008073002B0FD17B681B681A687B681B6827
:1039540022F010021A607B68002283F834207B680E
:10396400012283F835207B68DB6B002B03D07B6856
:10397400DB6B786898477B685B6D002B32D07B6883
:103984005B6D03F00103002B22D07B68052283F8D2
:1039940035207B681B681A687B681B6822F001026B
:1039A4001A60BB680133BB607A699A4207D37B68AB
:1039B4001B681B6803F00103002BF2D100E000BF79
:1039C4007B68002283F834207B68012283F8352049
:1039D4007B68DB6C002B05D07B68DB6C78689847D0
:1039E40000E000BF1837BD4680BD00BF80B485B07D
:1039F40000AFF860B9607A603B60FB681B681A68C6
:103A0400FB681B6822F480221A60FB681B683A6812
:103A14005A60FB689B68402B08D1FB681B687A6876
:103A24009A60FB681B68BA68DA6007E0FB681B6889
:103A3400BA689A60FB681B687A68DA6000BF14375A
:103A4400BD465DF8047B704780B485B000AF7860F4
:103A54007B681B68DBB2103B144AA2FB03231B09DF
:103A6400FB60134AFB6813441B781A467B68DA65CB
:103A7400FB68032B09D97B681B6823F47F7323F04D
:103A840003031A1D7B689A6507E07B681B6823F4AF
:103A94007F7323F003037A6893657B689B6D1846F4
:103AA4001437BD465DF8047B704700BFABAAAAAAD1
:103AB400C070000880B485B000AF78600023FB7349
:103AC4007B689B6ABB607B689B69002B1FD1BB68CA
:103AD400032B55D801A252F823F000BFF13A000895
:103AE400033B0008F13A0008853B00087B68DB6A69
:103AF40003F08073002B45D00123FB7342E07B6805
:103B0400DB6AB3F1C07F3FD10123FB733CE07B68E8
:103B14009B69B3F5005F21D1BB68032B36D801A2A2
:103B240052F823F0393B00083F3B0008393B0008BA
:103B3400513B00080123FB732FE07B68DB6A03F031
:103B44008073002B24D00123FB7321E07B68DB6AA4
:103B5400B3F1C07F1ED10123FB731BE0BB68022BB2
:103B640002D9032B03D018E00123FB7315E07B6813
:103B7400DB6A03F08073002B0ED00123FB730BE090
:103B840000BF0AE000BF08E000BF06E000BF04E099
:103B940000BF02E000BF00E000BFFB7B1846143703
:103BA400BD465DF8047B704780B489B000AF78608F
:103BB400396000237B6100233B610023BB61002348
:103BC400FB6159E10122FB6902FA03F37B613B6863
:103BD4001B687A6913403B613A697B699A4240F0F9
:103BE40048813B685B68012B0BD03B685B68022B08
:103BF40007D03B685B68112B03D03B685B68122BD2
:103C040030D17B689B68BB61FB695B00032202FACD
:103C140003F3DB43BA691340BB613B68DA68FB69B1
:103C24005B0002FA03F3BA691343BB617B68BA69A8
:103C34009A607B685B68BB610122FB6902FA03F34B
:103C4400DB43BA691340BB613B685B681B0903F043
:103C54000102FB6902FA03F3BA691343BB617B688F
:103C6400BA695A607B68DB68BB61FB695B0003224D
:103C740002FA03F3DB43BA691340BB613B689A68F9
:103C8400FB695B0002FA03F3BA691343BB617B6807
:103C9400BA69DA603B685B68022B03D03B685B68F7
:103CA400122B23D1FB69DA087B68083253F82230DF
:103CB400BB61FB6903F007039B000F2202FA03F3C5
:103CC400DB43BA691340BB613B681A69FB6903F0C3
:103CD40007039B0002FA03F3BA691343BB61FB6950
:103CE400DA087B680832B96943F822107B681B68DC
:103CF400BB61FB695B00032202FA03F3DB43BA698D
:103D04001340BB613B685B6803F00302FB695B0023
:103D140002FA03F3BA691343BB617B68BA691A6098
:103D24003B685B6803F08053002B00F0A280002303
:103D3400FB60564B5B6C554A43F480435364534BCE
:103D44005B6C03F48043FB60FB68514AFB699B088E
:103D5400023352F82330BB61FB6903F003039B0079
:103D64000F2202FA03F3DB43BA691340BB617B6899
:103D7400484A934219D07B68474A934213D07B68E0
:103D8400464A93420DD07B68454A934207D07B68EC
:103D9400444A934201D1042308E0072306E00323A5
:103DA40004E0022302E0012300E00023FA6902F0A8
:103DB400030292009340BA691343BB613449FB691F
:103DC4009B080233BA6941F82320374B1B68BB6157
:103DD4003B69DB43BA691340BB613B685B6803F42E
:103DE4008033002B03D0BA693B691343BB612E4A6D
:103DF400BB6913602C4B5B68BB613B69DB43BA69ED
:103E04001340BB613B685B6803F40033002B03D0B1
:103E1400BA693B691343BB61234ABB695360224BB4
:103E24009B68BB613B69DB43BA691340BB613B6878
:103E34005B6803F48013002B03D0BA693B69134316
:103E4400BB61194ABB699360174BDB68BB613B6973
:103E5400DB43BA691340BB613B685B6803F400133E
:103E6400002B03D0BA693B691343BB610E4ABB699B
:103E7400D360FB690133FB61FB690F2B7FF6A2AEB4
:103E840000BF2437BD465DF8047B7047003802400C
:103E940000380140000002400004024000080240D3
:103EA400000C024000100240003C014080B485B088
:103EB40000AF78600B467B807B681A697B8813406F
:103EC400002B02D00123FB7301E00023FB73FB7B77
:103ED40018461437BD465DF8047B704780B483B040
:103EE40000AF78600B467B8013467B707B78002B99
:103EF40003D07A887B689A6103E07B881A047B6824
:103F04009A6100BF0C37BD465DF8047B7047000022
:103F140080B586B000AF78607B68002B01D10123A7
:103F24005BE27B681B6803F00103002B75D0A34B95
:103F34009B6803F00C03042B0CD0A04B9B6803F08C
:103F44000C03082B12D19D4B5B6803F48003B3F57B
:103F5400800F0BD1994B1B6803F40033002B5BD00B
:103F64007B685B68002B57D1012336E27B685B6872
:103F7400B3F5803F06D1914B1B68904A43F48033DC
:103F840013601DE07B685B68B3F5A02F0CD18B4BED
:103F94001B688A4A43F480231360884B1B68874A52
:103FA40043F4803313600BE0844B1B68834A23F48F
:103FB40080331360814B1B68804A23F48023136091
:103FC4007B685B68002B13D0FFF71EF9386108E0AB
:103FD400FFF71AF902463B69D31A642B01D903236C
:103FE400FBE1764B1B6803F40033002BF0D014E0A4
:103FF400FFF70AF9386108E0FFF706F902463B6962
:10400400D31A642B01D90323E7E16C4B1B6803F437
:104014000033002BF0D100E000BF7B681B6803F085
:104024000203002B63D0654B9B6803F00C03002B49
:104034000BD0624B9B6803F00C03082B1CD15F4B25
:104044005B6803F48003002B16D15C4B1B6803F000
:104054000203002B05D07B68DB68012B01D0012310
:10406400BBE1564B1B6823F0F8027B681B69DB003D
:10407400524913430B603AE07B68DB68002B20D085
:104084004F4B01221A60FFF7BFF8386108E0FFF7D1
:10409400BBF802463B69D31A022B01D903239CE1E6
:1040A400464B1B6803F00203002BF0D0434B1B6804
:1040B40023F0F8027B681B69DB00404913430B6063
:1040C40015E03F4B00221A60FFF79EF8386108E0C4
:1040D400FFF79AF802463B69D31A022B01D903234E
:1040E4007BE1364B1B6803F00203002BF0D17B68A5
:1040F4001B6803F00803002B30D07B685B69002B3E
:1041040016D0304B01221A60FFF77EF8386108E0C0
:10411400FFF77AF802463B69D31A022B01D903232D
:104124005BE1264B5B6F03F00203002BF0D015E03C
:10413400244B00221A60FFF767F8386108E0FFF7A4
:1041440063F802463B69D31A022B01D9032344E1E5
:104154001A4B5B6F03F00203002BF0D17B681B68E2
:1041640003F00403002B00F0A0800023FB75134B25
:104174001B6C03F08053002B0FD10023BB600F4B4B
:104184001B6C0E4A43F0805313640C4B1B6C03F0FE
:104194008053BB60BB680123FB750B4B1B6803F4A6
:1041A4008073002B21D1084B1B68074A43F48073AA
:1041B4001360FFF729F8386111E000BF00380240AE
:1041C40000004742800E474200700040FFF71CF891
:1041D40002463B69D31A022B01D90323FDE0814B2C
:1041E4001B6803F48073002BF0D07B689B68012B61
:1041F40006D17D4B1B6F7C4A43F0010313671CE01F
:104204007B689B68052B0CD1774B1B6F764A43F078
:1042140004031367744B1B6F734A43F00103136762
:104224000BE0714B1B6F704A23F0010313676E4B55
:104234001B6F6D4A23F0040313677B689B68002B94
:1042440015D0FEF7E1FF38610AE0FEF7DDFF024614
:104254003B69D31A41F28832934201D90323BCE06B
:10426400614B1B6F03F00203002BEED014E0FEF74A
:10427400CBFF38610AE0FEF7C7FF02463B69D31A59
:1042840041F28832934201D90323A6E0564B1B6FB7
:1042940003F00203002BEED1FB7D012B05D1524B21
:1042A4001B6C514A23F0805313647B689B69002B79
:1042B40000F092804C4B9B6803F00C03082B5CD0FD
:1042C4007B689B69022B41D1484B00221A60FEF7A0
:1042D4009BFF386108E0FEF797FF02463B69D31A5B
:1042E400022B01D9032378E03F4B1B6803F00073D2
:1042F400002BF0D17B68DA697B681B6A1A437B6800
:104304005B6A9B011A437B689B6A5B08013B1B0445
:104314001A437B68DB6A1B06334913434B60334BF8
:1043240001221A60FEF770FF386108E0FEF76CFFA7
:1043340002463B69D31A022B01D903234DE02A4BD1
:104344001B6803F00073002BF0D045E0274B0022DC
:104354001A60FEF759FF386108E0FEF755FF024680
:104364003B69D31A022B01D9032336E01E4B1B6889
:1043740003F00073002BF0D12EE07B689B69012BC6
:1043840001D1012329E0184B9B68FB60FB6803F40F
:1043940080027B68DB699A421CD1FB6803F03F0210
:1043A4007B681B6A9A4215D1FA6847F6C0731340BA
:1043B4007A68526A93420DD1FB6803F440327B68F9
:1043C4009B6A9A4206D1FB6803F070627B68DB6AE1
:1043D4009A4201D0012300E0002318461837BD4655
:1043E40080BD00BF007000400038024060004742BA
:1043F40080B584B000AF786039607B68002B01D150
:104404000123CCE0684B1B6803F00F033A689A421F
:104414000CD9654B3A68D2B21A70634B1B6803F02F
:104424000F033A689A4201D00123B8E07B681B6805
:1044340003F00203002B20D07B681B6803F0040305
:10444400002B05D0594B9B68584A43F4E0539360C2
:104454007B681B6803F00803002B05D0534B9B6853
:10446400524A43F460439360504B9B6823F0F0023C
:104474007B689B684D4913438B607B681B6803F022
:104484000103002B44D07B685B68012B07D1474BA9
:104494001B6803F40033002B19D101237FE07B68F0
:1044A4005B68022B03D07B685B68032B07D13F4B0F
:1044B4001B6803F00073002B09D101236FE03B4B11
:1044C4001B6803F00203002B01D1012367E0374B83
:1044D4009B6823F003027B685B68344913438B6059
:1044E400FEF792FEF8600AE0FEF78EFE0246FB68D5
:1044F400D31A41F28832934201D903234FE02B4B64
:104504009B6803F00C027B685B689B009A42EBD1CA
:10451400254B1B6803F00F033A689A420CD2224BD6
:104524003A68D2B21A70204B1B6803F00F033A6842
:104534009A4201D0012332E07B681B6803F0040334
:10454400002B08D0194B9B6823F4E0527B68DB688E
:10455400164913438B607B681B6803F00803002B28
:1045640009D0124B9B6823F460427B681B69DB0013
:104574000E4913438B6000F021F801460B4B9B68F6
:104584001B0903F00F030A4AD35C21FA03F3094A17
:104594001360094B1B681846FEF7F2FD002318460A
:1045A4001037BD4680BD00BF003C024000380240C9
:1045B400A87000082000002024000020F0B585B079
:1045C40000AF00237B600023FB6000233B600023DB
:1045D400BB60634B9B6803F00C03042B07D0082BD0
:1045E40008D0002B40F0B4805E4BBB60B3E05E4B60
:1045F400BB60B0E05A4B5B6803F03F037B60584BF1
:104604005B6803F48003002B4AD0554B5B689B091D
:104614004FF0000440F2FF114FF0000203EA0105DD
:1046240004EA0206294632464FF000034FF0000424
:10463400540144EAD1644B0119462246491B62EBFA
:1046440006024FF000034FF00004940144EA916421
:104654008B015B1A64EB02044FF000014FF000027F
:10466400E20042EA5372D9000B4614465B1944EB4C
:1046740006044FF000014FF00002620242EAD352F6
:1046840059020B461446184621467B684FF0000435
:104694001A462346FCF7BAF903460C46FB6049E088
:1046A4002F4B5B689B094FF0000440F2FF114FF061
:1046B400000203EA010504EA0206294632464FF0E5
:1046C40000034FF00004540144EAD1644B0119463D
:1046D4002246491B62EB06024FF000034FF0000430
:1046E400940144EA91648B015B1A64EB02044FF079
:1046F40000014FF00002E20042EA5372D9000B4677
:1047040014465B1944EB06044FF000014FF000021D
:10471400A20242EA935299020B46144618462146D5
:104724007B684FF000041A462346FCF76FF90346F2
:104734000C46FB600A4B5B681B0C03F0030301335C
:104744005B003B60FA683B68B2FBF3F3BB6002E0DA
:10475400044BBB6000BFBB6818461437BD46F0BDB0
:10476400003802400024F40000127A0080B400AF44
:10477400034B1B681846BD465DF8047B704700BFB9
:104784002000002080B500AFFFF7F0FF0146054B85
:104794009B689B0A03F00703034AD35C21FA03F3E3
:1047A400184680BD00380240B870000880B500AFDC
:1047B400FFF7DCFF0146054B9B685B0B03F0070327
:1047C400034AD35C21FA03F3184680BD0038024043
:1047D400B870000880B582B000AF78607B68002BA9
:1047E40001D1012356E07B6800229A627B6893F82A
:1047F4005130DBB2002B06D17B68002283F85020B5
:104804007868FEF7BBFA7B68022283F851207B6844
:104814001B681A687B681B6822F040021A607B6878
:104824005A687B689B681A437B68DB681A437B6819
:104834001B691A437B685B691A437B689B6903F4B1
:1048440000731A437B68DB691A437B681B6A42EA7C
:1048540003017B689A6A7B681B680A431A607B6859
:104864009B691B0C03F004017B685A6A7B681B6814
:104874000A435A607B681B68DA697B681B6822F408
:104884000062DA617B6800225A657B68012283F842
:104894005120002318460837BD4680BD80B588B036
:1048A40000AFF860B9603B601346FB800023FB77E0
:1048B400FB6893F85030012B01D102231EE1FB6801
:1048C400012283F85020FEF79FFCB861FB88FB822D
:1048D400FB6893F85130DBB2012B02D00223FB7743
:1048E40003E1BB68002B02D0FB88002B02D101231B
:1048F400FB77FAE0FB68032283F85120FB6800226F
:104904005A65FB68BA681A63FB68FA889A86FB687A
:10491400FA88DA86FB6800229A63FB6800229A8789
:10492400FB680022DA87FB6800225A64FB680022D5
:104934001A64FB689B68B3F5004F07D1FB681B68DA
:104944001A68FB681B6842F480421A60FB681B68A3
:104954001B6803F04003402B07D0FB681B681A68F0
:10496400FB681B6842F040021A60FB68DB68B3F521
:10497400006F4BD1FB685B68002B02D0FB8A012BD4
:104984003ED1FB681B6B1A88FB681B68DA60FB6806
:104994001B6B9A1CFB681A63FB68DB8E9BB2013BA2
:1049A4009AB2FB68DA862BE0FB681B689B6803F00D
:1049B4000203022B12D1FB681B6B1A88FB681B686D
:1049C400DA60FB681B6B9A1CFB681A63FB68DB8E5E
:1049D4009BB2013B9AB2FB68DA8611E0FEF714FC45
:1049E4000246BB69D31A3A689A4203D83B68B3F1CA
:1049F400FF3F02D13B68002B02D10323FB7774E015
:104A0400FB68DB8E9BB2002BCED14CE0FB685B686D
:104A1400002B02D0FB8A012B40D1FB681A6BFB6888
:104A24001B680C3312781A70FB681B6B5A1CFB68EA
:104A34001A63FB68DB8E9BB2013B9AB2FB68DA8691
:104A44002CE0FB681B689B6803F00203022B13D164
:104A5400FB681A6BFB681B680C3312781A70FB68CE
:104A64001B6B5A1CFB681A63FB68DB8E9BB2013B11
:104A74009AB2FB68DA8611E0FEF7C6FB0246BB6910
:104A8400D31A3A689A4203D83B68B3F1FF3F02D184
:104A94003B68002B02D10323FB7726E0FB68DB8E07
:104AA4009BB2002BCDD1BA693968F86800F0D0FC0C
:104AB4000346002B02D0FB6820225A65FB689B68E2
:104AC400002B0AD100233B61FB681B68DB683B6158
:104AD400FB681B689B683B613B69FB685B6D002B53
:104AE40002D00123FB7700E000BFFB68012283F8BA
:104AF4005120FB68002283F85020FB7F18462037A2
:104B0400BD4680BD80B58CB000AFF860B9607A60F6
:104B14007B800123FB62002387F82B30FB6893F82A
:104B24005030012B01D102238AE1FB68012283F872
:104B34005020FEF769FB7862FB6893F8513087F8E0
:104B44002330FB685B68FB617B887B8397F82330A9
:104B5400012B0FD0FB69B3F5827F07D1FB689B68FB
:104B6400002B03D197F82330042B03D0022387F8BA
:104B74002B305BE1BB68002B05D07B68002B02D097
:104B84007B88002B03D1012387F82B304EE1FB688F
:104B940093F85130DBB2042B03D0FB68052283F871
:104BA4005120FB6800225A65FB687A689A63FB68A7
:104BB4007A88DA87FB687A889A87FB68BA681A6306
:104BC400FB687A88DA86FB687A889A86FB68002212
:104BD4001A64FB6800225A64FB681B681B6803F0B4
:104BE4004003402B07D0FB681B681A68FB681B68EE
:104BF40042F040021A60FB68DB68B3F5006F78D1BD
:104C0400FB685B68002B02D07B8B012B66D1FB68B1
:104C14001B6B1A88FB681B68DA60FB681B6B9A1CA9
:104C2400FB681A63FB68DB8E9BB2013B9AB2FB689C
:104C3400DA8653E0FB681B689B6803F00203022BCF
:104C44001BD1FB68DB8E9BB2002B16D0FB6A012BB9
:104C540013D1FB681B6B1A88FB681B68DA60FB685E
:104C64001B6B9A1CFB681A63FB68DB8E9BB2013BCF
:104C74009AB2FB68DA860023FB62FB681B689B68B8
:104C840003F00103012B19D1FB68DB8F9BB2002BCE
:104C940014D0FB681B68DA68FB689B6B92B21A80BD
:104CA400FB689B6B9A1CFB689A63FB68DB8F9BB267
:104CB400013B9AB2FB68DA870123FB62FEF7A4FA90
:104CC40002467B6AD31ABA6B9A4207D8BB6BB3F11C
:104CD400FF3F03D0032387F82B30A7E0FB68DB8E6C
:104CE4009BB2002BA6D1FB68DB8F9BB2002BA1D11A
:104CF4007CE0FB685B68002B02D07B8B012B6BD1C3
:104D0400FB681A6BFB681B680C3312781A70FB681B
:104D14001B6B5A1CFB681A63FB68DB8E9BB2013B5E
:104D24009AB2FB68DA8657E0FB681B689B6803F05D
:104D34000203022B1CD1FB68DB8E9BB2002B17D025
:104D4400FB6A012B14D1FB681A6BFB681B680C33DC
:104D540012781A70FB681B6B5A1CFB681A63FB6899
:104D6400DB8E9BB2013B9AB2FB68DA860023FB62BE
:104D7400FB681B689B6803F00103012B19D1FB68D6
:104D8400DB8F9BB2002B14D0FB681B68DA68FB68CE
:104D94009B6BD2B21A70FB689B6B5A1CFB689A63BC
:104DA400FB68DB8F9BB2013B9AB2FB68DA87012375
:104DB400FB62FEF729FA02467B6AD31ABA6B9A425F
:104DC40003D8BB6BB3F1FF3F02D1BB6B002B03D104
:104DD400032387F82B3029E0FB68DB8E9BB2002B82
:104DE400A2D1FB68DB8F9BB2002B9DD17A6AB96B91
:104DF400F86800F02DFB0346002B06D0012387F84A
:104E04002B30FB6820225A6510E0FB689B68002B5E
:104E14000BD100237B61FB681B68DB687B61FB684B
:104E24001B689B687B617B6900E000BFFB68012213
:104E340083F85120FB68002283F8502097F82B3028
:104E440018463037BD4680BD80B586B000AFF860E7
:104E5400B9607A607B800023FB75FB6893F850305F
:104E6400012B01D10223E3E0FB68012283F85020E7
:104E7400FB6893F85130BB75FB685B683B61BB7D95
:104E8400012B0DD03B69B3F5827F06D1FB689B688B
:104E9400002B02D1BB7D042B02D00223FB75C2E0A0
:104EA400BB68002B05D07B68002B02D07B88002BCD
:104EB40002D10123FB75B6E0FB6893F85130DBB2F5
:104EC400042B03D0FB68052283F85120FB680022E1
:104ED4005A65FB68BA681A63FB687A889A86FB6825
:104EE4007A88DA86FB687A689A63FB687A889A8794
:104EF400FB687A88DA87FB6800221A64FB68002260
:104F04005A64FB6893F85130DBB2042B08D1FB6878
:104F1400DB6C494A1A64FB68DB6C484ADA6307E0D5
:104F2400FB68DB6C464A1A64FB68DB6C454ADA634F
:104F3400FB68DB6C444ADA64FB68DB6C00221A65AC
:104F4400FB68D86CFB681B680C331946FB689B6BC9
:104F54001A46FB68DB8F9BB2FEF744FB0346002B2B
:104F64000CD0FB685B6D43F01002FB685A650123AB
:104F7400FB75FB68012283F8512054E0FB681B6831
:104F84005A68FB681B6842F001025A60FB689B6C1C
:104F940000221A64FB689B6C0022DA63FB689B6C3A
:104FA4000022DA64FB689B6C00221A65FB68986C2B
:104FB400FB681B6B1946FB681B680C331A46FB68BD
:104FC400DB8E9BB2FEF70EFB0346002B0CD0FB6876
:104FD4005B6D43F01002FB685A650123FB75FB68A7
:104FE400012283F851201EE0FB681B681B6803F054
:104FF4004003402B07D0FB681B681A68FB681B68DA
:1050040042F040021A60FB681B685A68FB681B6820
:1050140042F020025A60FB681B685A68FB681B68F0
:1050240042F002025A60FB68002283F85020FB7DA4
:1050340018461837BD4680BD3D5200082951000866
:1050440059520008AD5100087552000880B483B06D
:1050540000AF78607B6893F85030012B01D10223B4
:1050640010E07B68012283F850207B681B685A6833
:105074007B681B6822F003025A607B68002283F875
:105084005020002318460C37BD465DF8047B70475A
:1050940080B483B000AF78607B6893F85030012B04
:1050A40001D1022310E07B68012283F850207B6841
:1050B4001B685A687B681B6842F003025A607B686D
:1050C400002283F85020002318460C37BD465DF8B3
:1050D400047B704780B483B000AF786000BF0C37A6
:1050E400BD465DF8047B704780B483B000AF786040
:1050F40000BF0C37BD465DF8047B704780B483B0B5
:1051040000AF786000BF0C37BD465DF8047B704784
:1051140080B483B000AF786000BF0C37BD465DF843
:10512400047B704780B584B000AF78607B689B6B6C
:10513400FB60FEF769F8B8607B681B681B6803F4C2
:105144008073B3F5807F29D0FB681B685A68FB68BD
:105154001B6822F020025A60FB681B685A68FB68CF
:105164001B6822F003025A60BA686421F86800F0F0
:1051740009F90346002B02D0FB6820225A65FB681C
:105184000022DA87FB68012283F85120FB685B6DFB
:10519400002B03D0F868FFF7BBFF02E0F868FFF7C5
:1051A40099FF1037BD4680BD80B584B000AF7860EC
:1051B4007B689B6BFB60FEF727F8B8607B681B6815
:1051C4001B6803F48073B3F5807F2FD0FB681B68E2
:1051D4005A68FB681B6822F020025A60BA6864218E
:1051E400F86800F035F90346002B05D0FB685B6DC9
:1051F40043F02002FB685A65FB681B685A68FB6829
:105204001B6822F003025A60FB680022DA86FB68FE
:105214000022DA87FB68012283F85120FB685B6D6A
:10522400002B03D0F868FFF773FF02E0F868FBF780
:10523400D9FD1037BD4680BD80B584B000AF78601D
:105244007B689B6BFB60F868FFF74EFF00BF10376D
:10525400BD4680BD80B584B000AF78607B689B6B31
:10526400FB60F868FFF74AFF00BF1037BD4680BDFA
:1052740080B584B000AF78607B689B6BFB60FB6893
:105284001B685A68FB681B6822F003025A60FB68BB
:105294005B6D43F01002FB685A65FB68012283F8DA
:1052A4005120F868FFF734FF00BF1037BD4680BDBA
:1052B40080B584B000AFF860B9603B601346FB7101
:1052C4004CE03B68B3F1FF3F48D0FDF79DFF024639
:1052D400BB69D31A3A689A4202D93B68002B3DD184
:1052E400FB681B685A68FB681B6822F0E0025A607E
:1052F400FB685B68B3F5827F11D1FB689B68B3F5EB
:10530400004F04D0FB689B68B3F5806F07D1FB683E
:105314001B681A68FB681B6822F040021A60FB686D
:105324009B6AB3F5005F0FD1FB681B681A68FB68C2
:105334001B6822F400521A60FB681B681A68FB6839
:105344001B6842F400521A60FB68012283F8512062
:10535400FB68002283F8502003230FE0FB681B68DE
:105364009A68BB681340BA689A420CBF01230023B1
:10537400DBB21A46FB799A42A3D1002318461037B0
:10538400BD4680BD80B586B002AFF860B9607A6072
:10539400FB685B68B3F5827F11D1FB689B68B3F54A
:1053A400004F04D0FB689B68B3F5806F07D1FB689E
:1053B4001B681A68FB681B6822F040021A60FB68CD
:1053C4005B68B3F5827F2AD1FB689B68B3F5806F75
:1053D40012D07B680093BB6800228021F868FFF735
:1053E40067FF0346002B2DD0FB685B6D43F0200262
:1053F400FB685A65032326E07B680093BB680022A0
:105404000121F868FFF754FF0346002B1AD0FB680C
:105414005B6D43F02002FB685A65032313E07B684D
:105424000093BB6800220121F868FFF741FF03469F
:10543400002B07D0FB685B6D43F02002FB685A65C4
:10544400032300E0002318461037BD4680BD00004A
:1054540080B588B002AFF860B9607A601B4B1B68F6
:105464001B4AA2FB03235B0D4FF47A7202FB03F386
:105474007B61FB685B68B3F5827F12D17B68009324
:10548400BB6800228021F868FFF712FF0346002B57
:1054940016D0FB685B6D43F02002FB685A6503235A
:1054A4000FE07B69002B0AD07B69013B7B61FB68C1
:1054B4001B689B6803F08003802BF2D000E000BFE0
:1054C400002318461837BD4680BD00BF20000020C9
:1054D400819F5E1680B582B000AF78607B68002B38
:1054E40001D101231DE07B6893F83D30DBB2002B32
:1054F40006D17B68002283F83C207868FDF7B8FA6F
:105504007B68022283F83D207B681A687B68043339
:105514001946104600F03AFA7B68012283F83D20D0
:10552400002318460837BD4680BD80B582B000AF61
:1055340078607B68002B01D101231DE07B6893F820
:105544003D30DBB2002B06D17B68002283F83C207F
:10555400786800F015F87B68022283F83D207B68A8
:105564001A687B6804331946104600F00FFA7B680A
:10557400012283F83D20002318460837BD4680BD2C
:1055840080B483B000AF786000BF0C37BD465DF8CF
:10559400047B704780B584B000AF786039607B6865
:1055A4001B6801223968184600F096FC7B681B686A
:1055B400104A934207D17B681B685A6C7B681B684E
:1055C40042F400425A647B681B689B6803F007033B
:1055D400FB60FB68062B07D07B681B681A687B6836
:1055E4001B6842F001021A60002318461037BD46BA
:1055F40080BD00BF0000014080B582B000AF78607C
:1056040039607B681B6800223968184600F064FC26
:105614007B681B681D4A934217D17B681B681A6A12
:1056240041F211131340002B0FD17B681B681A6AD7
:1056340040F244431340002B07D17B681B685A6C2B
:105644007B681B6822F400425A647B681B681A6AF0
:1056540041F211131340002B0FD17B681B681A6AA7
:1056640040F244431340002B07D17B681B681A683F
:105674007B681B6822F001021A607B68012283F8B0
:105684003D20002318460837BD4680BD0000014078
:1056940080B584B000AFF860B9607A60FB6893F8B5
:1056A4003C30012B01D10223B4E0FB68012283F8D2
:1056B4003C20FB68022283F83D207B680C2B00F21F
:1056C4009F8001A252F823F00157000805580008F2
:1056D40005580008055800084157000805580008F7
:1056E40005580008055800088357000805580008A5
:1056F4000558000805580008C3570008FB681B68D4
:10570400B968184600F0C2F9FB681B689A69FB681F
:105714001B6842F008029A61FB681B689A69FB687F
:105724001B6822F004029A61FB681B689969BB68D4
:105734001A69FB681B680A439A6162E0FB681B688C
:10574400B968184600F008FAFB681B689A69FB6898
:105754001B6842F400629A61FB681B689A69FB68E3
:105764001B6822F480629A61FB681B689969BB68B4
:105774001B691A02FB681B680A439A6141E0FB68D3
:105784001B68B968184600F053FAFB681B68DA69AD
:10579400FB681B6842F00802DA61FB681B68DA697F
:1057A400FB681B6822F00402DA61FB681B68D96994
:1057B400BB681A69FB681B680A43DA6121E0FB686D
:1057C4001B68B968184600F09DFAFB681B68DA6923
:1057D400FB681B6842F40062DA61FB681B68DA69E3
:1057E400FB681B6822F48062DA61FB681B68D96974
:1057F400BB681B691A02FB681B680A43DA6100E094
:1058040000BFFB68012283F83D20FB68002283F877
:105814003C20002318461037BD4680BD80B584B0B7
:1058240000AF786039607B6893F83C30012B01D17C
:105834000223A6E07B68012283F83C207B680222D5
:1058440083F83D207B681B689B68FB60FB6823F042
:105854007703FB60FB6823F47F43FB607B681B6872
:10586400FA689A603B681B68402B67D0402B0BD8C2
:10587400102B73D0102B02D8002B6FD078E0202B84
:105884006CD0302B6AD073E0702B0DD0702B04D801
:10589400502B33D0602B41D06AE0B3F5805F66D0E3
:1058A400B3F5005F17D063E07B6818683B689968BC
:1058B4003B685A683B68DB6800F0EEFA7B681B685B
:1058C4009B68FB60FB6843F07703FB607B681B68A5
:1058D400FA689A604CE07B6818683B6899683B6892
:1058E4005A683B68DB6800F0D7FA7B681B689A68E3
:1058F4007B681B6842F480429A6039E07B681868D0
:105904003B6859683B68DB681A4600F04BFA7B68D1
:105914001B685021184600F0A4FA29E07B68186837
:105924003B6859683B68DB681A4600F06AFA7B6892
:105934001B686021184600F094FA19E07B68186827
:105944003B6859683B68DB681A4600F02BFA7B68B1
:105954001B684021184600F084FA09E07B681A6845
:105964003B681B681946104600F07BFA00E000BF54
:105974007B68012283F83D207B68002283F83C2069
:10598400002318461037BD4680BD000080B485B0A2
:1059940000AF786039607B681B68FB607B68344AC1
:1059A40093420FD07B68B3F1804F0BD07B68314AB0
:1059B400934207D07B68304A934203D07B682F4AD6
:1059C400934208D1FB6823F07003FB603B685B687B
:1059D400FA681343FB607B68254A93421BD07B68BB
:1059E400B3F1804F17D07B68224A934213D07B686F
:1059F400214A93420FD07B68204A93420BD07B68A4
:105A04001F4A934207D07B681E4A934203D07B68A7
:105A14001D4A934208D1FB6823F44073FB603B6842
:105A2400DB68FA681343FB60FB6823F080023B6881
:105A34005B691343FB607B68FA681A603B689A6889
:105A44007B68DA623B681A687B689A627B68084AFA
:105A5400934203D13B681A697B681A637B6801220D
:105A64005A6100BF1437BD465DF8047B704700BF20
:105A7400000001400004004000080040000C004009
:105A840000400140004401400048014080B487B018
:105A940000AF786039607B681B6A23F001027B6881
:105AA4001A627B681B6A7B617B685B683B617B680D
:105AB4009B69FB60FB6823F07003FB60FB6823F0C9
:105AC4000303FB603B681B68FA681343FB607B6954
